{"abi":[{"type":"constructor","inputs":[],"stateMutability":"nonpayable"},{"type":"function","name":"approve","inputs":[{"name":"to","type":"address","internalType":"address"},{"name":"tokenId","type":"uint256","internalType":"uint256"}],"outputs":[],"stateMutability":"nonpayable"},{"type":"function","name":"balanceOf","inputs":[{"name":"owner","type":"address","internalType":"address"}],"outputs":[{"name":"","type":"uint256","internalType":"uint256"}],"stateMutability":"view"},{"type":"function","name":"batchMint","inputs":[{"name":"recipients","type":"address[]","internalType":"address[]"},{"name":"difficulties","type":"uint8[]","internalType":"uint8[]"},{"name":"partySizes","type":"uint8[]","internalType":"uint8[]"},{"name":"themes","type":"uint8[]","internalType":"enum DungeonNFT.Theme[]"},{"name":"rarities","type":"uint8[]","internalType":"enum DungeonNFT.Rarity[]"}],"outputs":[],"stateMutability":"nonpayable"},{"type":"function","name":"getApproved","inputs":[{"name":"tokenId","type":"uint256","internalType":"uint256"}],"outputs":[{"name":"","type":"address","internalType":"address"}],"stateMutability":"view"},{"type":"function","name":"getMaxGold","inputs":[{"name":"tokenId","type":"uint256","internalType":"uint256"},{"name":"baseGoldRate","type":"uint256","internalType":"uint256"}],"outputs":[{"name":"","type":"uint256","internalType":"uint256"}],"stateMutability":"view"},{"type":"function","name":"getTraits","inputs":[{"name":"tokenId","type":"uint256","internalType":"uint256"}],"outputs":[{"name":"","type":"tuple","internalType":"struct DungeonNFT.DungeonTraits","components":[{"name":"difficulty","type":"uint8","internalType":"uint8"},{"name":"partySize","type":"uint8","internalType":"uint8"},{"name":"theme","type":"uint8","internalType":"enum DungeonNFT.Theme"},{"name":"rarity","type":"uint8","internalType":"enum DungeonNFT.Rarity"}]}],"stateMutability":"view"},{"type":"function","name":"isApprovedForAll","inputs":[{"name":"owner","type":"address","internalType":"address"},{"name":"operator","type":"address","internalType":"address"}],"outputs":[{"name":"","type":"bool","internalType":"bool"}],"stateMutability":"view"},{"type":"function","name":"mint","inputs":[{"name":"to","type":"address","internalType":"address"},{"name":"difficulty","type":"uint8","internalType":"uint8"},{"name":"partySize","type":"uint8","internalType":"uint8"},{"name":"theme","type":"uint8","internalType":"enum DungeonNFT.Theme"},{"name":"rarity","type":"uint8","internalType":"enum DungeonNFT.Rarity"}],"outputs":[{"name":"tokenId","type":"uint256","internalType":"uint256"}],"stateMutability":"nonpayable"},{"type":"function","name":"name","inputs":[],"outputs":[{"name":"","type":"string","internalType":"string"}],"stateMutability":"view"},{"type":"function","name":"nextTokenId","inputs":[],"outputs":[{"name":"","type":"uint256","internalType":"uint256"}],"stateMutability":"view"},{"type":"function","name":"owner","inputs":[],"outputs":[{"name":"","type":"address","internalType":"address"}],"stateMutability":"view"},{"type":"function","name":"ownerOf","inputs":[{"name":"tokenId","type":"uint256","internalType":"uint256"}],"outputs":[{"name":"","type":"address","internalType":"address"}],"stateMutability":"view"},{"type":"function","name":"renounceOwnership","inputs":[],"outputs":[],"stateMutability":"nonpayable"},{"type":"function","name":"safeTransferFrom","inputs":[{"name":"from","type":"address","internalType":"address"},{"name":"to","type":"address","internalType":"address"},{"name":"tokenId","type":"uint256","internalType":"uint256"}],"outputs":[],"stateMutability":"nonpayable"},{"type":"function","name":"safeTransferFrom","inputs":[{"name":"from","type":"address","internalType":"address"},{"name":"to","type":"address","internalType":"address"},{"name":"tokenId","type":"uint256","internalType":"uint256"},{"name":"data","type":"bytes","internalType":"bytes"}],"outputs":[],"stateMutability":"nonpayable"},{"type":"function","name":"setApprovalForAll","inputs":[{"name":"operator","type":"address","internalType":"address"},{"name":"approved","type":"bool","internalType":"bool"}],"outputs":[],"stateMutability":"nonpayable"},{"type":"function","name":"supportsInterface","inputs":[{"name":"interfaceId","type":"bytes4","internalType":"bytes4"}],"outputs":[{"name":"","type":"bool","internalType":"bool"}],"stateMutability":"view"},{"type":"function","name":"symbol","inputs":[],"outputs":[{"name":"","type":"string","internalType":"string"}],"stateMutability":"view"},{"type":"function","name":"tokenURI","inputs":[{"name":"tokenId","type":"uint256","internalType":"uint256"}],"outputs":[{"name":"","type":"string","internalType":"string"}],"stateMutability":"view"},{"type":"function","name":"traits","inputs":[{"name":"","type":"uint256","internalType":"uint256"}],"outputs":[{"name":"difficulty","type":"uint8","internalType":"uint8"},{"name":"partySize","type":"uint8","internalType":"uint8"},{"name":"theme","type":"uint8","internalType":"enum DungeonNFT.Theme"},{"name":"rarity","type":"uint8","internalType":"enum DungeonNFT.Rarity"}],"stateMutability":"view"},{"type":"function","name":"transferFrom","inputs":[{"name":"from","type":"address","internalType":"address"},{"name":"to","type":"address","internalType":"address"},{"name":"tokenId","type":"uint256","internalType":"uint256"}],"outputs":[],"stateMutability":"nonpayable"},{"type":"function","name":"transferOwnership","inputs":[{"name":"newOwner","type":"address","internalType":"address"}],"outputs":[],"stateMutability":"nonpayable"},{"type":"event","name":"Approval","inputs":[{"name":"owner","type":"address","indexed":true,"internalType":"address"},{"name":"approved","type":"address","indexed":true,"internalType":"address"},{"name":"tokenId","type":"uint256","indexed":true,"internalType":"uint256"}],"anonymous":false},{"type":"event","name":"ApprovalForAll","inputs":[{"name":"owner","type":"address","indexed":true,"internalType":"address"},{"name":"operator","type":"address","indexed":true,"internalType":"address"},{"name":"approved","type":"bool","indexed":false,"internalType":"bool"}],"anonymous":false},{"type":"event","name":"DungeonMinted","inputs":[{"name":"tokenId","type":"uint256","indexed":true,"internalType":"uint256"},{"name":"to","type":"address","indexed":true,"internalType":"address"},{"name":"difficulty","type":"uint8","indexed":false,"internalType":"uint8"},{"name":"partySize","type":"uint8","indexed":false,"internalType":"uint8"},{"name":"theme","type":"uint8","indexed":false,"internalType":"enum DungeonNFT.Theme"},{"name":"rarity","type":"uint8","indexed":false,"internalType":"enum DungeonNFT.Rarity"}],"anonymous":false},{"type":"event","name":"OwnershipTransferred","inputs":[{"name":"previousOwner","type":"address","indexed":true,"internalType":"address"},{"name":"newOwner","type":"address","indexed":true,"internalType":"address"}],"anonymous":false},{"type":"event","name":"Transfer","inputs":[{"name":"from","type":"address","indexed":true,"internalType":"address"},{"name":"to","type":"address","indexed":true,"internalType":"address"},{"name":"tokenId","type":"uint256","indexed":true,"internalType":"uint256"}],"anonymous":false},{"type":"error","name":"ERC721IncorrectOwner","inputs":[{"name":"sender","type":"address","internalType":"address"},{"name":"tokenId","type":"uint256","internalType":"uint256"},{"name":"owner","type":"address","internalType":"address"}]},{"type":"error","name":"ERC721InsufficientApproval","inputs":[{"name":"operator","type":"address","internalType":"address"},{"name":"tokenId","type":"uint256","internalType":"uint256"}]},{"type":"error","name":"ERC721InvalidApprover","inputs":[{"name":"approver","type":"address","internalType":"address"}]},{"type":"error","name":"ERC721InvalidOperator","inputs":[{"name":"operator","type":"address","internalType":"address"}]},{"type":"error","name":"ERC721InvalidOwner","inputs":[{"name":"owner","type":"address","internalType":"address"}]},{"type":"error","name":"ERC721InvalidReceiver","inputs":[{"name":"receiver","type":"address","internalType":"address"}]},{"type":"error","name":"ERC721InvalidSender","inputs":[{"name":"sender","type":"address","internalType":"address"}]},{"type":"error","name":"ERC721NonexistentToken","inputs":[{"name":"tokenId","type":"uint256","internalType":"uint256"}]},{"type":"error","name":"InvalidDifficulty","inputs":[]},{"type":"error","name":"InvalidPartySize","inputs":[]},{"type":"error","name":"OwnableInvalidOwner","inputs":[{"name":"owner","type":"address","internalType":"address"}]},{"type":"error","name":"OwnableUnauthorizedAccount","inputs":[{"name":"account","type":"address","internalType":"address"}]},{"type":"error","name":"TokenDoesNotExist","inputs":[]}],"bytecode":{"object":"0x60803462000346576001600160401b03906040908082018381118282101762000264578252600b81526020926a111d5b99d95bdb8813919560aa1b8483015282519383850185811083821117620002645784526007855266222aa723a2a7a760c91b8186015282519082821162000264575f54916001948584811c941680156200033b575b8385101462000245578190601f94858111620002e8575b50839085831160011462000284575f9262000278575b50505f19600383901b1c191690851b175f555b8551928311620002645783548481811c9116801562000259575b828210146200024557828111620001fd575b5080918311600114620001985750819293945f926200018c575b50505f19600383901b1c191690821b1790555b3315620001765760068054336001600160a01b0319821681179092559151916001600160a01b03167f8be0079c531659141344cd1fd0a4f28419497f9722a3daafe3b4186f6b6457e05f80a36116a390816200034b8239f35b51631e4fbdf760e01b81525f6004820152602490fd5b015190505f806200010a565b90601f19831695845f52825f20925f905b888210620001e55750508385969710620001cc575b505050811b0190556200011d565b01515f1960f88460031b161c191690555f8080620001be565b808785968294968601518155019501930190620001a9565b845f52815f208380860160051c8201928487106200023b575b0160051c019085905b8281106200022f575050620000f0565b5f81550185906200021f565b9250819262000216565b634e487b7160e01b5f52602260045260245ffd5b90607f1690620000de565b634e487b7160e01b5f52604160045260245ffd5b015190505f80620000b1565b90879350601f198316915f8052855f20925f5b87828210620002d15750508411620002b8575b505050811b015f55620000c4565b01515f1960f88460031b161c191690555f8080620002aa565b8385015186558b9790950194938401930162000297565b9091505f8052835f208580850160051c82019286861062000331575b918991869594930160051c01915b828110620003225750506200009b565b5f815585945089910162000312565b9250819262000304565b93607f169362000084565b5f80fdfe610100806040526004361015610013575f80fd5b5f3560e01c90816301ffc9a714610e885750806306fdde0314610dcb578063081812fc14610d8f578063095ea7b314610cae57806323b872dd14610c975780632d72225b14610c4e57806342842e0e14610c215780636352211e14610bf157806370a0823114610b9b578063715018a614610b4057806375794a3c14610b235780638da5cb5b14610afb57806395d89b41146109f1578063a22cb46514610950578063a581d7f8146108dd578063b88d4fde14610847578063c29b7f11146106ca578063c87b56dd14610675578063e1dc076114610590578063e985e9c51461053e578063f2fde38b146104b25763f5babc0a1461010f575f80fd5b346103e05760a03660031901126103e05767ffffffffffffffff6004358181116103e057610141903690600401611067565b60e0526024358281116103e05761015c903690600401611067565b60a0526080526044358281116103e05761017a903690600401611067565b9060c0526064358381116103e057610196903690600401611067565b9290936084359081116103e0576101b1903690600401611067565b9390946101bc6112d9565b60a05160e05114806104a7575b8061049c575b80610491575b15610454575f5b60e05181106101e757005b60ff906001826102046101ff8460a051608051611259565b61127d565b16108015610437575b610425576002826102246101ff848a60c051611259565b1610801561040a575b6103f85760079182549261024084611233565b90556102546101ff8360a051608051611259565b6102646101ff848a60c051611259565b90610270848888611259565b35600a8110156103e057610285858c8e611259565b359060048210156103e057846040519361029e85610fdd565b1683526102c660209286848601961686526102bd604086019384611241565b6060850161124d565b865f52600880925261ff0060405f20958451169286549551901b16905192600a8410156103e457606001519160048310156103e45763ff00000062ff00009360181b169463ffffffff191617179160101b161717905561033a826103356103308460e0518a611259565b61128b565b61144f565b61034a6103308260e05188611259565b9161035d6101ff8360a051608051611259565b9061036e6101ff848a60c051611259565b9361037a848888611259565b3594600a8610156103e057610390858c8e611259565b359160048310156103e0576103d77f1edf3431fd7feccda15d388344f6a35db9ca9f1585da78ed4c707dd8b79020b0936001986040519485948b8060a01b03169885610fac565b0390a3016101dc565b5f80fd5b634e487b7160e01b5f52602160045260245ffd5b604051633035a8e160e01b8152600490fd5b5060068261041e6101ff848a60c051611259565b161161022d565b60405163eff9b19d60e01b8152600490fd5b50600a8261044d6101ff8460a051608051611259565b161161020d565b60405162461bcd60e51b8152602060048201526015602482015274082e4e4c2f240d8cadccee8d040dad2e6dac2e8c6d605b1b6044820152606490fd5b508460e051146101d5565b508160e051146101cf565b508360e051146101c9565b346103e05760203660031901126103e0576104cb610f31565b6104d36112d9565b6001600160a01b0390811690811561052657600654826bffffffffffffffffffffffff60a01b821617600655167f8be0079c531659141344cd1fd0a4f28419497f9722a3daafe3b4186f6b6457e05f80a3005b604051631e4fbdf760e01b81525f6004820152602490fd5b346103e05760403660031901126103e057610557610f31565b61055f610f47565b9060018060a01b038091165f52600560205260405f2091165f52602052602060ff60405f2054166040519015158152f35b346103e0576020806003193601126103e057600435905f60606040516105b581610fdd565b82815282848201528260408201520152815f526002815260018060a01b0360405f20541615610663576080915f526008815261066160405f2091610656604051936105ff85610fdd565b549160ff90818416865280860191808560081c1683526040870192610629828760101c1685611241565b61063c8260608a019760181c168761124d565b816040519851168852511690860152516040850190610f92565b516060830190610f9f565bf35b60405163677510db60e11b8152600490fd5b346103e05760203660031901126103e05761069160043561129f565b505f60405161069f8161100d565b526106c66040516106af8161100d565b5f8152604051918291602083526020830190610ef3565b0390f35b346103e05760a03660031901126103e0576106e3610f31565b60243560ff8116908181036103e0576044359260ff8416908185036103e05760643594600a8610156103e0576084359160048310156103e0576107246112d9565b60018610801561083d575b61042557600284108015610833575b6103f8576007549561074f87611233565b6007556040519061075f82610fdd565b81526020810194855260408101936107778986611241565b6060820198610786828b61124d565b885f52600860205260ff60405f209351169261ff008154985160081b1696519a600a8c10156103e457519760048910156103e45760209b62ff00007f1edf3431fd7feccda15d388344f6a35db9ca9f1585da78ed4c707dd8b79020b0996108289763ff0000008f9d60181b169463ffffffff191617179160101b161717905561080f878561144f565b6040516001600160a01b03909416979394859485610fac565b0390a3604051908152f35b506006841161073e565b50600a861161072f565b346103e05760803660031901126103e057610860610f31565b610868610f47565b906044356064359267ffffffffffffffff84116103e057366023850112156103e0578360040135926108998461104b565b936108a76040519586611029565b80855236602482880101116103e0576020815f9260246108db990183890137860101526108d5838383611098565b33611305565b005b346103e05760403660031901126103e0576004355f8181526002602052604090205460243591906001600160a01b031615610663575f52600860205260ff60405f20541681810291818304149015171561093c57602090604051908152f35b634e487b7160e01b5f52601160045260245ffd5b346103e05760403660031901126103e057610969610f31565b602435908115158092036103e0576001600160a01b03169081156109d857335f52600560205260405f20825f5260205260405f2060ff1981541660ff83161790556040519081527f17307eab39ab6107e8899845ad3d59bd9653f200f220920489ca2b5937696c3160203392a3005b604051630b61174360e31b815260048101839052602490fd5b346103e0575f3660031901126103e0576040515f600190600154918260011c9160018416918215610af1575b6020948585108414610add5785879486865291825f14610abd575050600114610a62575b50610a4e92500383611029565b6106c6604051928284938452830190610ef3565b84915060015f527fb10e2d527612073b26eecdfd717e6a320cf44b4afac2b0732d9fcbe2b7fa0cf6905f915b858310610aa5575050610a4e935082010185610a41565b80548389018501528794508693909201918101610a8e565b60ff191685820152610a4e95151560051b8501019250879150610a419050565b634e487b7160e01b5f52602260045260245ffd5b92607f1692610a1d565b346103e0575f3660031901126103e0576006546040516001600160a01b039091168152602090f35b346103e0575f3660031901126103e0576020600754604051908152f35b346103e0575f3660031901126103e057610b586112d9565b600680546001600160a01b031981169091555f906001600160a01b03167f8be0079c531659141344cd1fd0a4f28419497f9722a3daafe3b4186f6b6457e08280a3005b346103e05760203660031901126103e0576001600160a01b03610bbc610f31565b168015610bd9575f526003602052602060405f2054604051908152f35b6040516322718ad960e21b81525f6004820152602490fd5b346103e05760203660031901126103e0576020610c0f60043561129f565b6040516001600160a01b039091168152f35b346103e0576108db610c3236610f5d565b9060405192610c408461100d565b5f84526108d5838383611098565b346103e05760203660031901126103e0576004355f5260086020526106c660405f2054604051918160ff849360181c169060ff8160101c169060ff808260081c16911685610fac565b346103e0576108db610ca836610f5d565b91611098565b346103e05760403660031901126103e057610cc7610f31565b602435610cd38161129f565b33151580610d7c575b80610d53575b610d3b576001600160a01b039283169282918491167f8c5be1e5ebec7d5bd14f71427d1e84f3dd0314c0f7b2291e5b200ac8c7c3b9255f80a45f90815260046020526040902080546001600160a01b0319169091179055005b60405163a9fbf51f60e01b8152336004820152602490fd5b5060018060a01b0381165f52600560205260405f20335f5260205260ff60405f20541615610ce2565b506001600160a01b038116331415610cdc565b346103e05760203660031901126103e057600435610dac8161129f565b505f526004602052602060018060a01b0360405f205416604051908152f35b346103e0575f3660031901126103e0576040515f80549060018260011c9160018416918215610e7e575b6020948585108414610add5785879486865291825f14610abd575050600114610e255750610a4e92500383611029565b5f808052859250907f290decd9548b62a8d60345a988386fc84ba6bc95484008f6362f93160ef3e5635b858310610e66575050610a4e935082010185610a41565b80548389018501528794508693909201918101610e4f565b92607f1692610df5565b346103e05760203660031901126103e0576004359063ffffffff60e01b82168092036103e0576020916380ac58cd60e01b8114908115610ee2575b8115610ed1575b5015158152f35b6301ffc9a760e01b14905083610eca565b635b5e139f60e01b81149150610ec3565b91908251928382525f5b848110610f1d575050825f602080949584010152601f8019910116010190565b602081830181015184830182015201610efd565b600435906001600160a01b03821682036103e057565b602435906001600160a01b03821682036103e057565b60609060031901126103e0576001600160a01b039060043582811681036103e0579160243590811681036103e0579060443590565b90600a8210156103e45752565b9060048210156103e45752565b610fd4610fdb9460ff60609498979581608086019a1685521660208401526040830190610f92565b0190610f9f565b565b6080810190811067ffffffffffffffff821117610ff957604052565b634e487b7160e01b5f52604160045260245ffd5b6020810190811067ffffffffffffffff821117610ff957604052565b90601f8019910116810190811067ffffffffffffffff821117610ff957604052565b67ffffffffffffffff8111610ff957601f01601f191660200190565b9181601f840112156103e05782359167ffffffffffffffff83116103e0576020808501948460051b0101116103e057565b6001600160a01b03918216929091831561121b57815f52602092600284528260409583875f2054169533151580611189575b5060029087611158575b825f5260038152885f2060018154019055835f5252865f20816bffffffffffffffffffffffff60a01b825416179055857fddf252ad1be2c89b69c2b068fc378daa952ba7f163c4a11628f55a4df523b3ef5f80a416928383036111375750505050565b6064945051926364283d7b60e01b8452600484015260248301526044820152fd5b5f84815260046020526040812080546001600160a01b03191690558881526003825289902080545f190190556110d4565b91925090806111da575b156111a1579084915f6110ca565b8685876111be576024915190637e27328960e01b82526004820152fd5b604491519063177e802f60e01b82523360048301526024820152fd5b5033861480156111ff575b806111935750845f52600481523384885f20541614611193565b50855f5260058152865f20335f52815260ff875f2054166111e5565b604051633250574960e11b81525f6004820152602490fd5b5f19811461093c5760010190565b600a8210156103e45752565b60048210156103e45752565b91908110156112695760051b0190565b634e487b7160e01b5f52603260045260245ffd5b3560ff811681036103e05790565b356001600160a01b03811681036103e05790565b5f818152600260205260409020546001600160a01b03169081156112c1575090565b60249060405190637e27328960e01b82526004820152fd5b6006546001600160a01b031633036112ed57565b60405163118cdaa760e01b8152336004820152602490fd5b9293909193843b611318575b5050505050565b604051630a85bd0160e11b8082526001600160a01b03958616600483015293851660248201526044810191909152608060648201526020959490931693929085908290819061136b906084830190610ef3565b03815f885af15f918161140f575b506113d8575050503d5f146113d0573d916113938361104b565b926113a16040519485611029565b83523d5f8285013e5b825192836113cb57604051633250574960e11b815260048101849052602490fd5b019050fd5b6060916113aa565b9193506001600160e01b0319909116036113f757505f80808080611311565b60249060405190633250574960e11b82526004820152fd5b9091508581813d8311611448575b6114278183611029565b810103126103e057516001600160e01b0319811681036103e057905f611379565b503d61141d565b604080519261145d8461100d565b5f84526001600160a01b039383851693841561165657825f5260209560028752845f20541683868215159283611625575b5f82815260038b528881208054600101905583815260028b5288812080546001600160a01b031916841790557fddf252ad1be2c89b69c2b068fc378daa952ba7f163c4a11628f55a4df523b3ef9080a461160e573b6114ee575050505050565b8461152b9184959697945180938192630a85bd0160e11b968784523360048501525f60248501526044840152608060648401526084830190610ef3565b03815f895af15f91816115ce575b50611597575050503d5f1461158f573d926115538461104b565b9361156083519586611029565b84523d5f8286013e5b83519384611589578251633250574960e11b815260048101859052602490fd5b84925001fd5b606092611569565b9194506001600160e01b0319909116036115b75750505f80808080611311565b602492505190633250574960e11b82526004820152fd5b9091508681813d8311611607575b6115e68183611029565b810103126103e057516001600160e01b0319811681036103e057905f611539565b503d6115dc565b83516339e3563760e11b81525f6004820152602490fd5b5f83815260046020526040812080546001600160a01b031916905581815260038b5288902080545f1901905561148e565b8351633250574960e11b81525f6004820152602490fdfea2646970667358221220cd175fa19168be4633bbf1c06ca6413ee2d04c66139c2537c313f05d33c2810864736f6c63430008180033","linkReferences":{}},"methodIdentifiers":{"approve(address,uint256)":"095ea7b3","balanceOf(address)":"70a08231","batchMint(address[],uint8[],uint8[],uint8[],uint8[])":"f5babc0a","getApproved(uint256)":"081812fc","getMaxGold(uint256,uint256)":"a581d7f8","getTraits(uint256)":"e1dc0761","isApprovedForAll(address,address)":"e985e9c5","mint(address,uint8,uint8,uint8,uint8)":"c29b7f11","name()":"06fdde03","nextTokenId()":"75794a3c","owner()":"8da5cb5b","ownerOf(uint256)":"6352211e","renounceOwnership()":"715018a6","safeTransferFrom(address,address,uint256)":"42842e0e","safeTransferFrom(address,address,uint256,bytes)":"b88d4fde","setApprovalForAll(address,bool)":"a22cb465","supportsInterface(bytes4)":"01ffc9a7","symbol()":"95d89b41","tokenURI(uint256)":"c87b56dd","traits(uint256)":"2d72225b","transferFrom(address,address,uint256)":"23b872dd","transferOwnership(address)":"f2fde38b"},"id":1}