{"abi":[{"type":"constructor","inputs":[{"name":"_gold","type":"address","internalType":"address"},{"name":"_ticketPrice","type":"uint256","internalType":"uint256"}],"stateMutability":"nonpayable"},{"type":"function","name":"STANDARD_TICKET","inputs":[],"outputs":[{"name":"","type":"uint256","internalType":"uint256"}],"stateMutability":"view"},{"type":"function","name":"balanceOf","inputs":[{"name":"account","type":"address","internalType":"address"},{"name":"id","type":"uint256","internalType":"uint256"}],"outputs":[{"name":"","type":"uint256","internalType":"uint256"}],"stateMutability":"view"},{"type":"function","name":"balanceOfBatch","inputs":[{"name":"accounts","type":"address[]","internalType":"address[]"},{"name":"ids","type":"uint256[]","internalType":"uint256[]"}],"outputs":[{"name":"","type":"uint256[]","internalType":"uint256[]"}],"stateMutability":"view"},{"type":"function","name":"batchMint","inputs":[{"name":"recipients","type":"address[]","internalType":"address[]"},{"name":"amounts","type":"uint256[]","internalType":"uint256[]"}],"outputs":[],"stateMutability":"nonpayable"},{"type":"function","name":"burnTicket","inputs":[{"name":"from","type":"address","internalType":"address"},{"name":"amount","type":"uint256","internalType":"uint256"}],"outputs":[],"stateMutability":"nonpayable"},{"type":"function","name":"burner","inputs":[],"outputs":[{"name":"","type":"address","internalType":"address"}],"stateMutability":"view"},{"type":"function","name":"gold","inputs":[],"outputs":[{"name":"","type":"address","internalType":"contract Gold"}],"stateMutability":"view"},{"type":"function","name":"isApprovedForAll","inputs":[{"name":"account","type":"address","internalType":"address"},{"name":"operator","type":"address","internalType":"address"}],"outputs":[{"name":"","type":"bool","internalType":"bool"}],"stateMutability":"view"},{"type":"function","name":"mint","inputs":[{"name":"to","type":"address","internalType":"address"},{"name":"amount","type":"uint256","internalType":"uint256"}],"outputs":[],"stateMutability":"nonpayable"},{"type":"function","name":"owner","inputs":[],"outputs":[{"name":"","type":"address","internalType":"address"}],"stateMutability":"view"},{"type":"function","name":"purchaseWithGold","inputs":[{"name":"amount","type":"uint256","internalType":"uint256"}],"outputs":[],"stateMutability":"nonpayable"},{"type":"function","name":"renounceOwnership","inputs":[],"outputs":[],"stateMutability":"nonpayable"},{"type":"function","name":"safeBatchTransferFrom","inputs":[{"name":"from","type":"address","internalType":"address"},{"name":"to","type":"address","internalType":"address"},{"name":"ids","type":"uint256[]","internalType":"uint256[]"},{"name":"values","type":"uint256[]","internalType":"uint256[]"},{"name":"data","type":"bytes","internalType":"bytes"}],"outputs":[],"stateMutability":"nonpayable"},{"type":"function","name":"safeTransferFrom","inputs":[{"name":"from","type":"address","internalType":"address"},{"name":"to","type":"address","internalType":"address"},{"name":"id","type":"uint256","internalType":"uint256"},{"name":"value","type":"uint256","internalType":"uint256"},{"name":"data","type":"bytes","internalType":"bytes"}],"outputs":[],"stateMutability":"nonpayable"},{"type":"function","name":"setApprovalForAll","inputs":[{"name":"operator","type":"address","internalType":"address"},{"name":"approved","type":"bool","internalType":"bool"}],"outputs":[],"stateMutability":"nonpayable"},{"type":"function","name":"setBurner","inputs":[{"name":"_burner","type":"address","internalType":"address"}],"outputs":[],"stateMutability":"nonpayable"},{"type":"function","name":"setTicketPrice","inputs":[{"name":"_ticketPrice","type":"uint256","internalType":"uint256"}],"outputs":[],"stateMutability":"nonpayable"},{"type":"function","name":"supportsInterface","inputs":[{"name":"interfaceId","type":"bytes4","internalType":"bytes4"}],"outputs":[{"name":"","type":"bool","internalType":"bool"}],"stateMutability":"view"},{"type":"function","name":"ticketBalance","inputs":[{"name":"account","type":"address","internalType":"address"}],"outputs":[{"name":"","type":"uint256","internalType":"uint256"}],"stateMutability":"view"},{"type":"function","name":"ticketPrice","inputs":[],"outputs":[{"name":"","type":"uint256","internalType":"uint256"}],"stateMutability":"view"},{"type":"function","name":"totalBurned","inputs":[],"outputs":[{"name":"","type":"uint256","internalType":"uint256"}],"stateMutability":"view"},{"type":"function","name":"totalMinted","inputs":[],"outputs":[{"name":"","type":"uint256","internalType":"uint256"}],"stateMutability":"view"},{"type":"function","name":"transferOwnership","inputs":[{"name":"newOwner","type":"address","internalType":"address"}],"outputs":[],"stateMutability":"nonpayable"},{"type":"function","name":"uri","inputs":[{"name":"","type":"uint256","internalType":"uint256"}],"outputs":[{"name":"","type":"string","internalType":"string"}],"stateMutability":"view"},{"type":"event","name":"ApprovalForAll","inputs":[{"name":"account","type":"address","indexed":true,"internalType":"address"},{"name":"operator","type":"address","indexed":true,"internalType":"address"},{"name":"approved","type":"bool","indexed":false,"internalType":"bool"}],"anonymous":false},{"type":"event","name":"BurnerSet","inputs":[{"name":"oldBurner","type":"address","indexed":true,"internalType":"address"},{"name":"newBurner","type":"address","indexed":true,"internalType":"address"}],"anonymous":false},{"type":"event","name":"OwnershipTransferred","inputs":[{"name":"previousOwner","type":"address","indexed":true,"internalType":"address"},{"name":"newOwner","type":"address","indexed":true,"internalType":"address"}],"anonymous":false},{"type":"event","name":"TicketPriceUpdated","inputs":[{"name":"oldPrice","type":"uint256","indexed":false,"internalType":"uint256"},{"name":"newPrice","type":"uint256","indexed":false,"internalType":"uint256"}],"anonymous":false},{"type":"event","name":"TicketsPurchased","inputs":[{"name":"buyer","type":"address","indexed":true,"internalType":"address"},{"name":"amount","type":"uint256","indexed":false,"internalType":"uint256"},{"name":"goldBurned","type":"uint256","indexed":false,"internalType":"uint256"}],"anonymous":false},{"type":"event","name":"TransferBatch","inputs":[{"name":"operator","type":"address","indexed":true,"internalType":"address"},{"name":"from","type":"address","indexed":true,"internalType":"address"},{"name":"to","type":"address","indexed":true,"internalType":"address"},{"name":"ids","type":"uint256[]","indexed":false,"internalType":"uint256[]"},{"name":"values","type":"uint256[]","indexed":false,"internalType":"uint256[]"}],"anonymous":false},{"type":"event","name":"TransferSingle","inputs":[{"name":"operator","type":"address","indexed":true,"internalType":"address"},{"name":"from","type":"address","indexed":true,"internalType":"address"},{"name":"to","type":"address","indexed":true,"internalType":"address"},{"name":"id","type":"uint256","indexed":false,"internalType":"uint256"},{"name":"value","type":"uint256","indexed":false,"internalType":"uint256"}],"anonymous":false},{"type":"event","name":"URI","inputs":[{"name":"value","type":"string","indexed":false,"internalType":"string"},{"name":"id","type":"uint256","indexed":true,"internalType":"uint256"}],"anonymous":false},{"type":"error","name":"ERC1155InsufficientBalance","inputs":[{"name":"sender","type":"address","internalType":"address"},{"name":"balance","type":"uint256","internalType":"uint256"},{"name":"needed","type":"uint256","internalType":"uint256"},{"name":"tokenId","type":"uint256","internalType":"uint256"}]},{"type":"error","name":"ERC1155InvalidApprover","inputs":[{"name":"approver","type":"address","internalType":"address"}]},{"type":"error","name":"ERC1155InvalidArrayLength","inputs":[{"name":"idsLength","type":"uint256","internalType":"uint256"},{"name":"valuesLength","type":"uint256","internalType":"uint256"}]},{"type":"error","name":"ERC1155InvalidOperator","inputs":[{"name":"operator","type":"address","internalType":"address"}]},{"type":"error","name":"ERC1155InvalidReceiver","inputs":[{"name":"receiver","type":"address","internalType":"address"}]},{"type":"error","name":"ERC1155InvalidSender","inputs":[{"name":"sender","type":"address","internalType":"address"}]},{"type":"error","name":"ERC1155MissingApprovalForAll","inputs":[{"name":"operator","type":"address","internalType":"address"},{"name":"owner","type":"address","internalType":"address"}]},{"type":"error","name":"InsufficientGold","inputs":[]},{"type":"error","name":"OnlyBurner","inputs":[]},{"type":"error","name":"OwnableInvalidOwner","inputs":[{"name":"owner","type":"address","internalType":"address"}]},{"type":"error","name":"OwnableUnauthorizedAccount","inputs":[{"name":"account","type":"address","internalType":"address"}]},{"type":"error","name":"PriceTooHigh","inputs":[]},{"type":"error","name":"ZeroAddress","inputs":[]},{"type":"error","name":"ZeroAmount","inputs":[]}],"bytecode":{"object":"0x60a034620001bd5762001b8c906001600160401b0390601f38849003908101601f191682019083821183831017620001a95780839160409687948552833981010312620001bd5780516001600160a01b03808216929091839003620001bd5760200151928451602081019181831090831117620001a9575f91865252600254600190600181811c911680156200019e575b60208210146200018a57601f811162000140575b50505f6002553315620001295760038054336001600160a01b031982168117909255855192167f8be0079c531659141344cd1fd0a4f28419497f9722a3daafe3b4186f6b6457e05f80a381156200011a5750608052600455516119ca9081620001c282396080518181816102a10152610ff90152f35b63d92e233d60e01b8152600490fd5b8351631e4fbdf760e01b81525f6004820152602490fd5b60025f52601f0160051c7f405787fa12a823e0f2b7631cc41b3ba8828b3321ca811111fa75cd3aa3bb5ace908101905b8181106200017f5750620000a4565b5f8155820162000170565b634e487b7160e01b5f52602260045260245ffd5b90607f169062000090565b634e487b7160e01b5f52604160045260245ffd5b5f80fdfe60806040526004361015610011575f80fd5b5f3560e01c8062fdd58e1461019357806301ffc9a71461018e5780630c57dc56146101895780630e89341c146101845780631209b1f61461017f578063159816501461017a57806322fe08131461017557806327810b6e146101705780632eb2c2d61461016b57806340c10f19146101665780634e1273f414610161578063685731071461015c578063709aa1a614610157578063715018a6146101525780638da5cb5b1461014d578063a22cb46514610148578063a2309ff814610143578063a996d6ce1461013e578063d89135cd14610139578063e985e9c514610134578063f242432a1461012f578063f2fde38b1461012a578063f66fd234146101255763fbec6f2114610120575f80fd5b610fe4565b610fca565b610f3a565b610e2e565b610dca565b610dad565b610d29565b610d0c565b610c4d565b610c25565b610bca565b610b0f565b610a03565b610915565b610871565b610746565b6105d9565b610598565b610520565b610503565b6103f2565b610279565b61020b565b6101ad565b6001600160a01b038116036101a957565b5f80fd5b346101a95760403660031901126101a95760206101f06004356101cf81610198565b6024355f525f835260405f209060018060a01b03165f5260205260405f2090565b54604051908152f35b6001600160e01b03198116036101a957565b346101a95760203660031901126101a957602060043561022a816101f9565b63ffffffff60e01b16636cdb3d1360e11b8114908115610268575b8115610257575b506040519015158152f35b6301ffc9a760e01b1490505f61024c565b6303a24d0760e21b81149150610245565b346101a95760203660031901126101a957600435801561038e5761029f6004548261103c565b7f00000000000000000000000000000000000000000000000000000000000000006001600160a01b031690813b156101a95760405163079cc67960e41b815233600482015260248101829052915f908390604490829084905af1908115610389577f7d58f5ddf17a7f65d89554f5d8144ae1dc788046467927063c090f92ed1145dc9261036b92610370575b5061033e61033761105a565b853361117d565b61035261034d8560065461106c565b600655565b6040805194855260208501919091523393918291820190565b0390a2005b8061037d61038392610615565b806104f9565b5f61032b565b61104f565b604051631f2a200560e01b8152600490fd5b91908251928382525f5b8481106103ca575050825f602080949584010152601f8019910116010190565b6020818301810151848301820152016103aa565b9060206103ef9281815201906103a0565b90565b346101a9576020806003193601126101a957604051905f906002546001918160011c92600183169283156104ef575b6020851084146104db5784875260208701939081156104bc5750600114610463575b61045f866104538188038261064a565b604051918291826103de565b0390f35b60025f90815294509192917f405787fa12a823e0f2b7631cc41b3ba8828b3321ca811111fa75cd3aa3bb5ace5b8386106104ab57505050910190506104538261045f5f610443565b805485870152948201948101610490565b60ff1916845250505090151560051b0190506104538261045f5f610443565b634e487b7160e01b5f52602260045260245ffd5b93607f1693610421565b5f9103126101a957565b346101a9575f3660031901126101a9576020600454604051908152f35b346101a95760203660031901126101a95760043561053c6112d5565b69d3c21bcecceda100000081116105865760045460408051918252602082018390527fd4c5e06b1ae097ba02372652a7adaa6e4a8e00be527497a3ad0ebc3f761ef3fb91a1600455005b60405163127f08c960e11b8152600490fd5b346101a95760203660031901126101a95760206101f06004356105ba81610198565b5f80525f835260405f209060018060a01b03165f5260205260405f2090565b346101a9575f3660031901126101a9576005546040516001600160a01b039091168152602090f35b634e487b7160e01b5f52604160045260245ffd5b67ffffffffffffffff811161062957604052565b610601565b6020810190811067ffffffffffffffff82111761062957604052565b90601f8019910116810190811067ffffffffffffffff82111761062957604052565b67ffffffffffffffff81116106295760051b60200190565b9080601f830112156101a957602090823561069e8161066c565b936106ac604051958661064a565b81855260208086019260051b8201019283116101a957602001905b8282106106d5575050505090565b813581529083019083016106c7565b67ffffffffffffffff811161062957601f01601f191660200190565b81601f820112156101a957803590610717826106e4565b92610725604051948561064a565b828452602083830101116101a957815f926020809301838601378301015290565b346101a95760a03660031901126101a9576004803561076481610198565b60243561077081610198565b67ffffffffffffffff906044358281116101a9576107919036908601610684565b906064358381116101a9576107a99036908701610684565b926084359081116101a9576107c19036908701610700565b936001600160a01b0380821690338214158061084e575b6108215783161561080a57156107f4576107f29550611460565b005b604051626a0d4560e21b81525f81880152602490fd5b604051632bfa23e760e11b81525f81890152602490fd5b6040805163711bec9160e11b815233818b019081526001600160a01b038616602082015290918291010390fd5b505f82815260016020908152604080832033845290915290205460ff16156107d8565b346101a95760403660031901126101a95760043561088e81610198565b6024359061089a6112d5565b811561038e576108ba9082604051916108b28361062e565b5f835261117d565b6006549081018091116108cc57600655005b611028565b9081518082526020808093019301915f5b8281106108f0575050505090565b8351855293810193928101926001016108e2565b9060206103ef9281815201906108d1565b346101a95760403660031901126101a95760043567ffffffffffffffff8082116101a957366023830112156101a95781600401356109528161066c565b92610960604051948561064a565b8184526020916024602086019160051b830101913683116101a957602401905b8282106109b957856024358681116101a95761045f916109a76109ad923690600401610684565b906110a6565b60405191829182610904565b83809183356109c781610198565b815201910190610980565b9181601f840112156101a95782359167ffffffffffffffff83116101a9576020808501948460051b0101116101a957565b346101a95760403660031901126101a95767ffffffffffffffff6004358181116101a957610a359036906004016109d2565b916024359081116101a957610a4e9036906004016109d2565b92610a576112d5565b838103610ad2575f5b818110610a6957005b80610a776001928786611163565b35610a83575b01610a60565b610ab3610a99610a94838689611163565b611173565b610aa4838988611163565b35610aad61105a565b9161117d565b610acd61034d610ac4838988611163565b3560065461106c565b610a7d565b60405162461bcd60e51b8152602060048201526015602482015274082e4e4c2f240d8cadccee8d040dad2e6dac2e8c6d605b1b6044820152606490fd5b346101a95760403660031901126101a957600435610b2c81610198565b60055460243591906001600160a01b039081163303610bb857811615610ba15781610b94610b9c92610b806107f29560405191600183525f6020840152604083019160018352606084015260808301604052565b915f604051610b8e8161062e565b52611301565b60075461106c565b600755565b604051626a0d4560e21b81525f6004820152602490fd5b604051633703c1a360e11b8152600490fd5b346101a9575f3660031901126101a957610be26112d5565b600380546001600160a01b031981169091555f906001600160a01b03167f8be0079c531659141344cd1fd0a4f28419497f9722a3daafe3b4186f6b6457e08280a3005b346101a9575f3660031901126101a9576003546040516001600160a01b039091168152602090f35b346101a95760403660031901126101a957600435610c6a81610198565b6024358015158082036101a9576001600160a01b038316928315610cf557335f9081526001602090815260408083206001600160a01b039094168352929052209060ff801983541691161790557f17307eab39ab6107e8899845ad3d59bd9653f200f220920489ca2b5937696c3160405180610cf0339482919091602081019215159052565b0390a3005b60405162ced3e160e81b81525f6004820152602490fd5b346101a9575f3660031901126101a9576020600654604051908152f35b346101a95760203660031901126101a957600435610d4681610198565b610d4e6112d5565b6001600160a01b03908116908115610d9b57816005549182167f21386c0aa3274d82d6df5327ce7371e8ca5b461573ea562fc450f9dd379806ca5f80a36001600160a01b03191617600555005b60405163d92e233d60e01b8152600490fd5b346101a9575f3660031901126101a9576020600754604051908152f35b346101a95760403660031901126101a957602060ff610e22600435610dee81610198565b60243590610dfb82610198565b60018060a01b03165f526001845260405f209060018060a01b03165f5260205260405f2090565b54166040519015158152f35b346101a95760a03660031901126101a957600435610e4b81610198565b602435610e5781610198565b60843567ffffffffffffffff81116101a957610e77903690600401610700565b906001600160a01b03838116903382141580610f17575b610ef057821615610ed85715610ba1576107f292610ed06064356044359160405192600184526020840152604083019160018352606084015260808301604052565b929091611460565b604051632bfa23e760e11b81525f6004820152602490fd5b60405163711bec9160e11b81523360048201526001600160a01b0386166024820152604490fd5b505f82815260016020908152604080832033845290915290205460ff1615610e8e565b346101a95760203660031901126101a957600435610f5781610198565b610f5f6112d5565b6001600160a01b03908116908115610fb257600354826bffffffffffffffffffffffff60a01b821617600355167f8be0079c531659141344cd1fd0a4f28419497f9722a3daafe3b4186f6b6457e05f80a3005b604051631e4fbdf760e01b81525f6004820152602490fd5b346101a9575f3660031901126101a95760206040515f8152f35b346101a9575f3660031901126101a9576040517f00000000000000000000000000000000000000000000000000000000000000006001600160a01b03168152602090f35b634e487b7160e01b5f52601160045260245ffd5b818102929181159184041417156108cc57565b6040513d5f823e3d90fd5b604051906110678261062e565b5f8252565b919082018092116108cc57565b634e487b7160e01b5f52603260045260245ffd5b80518210156110a15760209160051b010190565b611079565b919091805183518082036111415750508051906110db6110c58361066c565b926110d3604051948561064a565b80845261066c565b60209190601f190136848401375f5b815181101561113957600581901b8281018401519087018401515f908152602081815260408083206001600160a01b039094168352929052205460019190611132828761108d565b52016110ea565b509193505050565b604051635b05999160e01b815260048101919091526024810191909152604490fd5b91908110156110a15760051b0190565b356103ef81610198565b6001600160a01b03811692918315610ed8576111b89060405191600183525f6020840152604083019160018352606084015260808301604052565b9281518451908181036111415750505f5b8251811015611223578060019160051b61121b611213876111fe602080868b010151958c010151945f525f60205260405f2090565b9060018060a01b03165f5260205260405f2090565b91825461106c565b9055016111c9565b5092919360018251145f1461129a576020828101518482015160408051928352928201525f9133917fc3d58168c5ae7397731d063d5bbf3d657854427343f4c083240f7aacaa2d0f629190a45b8051600103611290579060208061128e959301519101519133611928565b565b61128e9333611733565b5f6040517f4a39dc06d4c0dbc64b70af90fd698a233a518aa5d07e595d983b8c0526c8f7fb3391806112cd88888361164e565b0390a4611270565b6003546001600160a01b031633036112e957565b60405163118cdaa760e01b8152336004820152602490fd5b92919080518251908181036111415750505f5b81518110156113c157600581901b82810160209081015191850101516001600160a01b038716611349575b5050600101611314565b61135e876111fe845f525f60205260405f2090565b5481811061138a57876111fe60019594936113829303935f525f60205260405f2090565b55905f61133f565b6040516303dee4c560e01b81526001600160a01b038916600482015260248101919091526044810182905260648101839052608490fd5b50905f92939160018151148414611421576020908101519181015160408051938452918301526001600160a01b039092169133917fc3d58168c5ae7397731d063d5bbf3d657854427343f4c083240f7aacaa2d0f6291819081015b0390a4565b6040516001600160a01b039093169233927f4a39dc06d4c0dbc64b70af90fd698a233a518aa5d07e595d983b8c0526c8f7fb92829161141c918361164e565b9491909181518451908181036111415750505f5b825181101561155957600581901b83810160209081015191870101516001600160a01b03929186908a85166114d9575b60019482166114b7575b50505001611474565b6114cf916111fe611213925f525f60205260405f2090565b90555f85816114ae565b91929390506114f38a6111fe845f525f60205260405f2090565b54838110611522579187918460019695940361151a8d6111fe855f525f60205260405f2090565b5594506114a4565b6040516303dee4c560e01b81526001600160a01b038c16600482015260248101919091526044810184905260648101839052608490fd5b5094919392909360018551145f14611603576020858101518382015160408051928352928201526001600160a01b03838116929086169133917fc3d58168c5ae7397731d063d5bbf3d657854427343f4c083240f7aacaa2d0f6291a45b6001600160a01b0381166115cc575b5050505050565b84516001036115f2576020806115e8960151920151923361195d565b5f808080806115c5565b6115fe9491923361182c565b6115e8565b6040516001600160a01b03828116919085169033907f4a39dc06d4c0dbc64b70af90fd698a233a518aa5d07e595d983b8c0526c8f7fb9080611646888c8361164e565b0390a46115b6565b90916116656103ef936040845260408401906108d1565b9160208184039101526108d1565b908160209103126101a957516103ef816101f9565b926116b66103ef95936116c49360018060a01b031686525f602087015260a0604087015260a08601906108d1565b9084820360608601526108d1565b9160808184039101526103a0565b93906103ef95936116b6916116c49460018060a01b03809216885216602087015260a0604087015260a08601906108d1565b3d1561172e573d90611715826106e4565b91611723604051938461064a565b82523d5f602084013e565b606090565b9293919093843b611745575050505050565b602091611768604051948593849363bc197c8160e01b9889865260048601611688565b03815f6001600160a01b0388165af15f91816117fb575b506117be578261178d611704565b80519190826117b757604051632bfa23e760e11b81526001600160a01b0383166004820152602490fd5b6020915001fd5b6001600160e01b031916036117d857505f808080806115c5565b604051632bfa23e760e11b81526001600160a01b03919091166004820152602490fd5b61181e91925060203d602011611825575b611816818361064a565b810190611673565b905f61177f565b503d61180c565b939290949194853b611841575b505050505050565b611864602093604051958694859463bc197c8160e01b998a8752600487016116d2565b03815f6001600160a01b0388165af15f91816118a4575b50611889578261178d611704565b6001600160e01b031916036117d857505f8080808080611839565b6118be91925060203d60201161182557611816818361064a565b905f61187b565b909260a0926103ef9594600180861b031683525f60208401526040830152606082015281608082015201906103a0565b91926103ef95949160a094600180871b0380921685521660208401526040830152606082015281608082015201906103a0565b9293919093843b61193a575050505050565b602091611768604051948593849363f23a6e6160e01b98898652600486016118c5565b939290949194853b61197157505050505050565b611864602093604051958694859463f23a6e6160e01b998a8752600487016118f556fea26469706673582212205c59e65ff0f48d71b6bae8646c5909a22fdf41b069be8703e82679c0bde019d364736f6c63430008180033","linkReferences":{}},"methodIdentifiers":{"STANDARD_TICKET()":"f66fd234","balanceOf(address,uint256)":"00fdd58e","balanceOfBatch(address[],uint256[])":"4e1273f4","batchMint(address[],uint256[])":"68573107","burnTicket(address,uint256)":"709aa1a6","burner()":"27810b6e","gold()":"fbec6f21","isApprovedForAll(address,address)":"e985e9c5","mint(address,uint256)":"40c10f19","owner()":"8da5cb5b","purchaseWithGold(uint256)":"0c57dc56","renounceOwnership()":"715018a6","safeBatchTransferFrom(address,address,uint256[],uint256[],bytes)":"2eb2c2d6","safeTransferFrom(address,address,uint256,uint256,bytes)":"f242432a","setApprovalForAll(address,bool)":"a22cb465","setBurner(address)":"a996d6ce","setTicketPrice(uint256)":"15981650","supportsInterface(bytes4)":"01ffc9a7","ticketBalance(address)":"22fe0813","ticketPrice()":"1209b1f6","totalBurned()":"d89135cd","totalMinted()":"a2309ff8","transferOwnership(address)":"f2fde38b","uri(uint256)":"0e89341c"},"id":2}