{"abi":[{"type":"constructor","inputs":[{"name":"_gold","type":"address","internalType":"address"},{"name":"_dungeonNFT","type":"address","internalType":"address"},{"name":"_tickets","type":"address","internalType":"address"}],"stateMutability":"nonpayable"},{"type":"receive","stateMutability":"payable"},{"type":"function","name":"BASE_GOLD_RATE","inputs":[],"outputs":[{"name":"","type":"uint256","internalType":"uint256"}],"stateMutability":"view"},{"type":"function","name":"DM_ACCEPT_TIMEOUT","inputs":[],"outputs":[{"name":"","type":"uint256","internalType":"uint256"}],"stateMutability":"view"},{"type":"function","name":"DM_FEE_PERCENT","inputs":[],"outputs":[{"name":"","type":"uint256","internalType":"uint256"}],"stateMutability":"view"},{"type":"function","name":"ENTRY_BOND","inputs":[],"outputs":[{"name":"","type":"uint256","internalType":"uint256"}],"stateMutability":"view"},{"type":"function","name":"MAX_ACTION_LENGTH","inputs":[],"outputs":[{"name":"","type":"uint256","internalType":"uint256"}],"stateMutability":"view"},{"type":"function","name":"MAX_GOLD_PER_ACTION","inputs":[],"outputs":[{"name":"","type":"uint256","internalType":"uint256"}],"stateMutability":"view"},{"type":"function","name":"MAX_GRACE_PERIOD","inputs":[],"outputs":[{"name":"","type":"uint256","internalType":"uint256"}],"stateMutability":"view"},{"type":"function","name":"MAX_NARRATIVE_LENGTH","inputs":[],"outputs":[{"name":"","type":"uint256","internalType":"uint256"}],"stateMutability":"view"},{"type":"function","name":"MAX_SKILL_LENGTH","inputs":[],"outputs":[{"name":"","type":"uint256","internalType":"uint256"}],"stateMutability":"view"},{"type":"function","name":"MAX_XP_PER_ACTION","inputs":[],"outputs":[{"name":"","type":"uint256","internalType":"uint256"}],"stateMutability":"view"},{"type":"function","name":"ROYALTY_BPS","inputs":[],"outputs":[{"name":"","type":"uint256","internalType":"uint256"}],"stateMutability":"view"},{"type":"function","name":"SESSION_TIMEOUT","inputs":[],"outputs":[{"name":"","type":"uint256","internalType":"uint256"}],"stateMutability":"view"},{"type":"function","name":"TURN_TIMEOUT","inputs":[],"outputs":[{"name":"","type":"uint256","internalType":"uint256"}],"stateMutability":"view"},{"type":"function","name":"acceptDM","inputs":[{"name":"sessionId","type":"uint256","internalType":"uint256"},{"name":"epoch","type":"uint64","internalType":"uint64"}],"outputs":[],"stateMutability":"nonpayable"},{"type":"function","name":"actionSubmitted","inputs":[{"name":"","type":"uint256","internalType":"uint256"},{"name":"","type":"uint256","internalType":"uint256"}],"outputs":[{"name":"","type":"bool","internalType":"bool"}],"stateMutability":"view"},{"type":"function","name":"activeSessionCount","inputs":[],"outputs":[{"name":"","type":"uint256","internalType":"uint256"}],"stateMutability":"view"},{"type":"function","name":"addSkill","inputs":[{"name":"name","type":"string","internalType":"string"},{"name":"content","type":"string","internalType":"string"}],"outputs":[{"name":"skillId","type":"uint256","internalType":"uint256"}],"stateMutability":"nonpayable"},{"type":"function","name":"allAgents","inputs":[{"name":"","type":"uint256","internalType":"uint256"}],"outputs":[{"name":"","type":"address","internalType":"address"}],"stateMutability":"view"},{"type":"function","name":"awardFromLootPool","inputs":[{"name":"sessionId","type":"uint256","internalType":"uint256"},{"name":"player","type":"address","internalType":"address"},{"name":"amount","type":"uint256","internalType":"uint256"}],"outputs":[],"stateMutability":"nonpayable"},{"type":"function","name":"batchRegisterAgents","inputs":[{"name":"agents","type":"address[]","internalType":"address[]"}],"outputs":[],"stateMutability":"nonpayable"},{"type":"function","name":"bondOf","inputs":[{"name":"","type":"uint256","internalType":"uint256"},{"name":"","type":"address","internalType":"address"}],"outputs":[{"name":"","type":"uint256","internalType":"uint256"}],"stateMutability":"view"},{"type":"function","name":"claimRoyalties","inputs":[],"outputs":[],"stateMutability":"nonpayable"},{"type":"function","name":"currentEpoch","inputs":[],"outputs":[{"name":"","type":"uint256","internalType":"uint256"}],"stateMutability":"view"},{"type":"function","name":"dungeonCount","inputs":[],"outputs":[{"name":"","type":"uint256","internalType":"uint256"}],"stateMutability":"view"},{"type":"function","name":"dungeonNFT","inputs":[],"outputs":[{"name":"","type":"address","internalType":"contract DungeonNFT"}],"stateMutability":"view"},{"type":"function","name":"dungeons","inputs":[{"name":"","type":"uint256","internalType":"uint256"}],"outputs":[{"name":"nftId","type":"uint256","internalType":"uint256"},{"name":"owner","type":"address","internalType":"address"},{"name":"active","type":"bool","internalType":"bool"},{"name":"lootPool","type":"uint256","internalType":"uint256"},{"name":"currentSessionId","type":"uint256","internalType":"uint256"}],"stateMutability":"view"},{"type":"function","name":"endEpoch","inputs":[],"outputs":[],"stateMutability":"nonpayable"},{"type":"function","name":"enterDungeon","inputs":[{"name":"dungeonId","type":"uint256","internalType":"uint256"}],"outputs":[],"stateMutability":"payable"},{"type":"function","name":"epochDmFee","inputs":[{"name":"","type":"uint256","internalType":"uint256"}],"outputs":[{"name":"","type":"uint256","internalType":"uint256"}],"stateMutability":"view"},{"type":"function","name":"epochSkillHash","inputs":[{"name":"","type":"uint256","internalType":"uint256"}],"outputs":[{"name":"","type":"bytes32","internalType":"bytes32"}],"stateMutability":"view"},{"type":"function","name":"epochState","inputs":[],"outputs":[{"name":"","type":"uint8","internalType":"enum DungeonManager.EpochState"}],"stateMutability":"view"},{"type":"function","name":"flee","inputs":[{"name":"sessionId","type":"uint256","internalType":"uint256"}],"outputs":[],"stateMutability":"nonpayable"},{"type":"function","name":"getAgentStats","inputs":[{"name":"agent","type":"address","internalType":"address"}],"outputs":[{"name":"agentXP","type":"uint256","internalType":"uint256"},{"name":"agentGold","type":"uint256","internalType":"uint256"},{"name":"isRegistered","type":"bool","internalType":"bool"}],"stateMutability":"view"},{"type":"function","name":"getSessionAllPlayers","inputs":[{"name":"sessionId","type":"uint256","internalType":"uint256"}],"outputs":[{"name":"","type":"address[]","internalType":"address[]"}],"stateMutability":"view"},{"type":"function","name":"getSessionDM","inputs":[{"name":"sessionId","type":"uint256","internalType":"uint256"}],"outputs":[{"name":"","type":"address","internalType":"address"}],"stateMutability":"view"},{"type":"function","name":"getSessionDmEpoch","inputs":[{"name":"sessionId","type":"uint256","internalType":"uint256"}],"outputs":[{"name":"","type":"uint64","internalType":"uint64"}],"stateMutability":"view"},{"type":"function","name":"getSessionParty","inputs":[{"name":"sessionId","type":"uint256","internalType":"uint256"}],"outputs":[{"name":"","type":"address[]","internalType":"address[]"}],"stateMutability":"view"},{"type":"function","name":"getSessionState","inputs":[{"name":"sessionId","type":"uint256","internalType":"uint256"}],"outputs":[{"name":"","type":"uint8","internalType":"enum DungeonManager.SessionState"}],"stateMutability":"view"},{"type":"function","name":"getSessionTurn","inputs":[{"name":"sessionId","type":"uint256","internalType":"uint256"}],"outputs":[{"name":"","type":"uint256","internalType":"uint256"}],"stateMutability":"view"},{"type":"function","name":"getSkill","inputs":[{"name":"skillId","type":"uint256","internalType":"uint256"}],"outputs":[{"name":"","type":"tuple","internalType":"struct DungeonManager.Skill","components":[{"name":"name","type":"string","internalType":"string"},{"name":"content","type":"string","internalType":"string"},{"name":"updatedAt","type":"uint256","internalType":"uint256"},{"name":"lockedUntil","type":"uint256","internalType":"uint256"}]}],"stateMutability":"view"},{"type":"function","name":"getSkillCount","inputs":[],"outputs":[{"name":"","type":"uint256","internalType":"uint256"}],"stateMutability":"view"},{"type":"function","name":"getTopByGold","inputs":[{"name":"count","type":"uint256","internalType":"uint256"}],"outputs":[{"name":"","type":"address[]","internalType":"address[]"},{"name":"","type":"uint256[]","internalType":"uint256[]"}],"stateMutability":"view"},{"type":"function","name":"getTopByXP","inputs":[{"name":"count","type":"uint256","internalType":"uint256"}],"outputs":[{"name":"","type":"address[]","internalType":"address[]"},{"name":"","type":"uint256[]","internalType":"uint256[]"}],"stateMutability":"view"},{"type":"function","name":"gold","inputs":[],"outputs":[{"name":"","type":"address","internalType":"contract Gold"}],"stateMutability":"view"},{"type":"function","name":"graceStartTime","inputs":[],"outputs":[{"name":"","type":"uint256","internalType":"uint256"}],"stateMutability":"view"},{"type":"function","name":"isConfigured","inputs":[],"outputs":[{"name":"","type":"bool","internalType":"bool"}],"stateMutability":"view"},{"type":"function","name":"maxGoldPerSession","inputs":[],"outputs":[{"name":"","type":"uint256","internalType":"uint256"}],"stateMutability":"view"},{"type":"function","name":"owner","inputs":[],"outputs":[{"name":"","type":"address","internalType":"address"}],"stateMutability":"view"},{"type":"function","name":"pause","inputs":[],"outputs":[],"stateMutability":"nonpayable"},{"type":"function","name":"paused","inputs":[],"outputs":[{"name":"","type":"bool","internalType":"bool"}],"stateMutability":"view"},{"type":"function","name":"pendingRoyalties","inputs":[{"name":"","type":"address","internalType":"address"}],"outputs":[{"name":"","type":"uint256","internalType":"uint256"}],"stateMutability":"view"},{"type":"function","name":"registerAgent","inputs":[{"name":"agent","type":"address","internalType":"address"}],"outputs":[],"stateMutability":"nonpayable"},{"type":"function","name":"registeredAgents","inputs":[{"name":"","type":"address","internalType":"address"}],"outputs":[{"name":"","type":"bool","internalType":"bool"}],"stateMutability":"view"},{"type":"function","name":"renounceOwnership","inputs":[],"outputs":[],"stateMutability":"nonpayable"},{"type":"function","name":"rerollDM","inputs":[{"name":"sessionId","type":"uint256","internalType":"uint256"}],"outputs":[],"stateMutability":"nonpayable"},{"type":"function","name":"runner","inputs":[],"outputs":[{"name":"","type":"address","internalType":"address"}],"stateMutability":"view"},{"type":"function","name":"sessionCount","inputs":[],"outputs":[{"name":"","type":"uint256","internalType":"uint256"}],"stateMutability":"view"},{"type":"function","name":"sessionPlayerAlive","inputs":[{"name":"","type":"uint256","internalType":"uint256"},{"name":"","type":"address","internalType":"address"}],"outputs":[{"name":"","type":"bool","internalType":"bool"}],"stateMutability":"view"},{"type":"function","name":"sessionPlayerGold","inputs":[{"name":"","type":"uint256","internalType":"uint256"},{"name":"","type":"address","internalType":"address"}],"outputs":[{"name":"","type":"uint256","internalType":"uint256"}],"stateMutability":"view"},{"type":"function","name":"sessions","inputs":[{"name":"","type":"uint256","internalType":"uint256"}],"outputs":[{"name":"dungeonId","type":"uint256","internalType":"uint256"},{"name":"dm","type":"address","internalType":"address"},{"name":"state","type":"uint8","internalType":"enum DungeonManager.SessionState"},{"name":"turnNumber","type":"uint256","internalType":"uint256"},{"name":"currentActor","type":"address","internalType":"address"},{"name":"turnDeadline","type":"uint256","internalType":"uint256"},{"name":"goldPool","type":"uint256","internalType":"uint256"},{"name":"maxGold","type":"uint256","internalType":"uint256"},{"name":"actedThisTurn","type":"uint256","internalType":"uint256"},{"name":"dmAcceptDeadline","type":"uint256","internalType":"uint256"},{"name":"lastActivityTs","type":"uint256","internalType":"uint256"},{"name":"dmEpoch","type":"uint64","internalType":"uint64"},{"name":"epochId","type":"uint256","internalType":"uint256"}],"stateMutability":"view"},{"type":"function","name":"setMaxGoldPerSession","inputs":[{"name":"_max","type":"uint256","internalType":"uint256"}],"outputs":[],"stateMutability":"nonpayable"},{"type":"function","name":"setRunner","inputs":[{"name":"_runner","type":"address","internalType":"address"}],"outputs":[],"stateMutability":"nonpayable"},{"type":"function","name":"skills","inputs":[{"name":"","type":"uint256","internalType":"uint256"}],"outputs":[{"name":"name","type":"string","internalType":"string"},{"name":"content","type":"string","internalType":"string"},{"name":"updatedAt","type":"uint256","internalType":"uint256"},{"name":"lockedUntil","type":"uint256","internalType":"uint256"}],"stateMutability":"view"},{"type":"function","name":"stakeDungeon","inputs":[{"name":"nftId","type":"uint256","internalType":"uint256"}],"outputs":[{"name":"dungeonId","type":"uint256","internalType":"uint256"}],"stateMutability":"nonpayable"},{"type":"function","name":"startEpoch","inputs":[],"outputs":[],"stateMutability":"nonpayable"},{"type":"function","name":"submitAction","inputs":[{"name":"sessionId","type":"uint256","internalType":"uint256"},{"name":"turnIndex","type":"uint256","internalType":"uint256"},{"name":"action","type":"string","internalType":"string"},{"name":"player","type":"address","internalType":"address"}],"outputs":[],"stateMutability":"nonpayable"},{"type":"function","name":"submitDMResponse","inputs":[{"name":"sessionId","type":"uint256","internalType":"uint256"},{"name":"turnIndex","type":"uint256","internalType":"uint256"},{"name":"narrative","type":"string","internalType":"string"},{"name":"actions","type":"tuple[]","internalType":"struct DungeonManager.DMAction[]","components":[{"name":"actionType","type":"uint8","internalType":"enum DungeonManager.DMActionType"},{"name":"target","type":"address","internalType":"address"},{"name":"value","type":"uint256","internalType":"uint256"},{"name":"narrative","type":"string","internalType":"string"}]},{"name":"dm","type":"address","internalType":"address"}],"outputs":[],"stateMutability":"nonpayable"},{"type":"function","name":"tickets","inputs":[],"outputs":[{"name":"","type":"address","internalType":"contract DungeonTickets"}],"stateMutability":"view"},{"type":"function","name":"timeoutAdvance","inputs":[{"name":"sessionId","type":"uint256","internalType":"uint256"}],"outputs":[],"stateMutability":"nonpayable"},{"type":"function","name":"timeoutSession","inputs":[{"name":"sessionId","type":"uint256","internalType":"uint256"}],"outputs":[],"stateMutability":"nonpayable"},{"type":"function","name":"totalGoldEarned","inputs":[{"name":"","type":"address","internalType":"address"}],"outputs":[{"name":"","type":"uint256","internalType":"uint256"}],"stateMutability":"view"},{"type":"function","name":"transferOwnership","inputs":[{"name":"newOwner","type":"address","internalType":"address"}],"outputs":[],"stateMutability":"nonpayable"},{"type":"function","name":"unpause","inputs":[],"outputs":[],"stateMutability":"nonpayable"},{"type":"function","name":"unregisterAgent","inputs":[{"name":"agent","type":"address","internalType":"address"}],"outputs":[],"stateMutability":"nonpayable"},{"type":"function","name":"unstakeDungeon","inputs":[{"name":"dungeonId","type":"uint256","internalType":"uint256"}],"outputs":[],"stateMutability":"nonpayable"},{"type":"function","name":"updateSkill","inputs":[{"name":"skillId","type":"uint256","internalType":"uint256"},{"name":"name","type":"string","internalType":"string"},{"name":"content","type":"string","internalType":"string"}],"outputs":[],"stateMutability":"nonpayable"},{"type":"function","name":"withdrawBond","inputs":[],"outputs":[],"stateMutability":"nonpayable"},{"type":"function","name":"withdrawableBonds","inputs":[{"name":"","type":"address","internalType":"address"}],"outputs":[{"name":"","type":"uint256","internalType":"uint256"}],"stateMutability":"view"},{"type":"function","name":"xp","inputs":[{"name":"","type":"address","internalType":"address"}],"outputs":[{"name":"","type":"uint256","internalType":"uint256"}],"stateMutability":"view"},{"type":"event","name":"ActionSubmitted","inputs":[{"name":"sessionId","type":"uint256","indexed":true,"internalType":"uint256"},{"name":"agent","type":"address","indexed":true,"internalType":"address"},{"name":"turn","type":"uint256","indexed":false,"internalType":"uint256"},{"name":"action","type":"string","indexed":false,"internalType":"string"}],"anonymous":false},{"type":"event","name":"AgentRegistered","inputs":[{"name":"agent","type":"address","indexed":true,"internalType":"address"}],"anonymous":false},{"type":"event","name":"AgentUnregistered","inputs":[{"name":"agent","type":"address","indexed":true,"internalType":"address"}],"anonymous":false},{"type":"event","name":"BondForfeited","inputs":[{"name":"sessionId","type":"uint256","indexed":true,"internalType":"uint256"},{"name":"player","type":"address","indexed":true,"internalType":"address"},{"name":"amount","type":"uint256","indexed":false,"internalType":"uint256"}],"anonymous":false},{"type":"event","name":"BondWithdrawn","inputs":[{"name":"player","type":"address","indexed":true,"internalType":"address"},{"name":"amount","type":"uint256","indexed":false,"internalType":"uint256"}],"anonymous":false},{"type":"event","name":"DMResponse","inputs":[{"name":"sessionId","type":"uint256","indexed":true,"internalType":"uint256"},{"name":"turn","type":"uint256","indexed":false,"internalType":"uint256"},{"name":"narrative","type":"string","indexed":false,"internalType":"string"}],"anonymous":false},{"type":"event","name":"DmAccepted","inputs":[{"name":"sessionId","type":"uint256","indexed":true,"internalType":"uint256"},{"name":"dm","type":"address","indexed":true,"internalType":"address"}],"anonymous":false},{"type":"event","name":"DmRerolled","inputs":[{"name":"sessionId","type":"uint256","indexed":true,"internalType":"uint256"}],"anonymous":false},{"type":"event","name":"DmSelected","inputs":[{"name":"sessionId","type":"uint256","indexed":true,"internalType":"uint256"},{"name":"dm","type":"address","indexed":true,"internalType":"address"},{"name":"epoch","type":"uint64","indexed":false,"internalType":"uint64"}],"anonymous":false},{"type":"event","name":"DungeonActivated","inputs":[{"name":"dungeonId","type":"uint256","indexed":true,"internalType":"uint256"},{"name":"nftId","type":"uint256","indexed":false,"internalType":"uint256"},{"name":"owner","type":"address","indexed":false,"internalType":"address"}],"anonymous":false},{"type":"event","name":"DungeonCompleted","inputs":[{"name":"sessionId","type":"uint256","indexed":true,"internalType":"uint256"},{"name":"totalGoldMinted","type":"uint256","indexed":false,"internalType":"uint256"},{"name":"royaltyPaid","type":"uint256","indexed":false,"internalType":"uint256"},{"name":"recap","type":"string","indexed":false,"internalType":"string"}],"anonymous":false},{"type":"event","name":"DungeonDeactivated","inputs":[{"name":"dungeonId","type":"uint256","indexed":true,"internalType":"uint256"}],"anonymous":false},{"type":"event","name":"DungeonFailed","inputs":[{"name":"sessionId","type":"uint256","indexed":true,"internalType":"uint256"},{"name":"goldToLootPool","type":"uint256","indexed":false,"internalType":"uint256"},{"name":"recap","type":"string","indexed":false,"internalType":"string"}],"anonymous":false},{"type":"event","name":"EpochEnded","inputs":[{"name":"epoch","type":"uint256","indexed":true,"internalType":"uint256"}],"anonymous":false},{"type":"event","name":"EpochStarted","inputs":[{"name":"epoch","type":"uint256","indexed":true,"internalType":"uint256"},{"name":"skillHash","type":"bytes32","indexed":false,"internalType":"bytes32"},{"name":"dmFee","type":"uint256","indexed":false,"internalType":"uint256"}],"anonymous":false},{"type":"event","name":"GameStarted","inputs":[{"name":"sessionId","type":"uint256","indexed":true,"internalType":"uint256"},{"name":"dungeonId","type":"uint256","indexed":true,"internalType":"uint256"},{"name":"dm","type":"address","indexed":false,"internalType":"address"},{"name":"party","type":"address[]","indexed":false,"internalType":"address[]"}],"anonymous":false},{"type":"event","name":"GoldAwarded","inputs":[{"name":"sessionId","type":"uint256","indexed":true,"internalType":"uint256"},{"name":"player","type":"address","indexed":true,"internalType":"address"},{"name":"amount","type":"uint256","indexed":false,"internalType":"uint256"}],"anonymous":false},{"type":"event","name":"LootPoolUpdated","inputs":[{"name":"dungeonId","type":"uint256","indexed":true,"internalType":"uint256"},{"name":"newTotal","type":"uint256","indexed":false,"internalType":"uint256"}],"anonymous":false},{"type":"event","name":"MaxGoldPerSessionUpdated","inputs":[{"name":"newMax","type":"uint256","indexed":false,"internalType":"uint256"}],"anonymous":false},{"type":"event","name":"OwnershipTransferred","inputs":[{"name":"previousOwner","type":"address","indexed":true,"internalType":"address"},{"name":"newOwner","type":"address","indexed":true,"internalType":"address"}],"anonymous":false},{"type":"event","name":"Paused","inputs":[{"name":"account","type":"address","indexed":false,"internalType":"address"}],"anonymous":false},{"type":"event","name":"PlayerDied","inputs":[{"name":"sessionId","type":"uint256","indexed":true,"internalType":"uint256"},{"name":"agent","type":"address","indexed":true,"internalType":"address"},{"name":"goldToLootPool","type":"uint256","indexed":false,"internalType":"uint256"}],"anonymous":false},{"type":"event","name":"PlayerEntered","inputs":[{"name":"sessionId","type":"uint256","indexed":true,"internalType":"uint256"},{"name":"agent","type":"address","indexed":true,"internalType":"address"}],"anonymous":false},{"type":"event","name":"PlayerFled","inputs":[{"name":"sessionId","type":"uint256","indexed":true,"internalType":"uint256"},{"name":"agent","type":"address","indexed":true,"internalType":"address"},{"name":"goldKept","type":"uint256","indexed":false,"internalType":"uint256"},{"name":"royaltyPaid","type":"uint256","indexed":false,"internalType":"uint256"}],"anonymous":false},{"type":"event","name":"RoyaltyClaimed","inputs":[{"name":"owner","type":"address","indexed":true,"internalType":"address"},{"name":"amount","type":"uint256","indexed":false,"internalType":"uint256"}],"anonymous":false},{"type":"event","name":"RunnerUpdated","inputs":[{"name":"runner","type":"address","indexed":true,"internalType":"address"}],"anonymous":false},{"type":"event","name":"SessionCancelled","inputs":[{"name":"sessionId","type":"uint256","indexed":true,"internalType":"uint256"}],"anonymous":false},{"type":"event","name":"SessionTimedOut","inputs":[{"name":"sessionId","type":"uint256","indexed":true,"internalType":"uint256"}],"anonymous":false},{"type":"event","name":"SkillAdded","inputs":[{"name":"skillId","type":"uint256","indexed":true,"internalType":"uint256"},{"name":"name","type":"string","indexed":false,"internalType":"string"}],"anonymous":false},{"type":"event","name":"SkillRemoved","inputs":[{"name":"skillId","type":"uint256","indexed":true,"internalType":"uint256"}],"anonymous":false},{"type":"event","name":"SkillUpdated","inputs":[{"name":"skillId","type":"uint256","indexed":true,"internalType":"uint256"},{"name":"name","type":"string","indexed":false,"internalType":"string"}],"anonymous":false},{"type":"event","name":"TurnAdvanced","inputs":[{"name":"sessionId","type":"uint256","indexed":true,"internalType":"uint256"},{"name":"newTurn","type":"uint256","indexed":false,"internalType":"uint256"},{"name":"nextActor","type":"address","indexed":false,"internalType":"address"}],"anonymous":false},{"type":"event","name":"TurnTimeout","inputs":[{"name":"sessionId","type":"uint256","indexed":true,"internalType":"uint256"},{"name":"agent","type":"address","indexed":true,"internalType":"address"}],"anonymous":false},{"type":"event","name":"Unpaused","inputs":[{"name":"account","type":"address","indexed":false,"internalType":"address"}],"anonymous":false},{"type":"event","name":"XPAwarded","inputs":[{"name":"sessionId","type":"uint256","indexed":true,"internalType":"uint256"},{"name":"player","type":"address","indexed":true,"internalType":"address"},{"name":"amount","type":"uint256","indexed":false,"internalType":"uint256"}],"anonymous":false},{"type":"error","name":"ActionTooLong","inputs":[]},{"type":"error","name":"AlreadyInParty","inputs":[]},{"type":"error","name":"AlreadySubmitted","inputs":[]},{"type":"error","name":"DeadlineNotPassed","inputs":[]},{"type":"error","name":"DungeonHasActiveSession","inputs":[]},{"type":"error","name":"DungeonNotActive","inputs":[]},{"type":"error","name":"DungeonNotOwned","inputs":[]},{"type":"error","name":"EnforcedPause","inputs":[]},{"type":"error","name":"EpochNotActive","inputs":[]},{"type":"error","name":"EpochNotGrace","inputs":[]},{"type":"error","name":"ExpectedPause","inputs":[]},{"type":"error","name":"GoldCapExceeded","inputs":[]},{"type":"error","name":"GracePeriodActive","inputs":[]},{"type":"error","name":"InsufficientBond","inputs":[]},{"type":"error","name":"InsufficientTickets","inputs":[]},{"type":"error","name":"InvalidDungeonId","inputs":[]},{"type":"error","name":"InvalidSkillId","inputs":[]},{"type":"error","name":"InvalidTarget","inputs":[]},{"type":"error","name":"NarrativeTooLong","inputs":[]},{"type":"error","name":"NoActionYet","inputs":[]},{"type":"error","name":"NotConfigured","inputs":[]},{"type":"error","name":"NotDungeonOwner","inputs":[]},{"type":"error","name":"NotRegisteredAgent","inputs":[]},{"type":"error","name":"NotRunner","inputs":[]},{"type":"error","name":"NotSelectedDM","inputs":[]},{"type":"error","name":"NotSessionDM","inputs":[]},{"type":"error","name":"NotTimedOut","inputs":[]},{"type":"error","name":"NotWaitingDM","inputs":[]},{"type":"error","name":"NotYourTurn","inputs":[]},{"type":"error","name":"NothingToWithdraw","inputs":[]},{"type":"error","name":"OwnableInvalidOwner","inputs":[{"name":"owner","type":"address","internalType":"address"}]},{"type":"error","name":"OwnableUnauthorizedAccount","inputs":[{"name":"account","type":"address","internalType":"address"}]},{"type":"error","name":"PartyFull","inputs":[]},{"type":"error","name":"PlayerNotAlive","inputs":[]},{"type":"error","name":"ReentrancyGuardReentrantCall","inputs":[]},{"type":"error","name":"SessionNotActive","inputs":[]},{"type":"error","name":"SessionNotTimeoutable","inputs":[]},{"type":"error","name":"SessionNotWaiting","inputs":[]},{"type":"error","name":"SkillContentTooLong","inputs":[]},{"type":"error","name":"SkillLocked","inputs":[]},{"type":"error","name":"StaleEpoch","inputs":[]},{"type":"error","name":"TimeoutNotReached","inputs":[]},{"type":"error","name":"TransferFailed","inputs":[]},{"type":"error","name":"WrongTurn","inputs":[]},{"type":"error","name":"XPCapExceeded","inputs":[]}],"bytecode":{"object":"0x60e0346200018d57601f620053c338819003918201601f19168301916001600160401b0383118484101762000191578084926060946040528339810103126200018d576200004d81620001a5565b906200006a60406200006260208401620001a5565b9201620001a5565b331562000175575f8054336001600160a01b0319821681178355604051956001600160a01b039586949093859391908416907f8be0079c531659141344cd1fd0a4f28419497f9722a3daafe3b4186f6b6457e09080a360017f9b779b17422d0df92223018b32b4d1fa46e071723d6817e2486d003becc55f00556101f4600455166080521660a0521660c052600160ff196006541617600655426007556152089081620001bb82396080518181816103a80152818161194e01528181612cab01528181613b1201528181614eb50152615034015260a05181818161096301528181611b9d015281816125e401526136ec015260c05181818161281d0152818161365b0152613b6b0152f35b604051631e4fbdf760e01b81525f6004820152602490fd5b5f80fd5b634e487b7160e01b5f52604160045260245ffd5b51906001600160a01b03821682036200018d5756fe6080806040526004908136101561001f575b5050361561001d575f80fd5b005b5f915f3560e01c9182630490cb7414612f335750816304ec5cff14612d8357816305f53b2914612d66578163069b782014612c5457816307cd56cb14612c105781630a70e71114612b185781630b753df714612adf5781630b9663db14612a685781630ba4318114612a4a5781630bdc6fe314612a2c57816310d5583c1461284c5781631843adc7146117785781632185852114612807578163306b9bb91461277f57816331da3891146127615781633723148e1461255a5781633826b9bc146124f45781633e2b5a93146124d75781633f4ba83a1461246657816340cc5d821461233e578163442629701461230557816346619649146122e757816349c657db146122ca57816350d15fbe14612249578163570d3e25146121e157816357af363a146121a95781635c975abb146121845781635cc1cc8d146120245781635e82ff6514610e8a5781635ff66be11461200757816366297e0a14611fd257816366eb9cec14611efd5781636718623914611ee15781636946f17314611eb7578163715018a614611e5e57816373cd833614611e4057816374ee82fc14611e015781637667180814611de357816376a477a814611db9578163777c489b14611c125781637a290a3e14611bf55781637a8ca61514611bcc5781637f15deb414611b875781638110c0a514611b5a57816383c4b7a314611a895781638456cb5914611a2857816384cb37ea1461177d578163852c66f81461177857816387dc12ed14611756578163885b551e1461171e5781638d543e6b146116a65781638da5cb5b1461167f578163956e958a1461161e5781639a2fa9bb146115e5578163a17c8ea9146115a1578163a2c8b177146113af578163a2da2c9a14611391578163a4da6e1314611339578163a6725a68146112f0578163a6c86f5f146112d4578163ad116f7b14611009578163af66616214610fec578163b5695b3814610f8e578163bd880fae14610eac578163c083ad9914610e8f578163d15d486b14610e8a578163d3a057c814610e65578163d862ae8714610b24578163d9c65c271461091d578163e0bb12f7146108da578163e3fa933514610887578163e84206e2146106ea578163ed1093d7146106b1578163ed4d4ffe1461060e578163f00dd5db146105d8578163f2c6af98146104a6578163f2fde38b14610419578163fa8e85ce146103da575063fbec6f21146103935780610011565b346103d757806003193601126103d7576040517f00000000000000000000000000000000000000000000000000000000000000006001600160a01b03168152602090f35b80fd5b82346103d757806003193601126103d75760ff6006541660405191600282101561040657602083838152f35b634e487b7160e01b815260218452602490fd5b9050346104a25760203660031901126104a257610434612f67565b61043c614679565b6001600160a01b0390811691821561048a57505f54826001600160601b0360a01b8216175f55167f8be0079c531659141344cd1fd0a4f28419497f9722a3daafe3b4186f6b6457e05f80a380f35b604051631e4fbdf760e01b8152908101849052602490fd5b5080fd5b82346103d75760209160206003193601126104a25735601654928382116105d0575b6104d1826133ee565b926104db836133ee565b946104e5816133ee565b90825b85811061050257604051806104fe8a8a83613047565b0390f35b8384855b84811061055157509061052782600161052181969589613420565b526132b7565b848060a01b0391549060031b1c1661053f838b613420565b5261054a828b613420565b52016104e8565b61055b8187613420565b5115806105a1575b610570575b600101610506565b80925061057d91506132b7565b905460039190911b1c6001600160a01b031685526014865260408520549080610568565b506105ab816132b7565b905460039190911b1c6001600160a01b03168752601488526040872054831115610563565b8391506104c8565b9050346104a25760203660031901126104a257600d60406020936001600160401b0393358152600c855220015416604051908152f35b82346103d75760a03660031901126103d7576001600160401b036044358181116106ad5761063f9036908501612f93565b90916064359081116106a9576106589036908601612fc0565b608435939092906001600160a01b0380861686036106a5576003541633036106945761069195966106876142f3565b6024359035613c26565b80f35b604051638fba40ad60e01b81528790fd5b5f80fd5b8380fd5b8280fd5b9050346104a25760403660031901126104a257604060209260ff9235815260108452818120602435825284522054166040519015158152f35b9050346104a257602090816003193601126106ad57803591828452600c81526040842090828201805460ff81169461072186613299565b60019560018114159081610872575b5061086357600c850154613840810180911161085057421115610841575060ff1916600617905560025461076390613478565b6002558385526011916011825283604087209260018060a01b03938460018501541690815f5282528760405f2054610831575b505087946003809401925b6107cf575b88887f513a5d1deff7b3b8e694e3b1a204879ef3ea37e114f39bf9cba4dde8a9414d208280a280f35b825486101561082c57868096898b5282845260408b20876107f083886132ec565b905490891b1c165f52845260405f205461080c575b01956107a1565b6108278a8861081b84896132ec565b9054908a1b1c166147e6565b610805565b6107a6565b61083a916147e6565b5f87610796565b60405163828630fb60e01b8152fd5b634e487b7160e01b895260118252602489fd5b60405163608d331160e11b8152fd5b6002915061087f81613299565b14155f610730565b9050346104a25760203660031901126104a2576108c6600260406104fe946108bf94358152600c602052200160405192838092613434565b0382613174565b60405191829160208352602083019061300b565b9050346104a25760203660031901126104a25735906016548210156103d7576020610904836132b7565b905460405160039290921b1c6001600160a01b03168152f35b82346103d75760203660031901126103d75781359161093a61464a565b6109426142f3565b60ff600654166002811015610b1157600103610b02576001600160a01b03917f00000000000000000000000000000000000000000000000000000000000000008316803b156104a257604080516323b872dd60e01b81523385820190815230602082015291820187905291839183919082908490829060600103925af18015610af757908291610ae3575b5050600b54926109dc846135b3565b600b556040519260a08401908482106001600160401b03831117610ad0575094849360037f65720d7438ae7abd61e90af52cd233a1bd441a25508b44d96c6fe91ab33e17db94610ab49460209960405284845289840133815260408501600181526060860192848452604060808801958087528c8152600a8f5220965187556001870192511682549160ff60a01b9051151560a01b16916affffffffffffffffffffff60a81b1617179055516002840155519101556040519182913390839092916020906040830194835260018060a01b0316910152565b0390a260015f8051602061519383398151915255604051908152f35b604190634e487b7160e01b5f525260245ffd5b610aec90613117565b6103d75780856109cd565b6040513d84823e3d90fd5b604051633e7e88bf60e21b8152fd5b634e487b7160e01b835260218252602483fd5b82346103d75760403660031901126103d75781356001600160401b0381116104a257610b539036908401612f93565b906024356001600160401b0381116106a957610b729036908601612f93565b929093610b7d614679565b61c3508411610e5457610bae6001549560405195610b9a8761313e565b610ba5368688613bf0565b87523691613bf0565b60208501908152426040860152816060860152600160401b861015610e415760018601600155610bdd86613093565b929092610e2f5785518051906001600160401b038211610e1c57610c0b82610c0587546130df565b87613a90565b602090601f8311600114610db457610c3a9291849183610da9575b50508160011b915f199060031b1c19161790565b83555b600183019151908151916001600160401b038311610d965760209950908291610c758594610c6f8c9a999897546130df565b86613a90565b8a91601f8411600114610d0857836060947f9187da888fb0a4e77ba1969299efdd67961b0bba0aea2875b80e51aefe03f2509a9b9460039794610ccb9492610cfd5750508160011b915f199060031b1c19161790565b90555b604081015160028501550151910155610cf260405192839288845288840191613301565b0390a2604051908152f35b015190508e80610c26565b9893929190601f198316848b528c8b209a5b818110610d7c5750927f9187da888fb0a4e77ba1969299efdd67961b0bba0aea2875b80e51aefe03f250999a60609593600193836003999710610d65575b505050811b019055610cce565b01515f1983891b60f8161c191690558d8080610d58565b838301518c556001909b019a8c9a50928d01928d01610d1a565b634e487b7160e01b825260418a52602482fd5b015190508b80610c26565b9190858452602084209084935b601f1984168510610e01576001945083601f19811610610de9575b505050811b018355610c3d565b01515f1960f88460031b161c191690558a8080610ddc565b81810151835560209485019460019093019290910190610dc1565b634e487b7160e01b835260418a52602483fd5b634e487b7160e01b8152808852602490fd5b634e487b7160e01b825260418752602482fd5b60405163a4bd0c6360e01b81528690fd5b82346103d757806003193601126103d7576020610e80613af2565b6040519015158152f35b61327d565b82346103d757806003193601126103d75760206040516138408152f35b9050346104a25760203660031901126104a2578035916060604051610ed08161313e565b8181528160208201528260408201520152600154821015610f7f57610f5b610ef783613093565b5060405190610f058261313e565b610f0e81613195565b8252610f1c60018201613195565b60208301908152610f6e6003600284015493604086019485520154916060850192835260405195869560208752516080602088015260a0870190613258565b9051858203601f19016040870152613258565b915160608401525160808301520390f35b60405163773a116d60e01b8152fd5b82346103d75760203660031901126103d7576060906001600160a01b03610fb3612f67565b1681526014602052604081205490601560205260ff60408083205492601360205220541690604051928352602083015215156040820152f35b82346103d757806003193601126103d75760206040516103e88152f35b82346103d75760603660031901126103d7578135602435926001600160401b03938481116106a95761103e9036908301612f93565b90916044358681116112d0576110579036908301612f93565b611062979197614679565b600180548710156112bf5761c35082116112ae5760ff60065416600281101561129b57810361128a5761109487613093565b5093838611611203576110ab86610c0587546130df565b8886601f811160011461122157806110d7928c91611216575b508160011b915f199060031b1c19161790565b85555b81850193831161120357506110f9826110f385546130df565b85613a90565b8790601f831160011461117c5750908061114b92899a7fb57d8f12854d4ac4761da51a1a35421fcd197118fd73fe05b065328d468997bd999a926111715750508160011b915f199060031b1c19161790565b90555b60024291015561116b604051928392602084526020840191613301565b0390a280f35b013590508a80610c26565b9190601f19821699848a5260209160208b20928b905b8d82106111ec575050837fb57d8f12854d4ac4761da51a1a35421fcd197118fd73fe05b065328d468997bd9a9b9c106111d3575b505050811b01905561114e565b01355f19600384901b60f8161c191690558980806111c6565b808784968294958701358155019501920190611192565b634e487b7160e01b895260419052602488fd5b90508901358d6110c4565b50601f19871690868b528760209260208d20938d905b878d848410611271575050505010611258575b50508186811b0185556110da565b8801355f19600389901b60f8161c191690558a8061124a565b860135875590950194938401938b935090810190611237565b604051633e7e88bf60e21b81528490fd5b634e487b7160e01b895260218552602489fd5b60405163a4bd0c6360e01b81528490fd5b60405163773a116d60e01b81528490fd5b8580fd5b82346103d757806003193601126103d757602060405160328152f35b82346103d75760403660031901126103d75760409061130d612f7d565b92358152600e602052209060018060a01b03165f52602052602060ff60405f2054166040519015158152f35b905060203660031901126104a25761134f61464a565b611357613af2565b156113825761136e906113686142f3565b356135cf565b60015f805160206151938339815191525580f35b60405163d311bc3960e01b8152fd5b82346103d757806003193601126103d7576020600754604051908152f35b9050346104a257816003193601126104a2576113c9614679565b60065460ff811691600283101561158e576001809303610b0257600254151580611562575b6115535750906113ff6005546135b3565b918260055560ff1980911660065560609184918154905b8184106114885750505050602081519101209082526008602052604082205560055481526009602052600f604082205560055480825260086020527f3315523bc634a360f1de836970863d3a2dc322dec057b898deb4be6da717e43b6040808420548151908152600f6020820152a280f35b90918394816114978196613093565b5001604051916020906114b281518092848088019101613237565b8301918a928154916114c3836130df565b92868989831692835f14611534575050506001146114fd575b50505050816114f39103601f198101835282613174565b9401929190611416565b90919293508b52828b208b905b8382106115205750500101816114f35f806114dc565b80548383018601528996918501910161150a565b919695935091506114f396501683830152801515020101915f806114dc565b60405163478f84e760e01b8152fd5b506007546202a300810180911161157b574211156113ee565b634e487b7160e01b855260118252602485fd5b634e487b7160e01b845260219052602483fd5b82346103d75760403660031901126103d7576040906115be612f7d565b923581526011602052209060018060a01b03165f52602052602060405f2054604051908152f35b82346103d75760203660031901126103d7576020906040906001600160a01b0361160d612f67565b168152601783522054604051908152f35b9050346104a25760203660031901126104a25760a091604091358152600a6020522080549060018101549060ff6003600283015492015492604051948552600180871b0381166020860152851c161515604084015260608301526080820152f35b82346103d757806003193601126103d757546040516001600160a01b039091168152602090f35b9050346104a25760203660031901126104a2578035906116c4614679565b60ff60065416600281101561170b57600103610b0257817f604c74553f78644ba502fc899aa38b2bd17e2fe3a925b6a41497c61c09dc30ad9260209255604051908152a180f35b634e487b7160e01b845260218252602484fd5b9050346104a25760203660031901126104a25780604060209360ff93358152600c8552200154166040519061175281613299565b8152f35b82346103d757806003193601126103d7576020604051662386f26fc100008152f35b612ff0565b9050346104a2576020806003193601126106ad5781359161179c61464a565b6117a4613af2565b1561138257828452600c82526040842090600260ff82840154166117c781613299565b03611a1957838552600e835260408520335f52835260ff60405f20541615611a0a5760018201546001600160a01b039190821633146119fb57848652600d845260408620335f52845260405f205491858752600d855260408720335f5285528660405f2055858752600e855260408720335f52855260405f2060ff1981541690556101f48084029084820414841517156119e8579061186d6127108994930480956133ca565b94548352600a865280600160408520015416835260178652604083206118948582546133a9565b90558461194c575b5050506118a984336147e6565b60405191825282820152827fb8126a5ec815eb668fe9758ea4c937a8fad17426de95d9bfefede0a073f45eac60403393a36118e382614bdf565b6118fd575b8260015f805160206151938339815191525580f35b611945917f416c6c20616476656e74757265727320666c6564206f722070657269736865646040519261192f84613159565b60218452830152601760f91b6040830152614a09565b5f806118e8565b7f000000000000000000000000000000000000000000000000000000000000000016803b156106ad57604080516340c10f1960e01b81523393810193845260208401879052928492849290918391859183910103925af18015610af7576119d0575b505033855260158352604085206119c68382546133a9565b9055845f8061189c565b6119d990613117565b6119e457845f6119ae565b8480fd5b634e487b7160e01b885260118352602488fd5b60405163416aebb560e11b8152fd5b604051637b7d0a4160e11b8152fd5b6040516327406db960e01b8152fd5b82346103d757806003193601126103d757611a41614679565b611a496142f3565b805460ff60a01b1916600160a01b1781556040513381527f62e78cea01bee320cd4e420270b5ea74000d11b0c9f74754ebdbfc544b05a25890602090a180f35b9050346104a25760203660031901126104a25760406101a09282358152600c602052209081549160018060a01b0360ff8160018401541693830154169060058301549060068401541660078401546008850154600986015491600a87015493600b88015495600c89015497600e6001600160401b03600d8c0154169a01549a6040519c8d5260208d0152611b1c81613299565b60408c015260608b015260808a015260a089015260c088015260e0870152610100860152610120850152610140840152610160830152610180820152f35b9050346104a25760203660031901126104a2576040602092600592358152600c8452200154604051908152f35b82346103d757806003193601126103d7576040517f00000000000000000000000000000000000000000000000000000000000000006001600160a01b03168152602090f35b82346103d757806003193601126103d7576003546040516001600160a01b039091168152602090f35b9050346104a25760203660031901126104a257610691903561349f565b82346103d75760403660031901126103d7576001600160401b038235602435828116908190036106a957818452600c602052604084208581018054600160ff8216611c5c81613299565b03611da85760018060a01b03938460018501541696873303611d9757600d8501541603611d8657600b8301544211611d755760029060ff191617905542600c820155600160058201556002810191825415611d6257825f5260205f20541660068201906001600160601b0360a01b82541617905561012c4201804211611d4f57907f752d99c9b9165044bc600c824910988af07ce9329f3282c253a8290af9e858a692916007820155611d4960405192839233877ff1431aec002f4f8e2cd20bec72149d9ae90478037b8de3a6fceec511e83e0ad48b80a354968352604060208401526040830190613434565b0390a380f35b634e487b7160e01b865260118752602486fd5b603287634e487b7160e01b5f525260245ffd5b6040516302eb354360e41b81528890fd5b6040516368549ea160e01b81528890fd5b60405163e929db7360e01b81528a90fd5b604051637e5e90d960e01b81528890fd5b9050346104a25760203660031901126104a257602091604091358152600983522054604051908152f35b82346103d757806003193601126103d7576020600554604051908152f35b82346103d75760203660031901126103d75760209060ff906040906001600160a01b03611e2c612f67565b168152601384522054166040519015158152f35b82346103d757806003193601126103d7576020600f54604051908152f35b82346103d757806003193601126103d757611e77614679565b5f80546001600160a01b0319811682556001600160a01b03167f8be0079c531659141344cd1fd0a4f28419497f9722a3daafe3b4186f6b6457e08280a380f35b9050346104a25760203660031901126104a257602091604091358152600883522054604051908152f35b82346103d757806003193601126103d7576020604051600f8152f35b9050346104a257816003193601126104a257611f1761464a565b33825260126020526040822054908115611fc35733835260126020528260408120558280808085335af13d15611fbe573d611f5181613484565b90611f5f6040519283613174565b81528460203d92013e5b15611faf57506040519081527f0d41118e36df44efb77a471fc49fb9c0be0406d802ef95520e9fbf606e65b45560203392a260015f805160206151938339815191525580f35b6040516312171d8360e31b8152fd5b611f69565b604051630686827b60e51b8152fd5b9050346104a25760203660031901126104a25790602091358152600c825260016040818060a01b039220015416604051908152f35b82346103d757806003193601126103d757602060405161c3508152f35b9050346104a25760203660031901126104a257803590818352600c602052604083209080820160ff8154169161205983613299565b600180930361217557600b84015442111561216657506001830161209460018060a01b038261208c8883809654166146a4565b54168561473d565b42600c8501556003809401936002855410155f146120e15750505050506120ba81614841565b7f46625ededd9432734d9c577b8d01c3caf5b138d325909d595ac7e73e79659cb58280a280f35b8392600560ff198254161790556120f9600254613478565b60025586925b612133575b5050505050807f83db11557caa3518e394ee3589033b042b4f03f0ed0495a829208e71bfa37f058380a26120ba565b845483101561216157838361215a888561214e85988b6132ec565b905490871b1c166147e6565b01926120ff565b612104565b6040516326c015ab60e21b8152fd5b604051637e5e90d960e01b8152fd5b82346103d757806003193601126103d75760ff6020915460a01c166040519015158152f35b9050346104a25760203660031901126104a2576108c6600360406104fe946108bf94358152600c602052200160405192838092613434565b82346103d75760203660031901126103d7576121fb612f67565b612203614679565b600380546001600160a01b0319166001600160a01b039290921691821790557f1e88b69b395aeeb78420b5ebc8a2c5970f4dcb68d7a99d595eee75666443b2ad8280a280f35b9050346104a25760203660031901126104a25735906001548210156103d7576122ad61227483613093565b5061227e81613195565b9061228b60018201613195565b6122bb6003600284015493015491604051958695608087526080870190613258565b908582036020870152613258565b91604084015260608301520390f35b82346103d757806003193601126103d75760206040516101f48152f35b82346103d757806003193601126103d75760206040516202a3008152f35b82346103d75760203660031901126103d7576020906040906001600160a01b0361232d612f67565b168152601583522054604051908152f35b82346103d75760209160206003193601126104a257356016549283821161245e575b612369826133ee565b92612373836133ee565b9461237d816133ee565b90825b85811061239657604051806104fe8a8a83613047565b8384855b8481106123df5750906123b582600161052181969589613420565b848060a01b0391549060031b1c166123cd838b613420565b526123d8828b613420565b5201612380565b6123e98187613420565b51158061242f575b6123fe575b60010161239a565b80925061240b91506132b7565b905460039190911b1c6001600160a01b0316855260158652604085205490806123f6565b50612439816132b7565b905460039190911b1c6001600160a01b031687526015885260408720548311156123f1565b839150612360565b9050346104a257816003193601126104a257612480614679565b81549060ff8260a01c16156124c8575060ff60a01b191681556040513381527f5db9ee0a495bf2e6ff9c91a7834c1ba4fdd244a5e8aa4e537bd38aeae4b073aa90602090a180f35b604051638dfc202b60e01b8152fd5b82346103d757806003193601126103d75760206040516107d08152f35b82346103d75760203660031901126103d75761250e612f67565b612516614679565b6001600160a01b0316808252601360205260408220805460ff191690557f3e085cc53b86c19e2e6dba628297af6b8f76c89d1384dbcc599bab2adfd62d088280a280f35b82346103d75760203660031901126103d757813561257661464a565b60ff60065416600281101561274e5760010361273d57600b5481101561272c57808252600a6020526040822060018101805494906001600160a01b0390338288160361271b5760ff8760a01c161561270a5760038401548061269a575b50859660ff60a09796971b191690557f0000000000000000000000000000000000000000000000000000000000000000169154823b156106a957604080516323b872dd60e01b8152309381019384523360208501529083019190915291839183919082908490829060600103925af18015610af757612686575b50807f5111f10947aa3f8ff3632b0b9761b69ea31f730b307be2cdca45d3e37b0223e191a260015f805160206151938339815191525580f35b61268f90613117565b6104a257818361264d565b8652600c60205260ff83604088200154166126b481613299565b600281149081156126f7575b81156126e3575b506126d257876125d3565b6040516320490b0360e01b81528390fd5b600191506126f081613299565b14886126c7565b905061270281613299565b8015906126c0565b60405163679779ef60e11b81528390fd5b60405163cf055faf60e01b81528390fd5b604051633370fb8360e21b81528390fd5b604051633e7e88bf60e21b81528390fd5b634e487b7160e01b835260218452602483fd5b82346103d757806003193601126103d7576020600254604051908152f35b82346103d75760203660031901126103d757612799612f67565b6127a1614679565b6001600160a01b038116808352601360205260408320805491929060ff8316156127c9578480f35b60016127db9360ff1916179055613345565b7f82d0829d9d481e4cb9913897f9b9c903271c4db68c7b3324071d2a7e3b2c5ff08280a2818080808480f35b82346103d757806003193601126103d7576040517f00000000000000000000000000000000000000000000000000000000000000006001600160a01b03168152602090f35b82346103d75760603660031901126103d757813591612869612f7d565b60443593808452602091600c83526040852091600260ff868501541661288e81613299565b03612a1b5760018301546001600160a01b039081163303612a0a57818752600e855260408720921691825f52845260ff60405f205416156129f957606487116129e857600883016128e08882546133a9565b6009850154106129d75783548752600a85526002604088200195865490818a1161299a5750887f0e269eea47d99d13826425f278490c90e3febc14639a6b0b2636945f8c1f5fbe926129567f6cf10d2eceb21e4d20a60b3356b55051dd3a1cc4c75f00d84df72b3765ab9c15999a9b89946133ca565b8a55848b52600d835260408b20865f52835260405f206129778382546133a9565b90556129848282546133a9565b9055604051908152a3549254604051908152a280f35b60405162461bcd60e51b81529081018790526016602482015275125b9cdd59999a58da595b9d081b1bdbdd081c1bdbdb60521b6044820152606490fd5b6040516308a26d3d60e31b81528690fd5b6040516308a26d3d60e31b81528590fd5b60405163416aebb560e11b81528590fd5b6040516349fba22960e01b81528690fd5b6040516327406db960e01b81528590fd5b82346103d757806003193601126103d7576020600b54604051908152f35b9050346104a257816003193601126104a25760209054604051908152f35b9050346104a257816003193601126104a257612a82614679565b6006549060ff8216600281101561170b57612ad0575060ff1916600117600655426007556005547f751bb1ba7b27b3979a32844d4d05aa16a46a771b751593704834a80311e3a9b98280a280f35b60405163a5b38bdd60e01b8152fd5b82346103d75760203660031901126103d7576020906040906001600160a01b03612b07612f67565b168152601283522054604051908152f35b9050346104a25760209060206003193601126106ad578035906001600160401b0382116106a957612b4b91369101612fc0565b91612b54614679565b835b838110612b61578480f35b6001906001600160a01b0380612b80612b7b848989613321565b613331565b168752601380855260ff60408920541615612b9e575b505001612b56565b81612bad612b7b858a8a613321565b168852845260408720805460ff191684179055612bd6612bd1612b7b848989613321565b613345565b612be4612b7b838888613321565b167f82d0829d9d481e4cb9913897f9b9c903271c4db68c7b3324071d2a7e3b2c5ff08780a25f80612b96565b82346103d75760403660031901126103d757604090612c2d612f7d565b92358152600d602052209060018060a01b03165f52602052602060405f2054604051908152f35b9050346106a5575f3660031901126106a557612c6e61464a565b612c76613af2565b1561138257335f52601760205260405f209081549182612ca6575b8360015f805160206151938339815191525580f35b5f90557f00000000000000000000000000000000000000000000000000000000000000006001600160a01b0316803b156106a557604080516340c10f1960e01b81523393810193845260208401859052925f92849290918391859183910103925af18015612d5b57612d48575b506040519081527f4dde06d146f45c5901140b17cd6e3c65b3767f374b735f91bdf1bcff9e649c7a60203392a25f8080612c91565b612d53919250613117565b5f905f612d13565b6040513d5f823e3d90fd5b346106a5575f3660031901126106a5576020600154604051908152f35b346106a55760803660031901126106a55780356024356044356001600160401b0381116106a557612db79036908501612f93565b606435946001600160a01b0393848716939092918488036106a55785600354163303612f2457612de56142f3565b6103e88311612f1557865f52602093600c855260405f2096600260ff848a015416612e0f81613299565b03612f04576006880154168603612ef457875f52600e855260405f20865f52855260ff60405f20541615612ee457600587019182548203612ed557507fc29d2a5e82c83e4c6fa93bb07959024f52d48b1b69128307959440cf04b8de68600195612ec795612ebe61001d9c96600a9a968d96875f526010865260405f20905f52855260405f208b60ff198254161790558c600c4291015554926040805195869586528501526040840191613301565b0390a384614c82565b1b9101908154179055614331565b60405163dff5046d60e01b8152fd5b50604051637b7d0a4160e11b8152fd5b50604051631cc191eb60e31b8152fd5b6040516327406db960e01b81528390fd5b6040516315ce03a960e11b8152fd5b604051638fba40ad60e01b8152fd5b346106a55760203660031901126106a5576020906001600160a01b03612f57612f67565b165f526014825260405f20548152f35b600435906001600160a01b03821682036106a557565b602435906001600160a01b03821682036106a557565b9181601f840112156106a5578235916001600160401b0383116106a557602083818601950101116106a557565b9181601f840112156106a5578235916001600160401b0383116106a5576020808501948460051b0101116106a557565b346106a5575f3660031901126106a557602060405160648152f35b9081518082526020808093019301915f5b82811061302a575050505090565b83516001600160a01b03168552938101939281019260010161301c565b9061305a9060408352604083019061300b565b8181036020928301528251808252908201928201915f5b82811061307f575050505090565b835185529381019392810192600101613071565b6001548110156130cb5760015f5260021b7fb10e2d527612073b26eecdfd717e6a320cf44b4afac2b0732d9fcbe2b7fa0cf601905f90565b634e487b7160e01b5f52603260045260245ffd5b90600182811c9216801561310d575b60208310146130f957565b634e487b7160e01b5f52602260045260245ffd5b91607f16916130ee565b6001600160401b03811161312a57604052565b634e487b7160e01b5f52604160045260245ffd5b608081019081106001600160401b0382111761312a57604052565b606081019081106001600160401b0382111761312a57604052565b90601f801991011681019081106001600160401b0382111761312a57604052565b9060405191825f82546131a7816130df565b908184526020946001916001811690815f1461321557506001146131d7575b5050506131d592500383613174565b565b5f90815285812095935091905b8183106131fd5750506131d593508201015f80806131c6565b855488840185015294850194879450918301916131e4565b925050506131d594925060ff191682840152151560051b8201015f80806131c6565b5f5b8381106132485750505f910152565b8181015183820152602001613239565b9060209161327181518092818552858086019101613237565b601f01601f1916010190565b346106a5575f3660031901126106a557602060405161012c8152f35b600711156132a357565b634e487b7160e01b5f52602160045260245ffd5b6016548110156130cb5760165f527fd833147d7dc355ba459fc788f669e58cfaf9dc25ddcd0702e87d69c7b512428901905f90565b80548210156130cb575f5260205f2001905f90565b908060209392818452848401375f828201840152601f01601f1916010190565b91908110156130cb5760051b0190565b356001600160a01b03811681036106a55790565b60165490600160401b82101561312a576133688260016131d594016016556132b7565b90919060018060a01b038084549260031b9316831b921b1916179055565b90815491600160401b83101561312a57826133689160016131d5950181556132ec565b919082018092116133b657565b634e487b7160e01b5f52601160045260245ffd5b919082039182116133b657565b6001600160401b03811161312a5760051b60200190565b906133f8826133d7565b6134056040519182613174565b8281528092613416601f19916133d7565b0190602036910137565b80518210156130cb5760209160051b010190565b9081548082526020809201925f5260205f20915f905b828210613458575050505090565b83546001600160a01b03168552938401936001938401939091019061344a565b80156133b6575f190190565b6001600160401b03811161312a57601f01601f191660200190565b805f52600c60205260405f2090600260ff6004840154166134bf81613299565b036135a157600782015442111561358f5760068201546001600160a01b03908116929083837f6b7db9df117f268ac91630f5a21e9bb01486f1f9629b306adf929c15cb77e8e15f80a360018201541683146135395760016135236131d59483614c82565b1b600a8201908154179055600c42910155614331565b506131d591506040519061354c82613159565b602b82527f5468652044756e67656f6e204d6173746572206162616e646f6e65642074686560208301526a1030b23b32b73a3ab9329760a91b6040830152614a09565b6040516326c015ab60e21b8152600490fd5b6040516327406db960e01b8152600490fd5b5f1981146133b65760010190565b519060ff821682036106a557565b600654905f9160ff80911660028110156132a357613a6857335f52602060138152604082815f20541615613a5857600b54841015613a4857662386f26fc100003410613a3857835f52600a8252805f2094600194848688015460a01c1615613a27578251627eeac760e11b8152336004808301919091525f60248301526001600160a01b0394909290917f00000000000000000000000000000000000000000000000000000000000000008616908781604481855afa908115613a1d575f916139f0575b50156139e157803b156106a5575f809160448b8651948593849263384d50d360e11b8452338b85015260248401525af180156139d7576139c4575b5088549482519563e1dc076160e01b875284870152608086602481847f0000000000000000000000000000000000000000000000000000000000000000165afa9586156139ba57859661393b575b509083916003809b019a8b5480613836575b50505061373c600f546135b3565b809a81600f5555898552600c8752828520908155019160ff1992838154169055868551169060648202918083046064149015171561382357548892916137a8918082101561381c57505b8a8652600c8852828620906009820155600554600e8201556003339101613386565b88845260118652808420335f52865234815f2055888452600e8652808420335f5286525f20918254161790556137df6002546135b3565b600255857f6e9f398ae9148df17bf17280cd9379dd9d0951ed54567638d6b58230ef01d56f339280a3015116146138135750565b6131d590614841565b9050613786565b634e487b7160e01b855260119052602484fd5b90919293508652600c885283862089868201541661385381613299565b156138605785939261372e565b600391989495929a969b9793500196838854930199898b511684101561392c578b5b8481106138fd5750505050506138983386613386565b8354885260118152818820335f52815234825f205583548852600e815281882090335f52525f209060ff198254161790555493847f6e9f398ae9148df17bf17280cd9379dd9d0951ed54567638d6b58230ef01d56f339280a354915116146138135750565b81613908828c6132ec565b905490851b1c16331461391c578701613882565b86516338494f3f60e21b81528490fd5b855162e6d01960e51b81528390fd5b9095506080813d6080116139b2575b8161395760809383613174565b810103126119e45782519061396b8261313e565b613974816135c1565b82526139818882016135c1565b8883015283810151600a8110156139ae578285015260600151848110156112d0576060820152948361371c565b8680fd5b3d915061394a565b83513d87823e3d90fd5b6139cf919450613117565b5f925f6136ce565b83513d5f823e3d90fd5b505051630678856f60e21b8152fd5b90508781813d8311613a16575b613a078183613174565b810103126106a557515f613693565b503d6139fd565b84513d5f823e3d90fd5b825163679779ef60e11b8152600490fd5b5163e92c469f60e01b8152600490fd5b51633370fb8360e21b8152600490fd5b51637b5b95df60e11b8152600490fd5b60405163a5b38bdd60e01b8152600490fd5b818110613a85575050565b5f8155600101613a7a565b9190601f8111613a9f57505050565b6131d5925f5260205f20906020601f840160051c83019310613ac9575b601f0160051c0190613a7a565b9091508190613abc565b908160209103126106a557516001600160a01b03811681036106a55790565b6040516303aa30b960e11b81526001600160a01b039060209081816004817f000000000000000000000000000000000000000000000000000000000000000087165afa908115612d5b575f91613bd3575b50821630149182613b5357505090565b6040516313c085b760e11b81529192509082816004817f000000000000000000000000000000000000000000000000000000000000000086165afa928315612d5b575f93613ba4575b505016301490565b613bc4929350803d10613bcc575b613bbc8183613174565b810190613ad3565b905f80613b9c565b503d613bb2565b613bea9150823d8411613bcc57613bbc8183613174565b5f613b43565b929192613bfc82613484565b91613c0a6040519384613174565b8294818452818301116106a5578281602093845f960137010152565b9491929593906107d087116142e157855f52600c60205260405f2094600260ff600488015416613c5581613299565b036135a15760018601546001600160a01b03918216911681036142cf5760068601546001600160a01b0316036142bd57600585015481036142ab57855f52601060205260405f20905f5260205260ff60405f20541615614299579084929142600c8601555f5b828110613d46575050507ffbcdd01710bb009216f1832f1b441dc535ee2d614a592e3870312133cdfff10f90600584015495613d0a604051928392898452604060208501526040840191613301565b0390a2600260ff600483015416613d2081613299565b03613d4157600a5f91613d356131d5956135b3565b60058201550155614331565b505050565b9091929350607e19823603018160051b83013512156106a557855f52600c60205260405f209081545f52600a60205260405f2060078260051b85013585013510156106a557613d9d8260051b850135850135613299565b60018260051b850135850135145f14613f0f5750606460408260051b8501358501013511613efd57613ddf60408260051b8501358501013560088401546133a9565b600983015410613efd57865f52600e60205260405f2060018060a01b03613e1060208460051b870135870101613331565b165f5260205260ff60405f20541615613eeb57600191875f52600d60205260405f20838060a01b03613e4c60208560051b880135880101613331565b165f5260205260405f20613e6d60408460051b8701358701013582546133a9565b90556008613e8a60408460051b87013587010135828401546133a9565b910155818060a01b03613ea760208360051b860135860101613331565b16877f0e269eea47d99d13826425f278490c90e3febc14639a6b0b2636945f8c1f5fbe602060405160408660051b890135890101358152a35b019085939291613cbb565b60405163416aebb560e11b8152600490fd5b6040516308a26d3d60e31b8152600490fd5b613f218260051b850135850135613299565b60028260051b850135850135145f1461403457509050603260408260051b840135840101351161402257855f52600e60205260405f2060018060a01b03613f7260208460051b860135860101613331565b165f5260205260ff60405f20541615613eeb576001906001600160a01b03613fa5600583901b8501358501602001613331565b165f52601460205260405f20613fc860408360051b8601358601013582546133a9565b9055818060a01b03613fe460208360051b860135860101613331565b16877f92e2d6ebd76115ef02291794ae447e5a864ae2e5419a676d3fb343537dc98ba1602060405160408660051b890135890101358152a35b613ee0565b60405163042c31c960e31b8152600490fd5b6140468260051b850135850135613299565b60048260051b850135850135145f1461420f57875f52600e60205260405f2060018060a01b0361408060208560051b880135880101613331565b165f5260205260ff60405f20541615613eeb576140a760208360051b860135860101613331565b60018401546001600160a01b03918216911614613eeb577f6cf10d2eceb21e4d20a60b3356b55051dd3a1cc4c75f00d84df72b3765ab9c1560206001948a5f52600e825260405f20868060a01b03614108848860051b8b01358b0101613331565b165f52825260405f2060ff1981541690558a5f526002600d9485845260405f20888060a01b03614141868a60051b8d01358d0101613331565b165f52845260405f2054958d5f52845260405f20888060a01b0361416e868a60051b8d01358d0101613331565b165f5284525f604081205501936141868186546133a9565b8095558b7f75747761aaf650e3c074aa6ff73a40e2f30746b33f596d3278c6785cf3c8ecba84898060a01b036141c5828d8c60051b8101350101613331565b1693604051908152a35492604051908152a26141e087614bdf565b15613ee05761401d614209614202600584901b86013586016060810190614c50565b3691613bf0565b88614a09565b50600191506142268160051b840135840135613299565b600581811b840135840135036142595761401d614253614202600584901b86013586016060810190614c50565b88614d12565b61426b8160051b840135840135613299565b60068160051b8401358401350361401d5761401d614209614202600584901b86013586016060810190614c50565b6040516364d36aaf60e01b8152600490fd5b60405163dff5046d60e01b8152600490fd5b604051631cc191eb60e31b8152600490fd5b6040516349fba22960e01b8152600490fd5b604051630f05432160e01b8152600490fd5b60ff5f5460a01c1661430157565b60405163d93c066560e01b8152600490fd5b811561431d570690565b634e487b7160e01b5f52601260045260245ffd5b805f526020600c602052604090815f2091600683019160018060a01b039081845416906001808701928484541681145f146144b55750805f939260028901915b6143d8575b5050509050541691826001600160601b0360a01b82541617905561012c4201928342116133b657600781019390935560059092015491519182526001600160a01b031660208201525f805160206151b38339815191529080604081015b0390a2565b81548510156144b057895f52600e815285875f206143f687856132ec565b929054600393841b1c165f52825260ff885f20541661441b575b509382019382614371565b836144378861442a89876132ec565b905490851b1c168c614c82565b1b600a8b015416614410579492505061445092506132ec565b9054911b1c1691826001600160601b0360a01b82541617905561012c4201928342116133b657600781019390935560059092015491519182526001600160a01b031660208201525f805160206151b38339815191529080604081016143d3565b614376565b6144c29088939293614ccc565b5f91839160028a0190835b614547575b505050509050156144e6575b505050505050565b541691826001600160601b0360a01b82541617905561012c4201928342116133b657600781019390935560059092015491519182526001600160a01b031660208201525f805160206151b383398151915290604090a25f80808080806144de565b878c835480891015614642579061456883926145638b876133a9565b614313565b905f52600e86528b5f2061457c82876132ec565b939054600394851b1c165f52865260ff8c5f2054166145a3575b50505094830194836144cd565b8d600a886145c2866145b5868b6132ec565b905490881b1c1684614c82565b1b910154166145965793925094965094506145dd92506132ec565b9054911b1c1690816001600160601b0360a01b87541617865561012c42018042116133b6576007880155600587015485519081526001600160a01b039290921660208301529087905f805160206151b383398151915290604090a2805f8080806144d2565b5050506144d2565b5f8051602061519383398151915260028154146146675760029055565b604051633ee5aeb560e01b8152600490fd5b5f546001600160a01b0316330361468c57565b60405163118cdaa760e01b8152336004820152602490fd5b90805f52602060118152604090815f209360018060a01b031693845f528152815f2054806146d4575b5050505050565b7f16dd876919f5a1d3a62d34d0c40f4f6bd9f269ef564d21d1939452cd57f50b8492845f5260118352805f20865f5283525f81812055845f52600c8352805f20545f52600a83526002815f200161472c8382546133a9565b905551908152a35f808080806146cd565b5f5b60038083018054808410156144de5761475884836132ec565b90546001600160a01b039291851b1c82168783161461477d575050505060010161473f565b919450929194505f19918282019182116133b657613368846147a26147b094886132ec565b905490891b1c1691866132ec565b825480156147d25701926147c484846132ec565b81939154921b1b1916905555565b634e487b7160e01b5f52603160045260245ffd5b815f52601160205260405f209060018060a01b031690815f5260205260405f2054918261481257505050565b5f52601160205260405f20905f526020525f6040812055601260205261483d60405f209182546133a9565b9055565b805f52602090600c825260405f20915f194301904382116133b657600391600385019060405190838201904482524060408301528560608301526080820191835492845f52855f205f5b878682106149ec57505050906148af816148b795949303601f198101835282613174565b519020614313565b926148c284836132ec565b929060018060a01b03938491549060031b1c1694600192839260018a01976001600160601b0360a01b89541617885560028a019283545f8555806149d3575b505f945b614993575b50505050505061012c42018042116133b657600b860155600d8501928354956001600160401b0394858816958087146133b65760017f93cd0b2f56652b714945031a5334544c932bb8e0f6a7428809c5980451e6ced997011680986001600160401b03191617905560048101600160ff19825416179055600c42910155541693604051908152a3565b81548510156149ce578585828297036149ae575b0194614905565b6149c9896149bc83876132ec565b905490881b1c1687613386565b6149a7565b61490a565b6149e690855f52895f2090810190613a7a565b5f614901565b82546001600160a01b03168452909201916001918201910161488b565b91825f526020600c8152604091825f20936004850180549060ff8216614a2e81613299565b60028114159081614bca575b50614bc057869196545f52600a85526004865f209760ff1916179055614a61600254613478565b6002555f925f9160039360038201935b8454811015614acb5780614a87600192876132ec565b838060a01b03915490891b1c168c5f52614ab2600d998a8c528c5f20835f528c528c5f2054906133a9565b988d5f528a528a5f20905f5289525f8a81205501614a71565b5091976002919497959993500195614ae48988546133a9565b8755825f52600c8652845f2060018060a01b0360019282614b0c8784600188970154166146a4565b60035f9101945b614b89575b50505050507fb7458fa566285a63b6431fb97c14943d21f23556ddd52261dc3e7a245c6c2d99907f6cf10d2eceb21e4d20a60b3356b55051dd3a1cc4c75f00d84df72b3765ab9c15969798614b7b86519283928352878984015287830190613258565b0390a25493549051908152a2565b8454811015614bbb57908382614bb28986614ba68598978b6132ec565b905490871b1c166146a4565b01909192614b13565b614b18565b5050509350505050565b60019150614bd781613299565b14155f614a3a565b805f52602090600c6020526040805f209260025f9401908154945b858110614c0c57505050505050600190565b845f52600e8252835f20614c2082856132ec565b60018060a01b0391549060031b1c165f52825260ff845f205416614c4657600101614bfa565b5050505050505f90565b903590601e19813603018212156106a557018035906001600160401b0382116106a5576020019181360383136106a557565b905f5b60038084018054831015614cc35782614c9d916132ec565b9054911b1c6001600160a01b0390811690831614614cbd57600101614c85565b91505090565b50505050505f90565b905f5b600283018054821015614d0a5781614ce6916132ec565b905460039190911b1c6001600160a01b0390811690831614614cbd57600101614ccf565b505050505f90565b9190915f815f52602090600c82526040946004865f20019182549260ff8416614d3a81613299565b60028114159081614f66575b50614f5c576003809460ff1916179055614d61600254613478565b600255845f52600c8452865f20600881015491600f830290831591848104600f148317156133b65760649004936101f492838202938285041417156133b657614dbb8591614db66127108e96049788926133ca565b6133ca565b9381614ea5575b829791614e0c9195939495548552600a8a52614e0660018060a01b039487866001809a8b9a200154168c5260178d528b20614dfe8a82546133a9565b90558c614f7b565b906133a9565b96898152600c895260038c822091614e2a8c866001860154166147e6565b9101945b614e7a575b5050505050906060876143d3937fbbf2ec0fecbaa81a84db04834702331b08fcb83f48e939e49699a02620b29e5f9798995196879687528601528401526060830190613258565b8454811015614ea057908382614e978c8661214e8598978b6132ec565b01909192614e2e565b614e33565b6001810180546001600160a01b037f00000000000000000000000000000000000000000000000000000000000000008116965091908216863b156106a5578e516340c10f1960e01b81526001600160a01b03919091166004820152602481018590528e965f908290604490829084905af18015614f5257614f3f575b505416835260158952838320614f388382546133a9565b9055614dc2565b614f4a919550613117565b5f935f614f21565b87513d5f823e3d90fd5b5050505050509050565b60019150614f7381613299565b14155f614d46565b91905f835f526020600c8152604094855f20935f9060025f9601958654905b818110615109575050811595866150fd575f5b81548110156150f257614fc081836132ec565b9060018060a01b03918291549060031b1c1690865f52600e88528b5f20825f52885260ff8c5f205416156150e857865f52600d88528b5f20825f5288528b5f205480156150dd5785810290810486036133b6578a61431d57869004908161502f575b5050506001905b01614fad565b9892987f00000000000000000000000000000000000000000000000000000000000000001692833b156106a5578c516340c10f1960e01b81526001600160a01b038416600482015260248101839052935f908590604490829084905af19283156150d3576001946150bb946150c4575b505f52601589528c5f206150b48382546133a9565b90556133a9565b96905f80615022565b6150cd90613117565b5f61509f565b8d513d5f823e3d90fd5b505050600190615029565b5050600190615029565b505050505050925050565b505f9750505050505050565b845f52600e8652878a5f2061511e83836132ec565b909160018060a01b03809354600393841b1c165f5289528c898960ff835f205416615152575b505050505050600101614f9a565b866001979a9593600d615184989694615170945f52525f20946132ec565b9054911b1c165f5288528b5f2054906133a9565b939050875f808c898961514456fe9b779b17422d0df92223018b32b4d1fa46e071723d6817e2486d003becc55f0071a468030d22aeb02253b4b21c72d54c47cc061f3f3f476b0015f6a525f6725ea2646970667358221220d32e1d6658803f5cefbd5088987881fbc6bff2c33129ca1a0208b809fc8868ad64736f6c63430008180033","linkReferences":{}},"methodIdentifiers":{"BASE_GOLD_RATE()":"1843adc7","DM_ACCEPT_TIMEOUT()":"d15d486b","DM_FEE_PERCENT()":"67186239","ENTRY_BOND()":"87dc12ed","MAX_ACTION_LENGTH()":"af666162","MAX_GOLD_PER_ACTION()":"852c66f8","MAX_GRACE_PERIOD()":"46619649","MAX_NARRATIVE_LENGTH()":"3e2b5a93","MAX_SKILL_LENGTH()":"5ff66be1","MAX_XP_PER_ACTION()":"a6c86f5f","ROYALTY_BPS()":"49c657db","SESSION_TIMEOUT()":"c083ad99","TURN_TIMEOUT()":"5e82ff65","acceptDM(uint256,uint64)":"777c489b","actionSubmitted(uint256,uint256)":"ed1093d7","activeSessionCount()":"31da3891","addSkill(string,string)":"d862ae87","allAgents(uint256)":"e0bb12f7","awardFromLootPool(uint256,address,uint256)":"10d5583c","batchRegisterAgents(address[])":"0a70e711","bondOf(uint256,address)":"a17c8ea9","claimRoyalties()":"069b7820","currentEpoch()":"76671808","dungeonCount()":"0bdc6fe3","dungeonNFT()":"7f15deb4","dungeons(uint256)":"956e958a","endEpoch()":"0b9663db","enterDungeon(uint256)":"a4da6e13","epochDmFee(uint256)":"76a477a8","epochSkillHash(uint256)":"6946f173","epochState()":"fa8e85ce","flee(uint256)":"84cb37ea","getAgentStats(address)":"b5695b38","getSessionAllPlayers(uint256)":"57af363a","getSessionDM(uint256)":"66297e0a","getSessionDmEpoch(uint256)":"f00dd5db","getSessionParty(uint256)":"e3fa9335","getSessionState(uint256)":"885b551e","getSessionTurn(uint256)":"8110c0a5","getSkill(uint256)":"bd880fae","getSkillCount()":"05f53b29","getTopByGold(uint256)":"40cc5d82","getTopByXP(uint256)":"f2c6af98","gold()":"fbec6f21","graceStartTime()":"a2da2c9a","isConfigured()":"d3a057c8","maxGoldPerSession()":"0ba43181","owner()":"8da5cb5b","pause()":"8456cb59","paused()":"5c975abb","pendingRoyalties(address)":"9a2fa9bb","registerAgent(address)":"306b9bb9","registeredAgents(address)":"74ee82fc","renounceOwnership()":"715018a6","rerollDM(uint256)":"5cc1cc8d","runner()":"7a8ca615","sessionCount()":"73cd8336","sessionPlayerAlive(uint256,address)":"a6725a68","sessionPlayerGold(uint256,address)":"07cd56cb","sessions(uint256)":"83c4b7a3","setMaxGoldPerSession(uint256)":"8d543e6b","setRunner(address)":"570d3e25","skills(uint256)":"50d15fbe","stakeDungeon(uint256)":"d9c65c27","startEpoch()":"a2c8b177","submitAction(uint256,uint256,string,address)":"04ec5cff","submitDMResponse(uint256,uint256,string,(uint8,address,uint256,string)[],address)":"ed4d4ffe","tickets()":"21858521","timeoutAdvance(uint256)":"7a290a3e","timeoutSession(uint256)":"e84206e2","totalGoldEarned(address)":"44262970","transferOwnership(address)":"f2fde38b","unpause()":"3f4ba83a","unregisterAgent(address)":"3826b9bc","unstakeDungeon(uint256)":"3723148e","updateSkill(uint256,string,string)":"ad116f7b","withdrawBond()":"66eb9cec","withdrawableBonds(address)":"0b753df7","xp(address)":"0490cb74"},"id":0}