{"abi":[{"type":"constructor","inputs":[{"name":"_gold","type":"address","internalType":"address"},{"name":"_dungeonNFT","type":"address","internalType":"address"},{"name":"_tickets","type":"address","internalType":"address"}],"stateMutability":"nonpayable"},{"type":"receive","stateMutability":"payable"},{"type":"function","name":"BASE_GOLD_RATE","inputs":[],"outputs":[{"name":"","type":"uint256","internalType":"uint256"}],"stateMutability":"view"},{"type":"function","name":"DM_ACCEPT_TIMEOUT","inputs":[],"outputs":[{"name":"","type":"uint256","internalType":"uint256"}],"stateMutability":"view"},{"type":"function","name":"DM_FEE_PERCENT","inputs":[],"outputs":[{"name":"","type":"uint256","internalType":"uint256"}],"stateMutability":"view"},{"type":"function","name":"ENTRY_BOND","inputs":[],"outputs":[{"name":"","type":"uint256","internalType":"uint256"}],"stateMutability":"view"},{"type":"function","name":"MAX_ACTION_LENGTH","inputs":[],"outputs":[{"name":"","type":"uint256","internalType":"uint256"}],"stateMutability":"view"},{"type":"function","name":"MAX_GOLD_PER_ACTION","inputs":[],"outputs":[{"name":"","type":"uint256","internalType":"uint256"}],"stateMutability":"view"},{"type":"function","name":"MAX_GRACE_PERIOD","inputs":[],"outputs":[{"name":"","type":"uint256","internalType":"uint256"}],"stateMutability":"view"},{"type":"function","name":"MAX_NARRATIVE_LENGTH","inputs":[],"outputs":[{"name":"","type":"uint256","internalType":"uint256"}],"stateMutability":"view"},{"type":"function","name":"MAX_SKILL_LENGTH","inputs":[],"outputs":[{"name":"","type":"uint256","internalType":"uint256"}],"stateMutability":"view"},{"type":"function","name":"MAX_XP_PER_ACTION","inputs":[],"outputs":[{"name":"","type":"uint256","internalType":"uint256"}],"stateMutability":"view"},{"type":"function","name":"ROYALTY_BPS","inputs":[],"outputs":[{"name":"","type":"uint256","internalType":"uint256"}],"stateMutability":"view"},{"type":"function","name":"SESSION_TIMEOUT","inputs":[],"outputs":[{"name":"","type":"uint256","internalType":"uint256"}],"stateMutability":"view"},{"type":"function","name":"TURN_TIMEOUT","inputs":[],"outputs":[{"name":"","type":"uint256","internalType":"uint256"}],"stateMutability":"view"},{"type":"function","name":"acceptDM","inputs":[{"name":"sessionId","type":"uint256","internalType":"uint256"},{"name":"epoch","type":"uint64","internalType":"uint64"},{"name":"dm","type":"address","internalType":"address"}],"outputs":[],"stateMutability":"nonpayable"},{"type":"function","name":"actionSubmitted","inputs":[{"name":"","type":"uint256","internalType":"uint256"},{"name":"","type":"uint256","internalType":"uint256"}],"outputs":[{"name":"","type":"bool","internalType":"bool"}],"stateMutability":"view"},{"type":"function","name":"activeSessionCount","inputs":[],"outputs":[{"name":"","type":"uint256","internalType":"uint256"}],"stateMutability":"view"},{"type":"function","name":"addSkill","inputs":[{"name":"name","type":"string","internalType":"string"},{"name":"content","type":"string","internalType":"string"}],"outputs":[{"name":"skillId","type":"uint256","internalType":"uint256"}],"stateMutability":"nonpayable"},{"type":"function","name":"allAgents","inputs":[{"name":"","type":"uint256","internalType":"uint256"}],"outputs":[{"name":"","type":"address","internalType":"address"}],"stateMutability":"view"},{"type":"function","name":"awardFromLootPool","inputs":[{"name":"sessionId","type":"uint256","internalType":"uint256"},{"name":"player","type":"address","internalType":"address"},{"name":"amount","type":"uint256","internalType":"uint256"}],"outputs":[],"stateMutability":"nonpayable"},{"type":"function","name":"batchRegisterAgents","inputs":[{"name":"agents","type":"address[]","internalType":"address[]"}],"outputs":[],"stateMutability":"nonpayable"},{"type":"function","name":"bondOf","inputs":[{"name":"","type":"uint256","internalType":"uint256"},{"name":"","type":"address","internalType":"address"}],"outputs":[{"name":"","type":"uint256","internalType":"uint256"}],"stateMutability":"view"},{"type":"function","name":"claimRoyalties","inputs":[],"outputs":[],"stateMutability":"nonpayable"},{"type":"function","name":"currentEpoch","inputs":[],"outputs":[{"name":"","type":"uint256","internalType":"uint256"}],"stateMutability":"view"},{"type":"function","name":"dungeonCount","inputs":[],"outputs":[{"name":"","type":"uint256","internalType":"uint256"}],"stateMutability":"view"},{"type":"function","name":"dungeonNFT","inputs":[],"outputs":[{"name":"","type":"address","internalType":"contract DungeonNFT"}],"stateMutability":"view"},{"type":"function","name":"dungeons","inputs":[{"name":"","type":"uint256","internalType":"uint256"}],"outputs":[{"name":"nftId","type":"uint256","internalType":"uint256"},{"name":"owner","type":"address","internalType":"address"},{"name":"active","type":"bool","internalType":"bool"},{"name":"lootPool","type":"uint256","internalType":"uint256"},{"name":"currentSessionId","type":"uint256","internalType":"uint256"}],"stateMutability":"view"},{"type":"function","name":"endEpoch","inputs":[],"outputs":[],"stateMutability":"nonpayable"},{"type":"function","name":"enterDungeon","inputs":[{"name":"dungeonId","type":"uint256","internalType":"uint256"}],"outputs":[],"stateMutability":"payable"},{"type":"function","name":"epochDmFee","inputs":[{"name":"","type":"uint256","internalType":"uint256"}],"outputs":[{"name":"","type":"uint256","internalType":"uint256"}],"stateMutability":"view"},{"type":"function","name":"epochSkillHash","inputs":[{"name":"","type":"uint256","internalType":"uint256"}],"outputs":[{"name":"","type":"bytes32","internalType":"bytes32"}],"stateMutability":"view"},{"type":"function","name":"epochState","inputs":[],"outputs":[{"name":"","type":"uint8","internalType":"enum DungeonManager.EpochState"}],"stateMutability":"view"},{"type":"function","name":"flee","inputs":[{"name":"sessionId","type":"uint256","internalType":"uint256"},{"name":"agent","type":"address","internalType":"address"}],"outputs":[],"stateMutability":"nonpayable"},{"type":"function","name":"getAgentStats","inputs":[{"name":"agent","type":"address","internalType":"address"}],"outputs":[{"name":"agentXP","type":"uint256","internalType":"uint256"},{"name":"agentGold","type":"uint256","internalType":"uint256"},{"name":"isRegistered","type":"bool","internalType":"bool"}],"stateMutability":"view"},{"type":"function","name":"getSessionAllPlayers","inputs":[{"name":"sessionId","type":"uint256","internalType":"uint256"}],"outputs":[{"name":"","type":"address[]","internalType":"address[]"}],"stateMutability":"view"},{"type":"function","name":"getSessionDM","inputs":[{"name":"sessionId","type":"uint256","internalType":"uint256"}],"outputs":[{"name":"","type":"address","internalType":"address"}],"stateMutability":"view"},{"type":"function","name":"getSessionDmEpoch","inputs":[{"name":"sessionId","type":"uint256","internalType":"uint256"}],"outputs":[{"name":"","type":"uint64","internalType":"uint64"}],"stateMutability":"view"},{"type":"function","name":"getSessionParty","inputs":[{"name":"sessionId","type":"uint256","internalType":"uint256"}],"outputs":[{"name":"","type":"address[]","internalType":"address[]"}],"stateMutability":"view"},{"type":"function","name":"getSessionState","inputs":[{"name":"sessionId","type":"uint256","internalType":"uint256"}],"outputs":[{"name":"","type":"uint8","internalType":"enum DungeonManager.SessionState"}],"stateMutability":"view"},{"type":"function","name":"getSessionTurn","inputs":[{"name":"sessionId","type":"uint256","internalType":"uint256"}],"outputs":[{"name":"","type":"uint256","internalType":"uint256"}],"stateMutability":"view"},{"type":"function","name":"getSkill","inputs":[{"name":"skillId","type":"uint256","internalType":"uint256"}],"outputs":[{"name":"","type":"tuple","internalType":"struct DungeonManager.Skill","components":[{"name":"name","type":"string","internalType":"string"},{"name":"content","type":"string","internalType":"string"},{"name":"updatedAt","type":"uint256","internalType":"uint256"},{"name":"lockedUntil","type":"uint256","internalType":"uint256"}]}],"stateMutability":"view"},{"type":"function","name":"getSkillCount","inputs":[],"outputs":[{"name":"","type":"uint256","internalType":"uint256"}],"stateMutability":"view"},{"type":"function","name":"getTopByGold","inputs":[{"name":"count","type":"uint256","internalType":"uint256"}],"outputs":[{"name":"","type":"address[]","internalType":"address[]"},{"name":"","type":"uint256[]","internalType":"uint256[]"}],"stateMutability":"view"},{"type":"function","name":"getTopByXP","inputs":[{"name":"count","type":"uint256","internalType":"uint256"}],"outputs":[{"name":"","type":"address[]","internalType":"address[]"},{"name":"","type":"uint256[]","internalType":"uint256[]"}],"stateMutability":"view"},{"type":"function","name":"gold","inputs":[],"outputs":[{"name":"","type":"address","internalType":"contract Gold"}],"stateMutability":"view"},{"type":"function","name":"graceStartTime","inputs":[],"outputs":[{"name":"","type":"uint256","internalType":"uint256"}],"stateMutability":"view"},{"type":"function","name":"isConfigured","inputs":[],"outputs":[{"name":"","type":"bool","internalType":"bool"}],"stateMutability":"view"},{"type":"function","name":"maxGoldPerSession","inputs":[],"outputs":[{"name":"","type":"uint256","internalType":"uint256"}],"stateMutability":"view"},{"type":"function","name":"owner","inputs":[],"outputs":[{"name":"","type":"address","internalType":"address"}],"stateMutability":"view"},{"type":"function","name":"pause","inputs":[],"outputs":[],"stateMutability":"nonpayable"},{"type":"function","name":"paused","inputs":[],"outputs":[{"name":"","type":"bool","internalType":"bool"}],"stateMutability":"view"},{"type":"function","name":"pendingRoyalties","inputs":[{"name":"","type":"address","internalType":"address"}],"outputs":[{"name":"","type":"uint256","internalType":"uint256"}],"stateMutability":"view"},{"type":"function","name":"registerAgent","inputs":[{"name":"agent","type":"address","internalType":"address"}],"outputs":[],"stateMutability":"nonpayable"},{"type":"function","name":"registeredAgents","inputs":[{"name":"","type":"address","internalType":"address"}],"outputs":[{"name":"","type":"bool","internalType":"bool"}],"stateMutability":"view"},{"type":"function","name":"renounceOwnership","inputs":[],"outputs":[],"stateMutability":"nonpayable"},{"type":"function","name":"rerollDM","inputs":[{"name":"sessionId","type":"uint256","internalType":"uint256"}],"outputs":[],"stateMutability":"nonpayable"},{"type":"function","name":"runner","inputs":[],"outputs":[{"name":"","type":"address","internalType":"address"}],"stateMutability":"view"},{"type":"function","name":"sessionCount","inputs":[],"outputs":[{"name":"","type":"uint256","internalType":"uint256"}],"stateMutability":"view"},{"type":"function","name":"sessionPlayerAlive","inputs":[{"name":"","type":"uint256","internalType":"uint256"},{"name":"","type":"address","internalType":"address"}],"outputs":[{"name":"","type":"bool","internalType":"bool"}],"stateMutability":"view"},{"type":"function","name":"sessionPlayerGold","inputs":[{"name":"","type":"uint256","internalType":"uint256"},{"name":"","type":"address","internalType":"address"}],"outputs":[{"name":"","type":"uint256","internalType":"uint256"}],"stateMutability":"view"},{"type":"function","name":"sessions","inputs":[{"name":"","type":"uint256","internalType":"uint256"}],"outputs":[{"name":"dungeonId","type":"uint256","internalType":"uint256"},{"name":"dm","type":"address","internalType":"address"},{"name":"state","type":"uint8","internalType":"enum DungeonManager.SessionState"},{"name":"turnNumber","type":"uint256","internalType":"uint256"},{"name":"currentActor","type":"address","internalType":"address"},{"name":"turnDeadline","type":"uint256","internalType":"uint256"},{"name":"goldPool","type":"uint256","internalType":"uint256"},{"name":"maxGold","type":"uint256","internalType":"uint256"},{"name":"actedThisTurn","type":"uint256","internalType":"uint256"},{"name":"dmAcceptDeadline","type":"uint256","internalType":"uint256"},{"name":"lastActivityTs","type":"uint256","internalType":"uint256"},{"name":"dmEpoch","type":"uint64","internalType":"uint64"},{"name":"epochId","type":"uint256","internalType":"uint256"}],"stateMutability":"view"},{"type":"function","name":"setMaxGoldPerSession","inputs":[{"name":"_max","type":"uint256","internalType":"uint256"}],"outputs":[],"stateMutability":"nonpayable"},{"type":"function","name":"setRunner","inputs":[{"name":"_runner","type":"address","internalType":"address"}],"outputs":[],"stateMutability":"nonpayable"},{"type":"function","name":"skills","inputs":[{"name":"","type":"uint256","internalType":"uint256"}],"outputs":[{"name":"name","type":"string","internalType":"string"},{"name":"content","type":"string","internalType":"string"},{"name":"updatedAt","type":"uint256","internalType":"uint256"},{"name":"lockedUntil","type":"uint256","internalType":"uint256"}],"stateMutability":"view"},{"type":"function","name":"stakeDungeon","inputs":[{"name":"nftId","type":"uint256","internalType":"uint256"}],"outputs":[{"name":"dungeonId","type":"uint256","internalType":"uint256"}],"stateMutability":"nonpayable"},{"type":"function","name":"startEpoch","inputs":[],"outputs":[],"stateMutability":"nonpayable"},{"type":"function","name":"submitAction","inputs":[{"name":"sessionId","type":"uint256","internalType":"uint256"},{"name":"turnIndex","type":"uint256","internalType":"uint256"},{"name":"action","type":"string","internalType":"string"},{"name":"player","type":"address","internalType":"address"}],"outputs":[],"stateMutability":"nonpayable"},{"type":"function","name":"submitDMResponse","inputs":[{"name":"sessionId","type":"uint256","internalType":"uint256"},{"name":"turnIndex","type":"uint256","internalType":"uint256"},{"name":"narrative","type":"string","internalType":"string"},{"name":"actions","type":"tuple[]","internalType":"struct DungeonManager.DMAction[]","components":[{"name":"actionType","type":"uint8","internalType":"enum DungeonManager.DMActionType"},{"name":"target","type":"address","internalType":"address"},{"name":"value","type":"uint256","internalType":"uint256"},{"name":"narrative","type":"string","internalType":"string"}]},{"name":"dm","type":"address","internalType":"address"}],"outputs":[],"stateMutability":"nonpayable"},{"type":"function","name":"tickets","inputs":[],"outputs":[{"name":"","type":"address","internalType":"contract DungeonTickets"}],"stateMutability":"view"},{"type":"function","name":"timeoutAdvance","inputs":[{"name":"sessionId","type":"uint256","internalType":"uint256"}],"outputs":[],"stateMutability":"nonpayable"},{"type":"function","name":"timeoutSession","inputs":[{"name":"sessionId","type":"uint256","internalType":"uint256"}],"outputs":[],"stateMutability":"nonpayable"},{"type":"function","name":"totalGoldEarned","inputs":[{"name":"","type":"address","internalType":"address"}],"outputs":[{"name":"","type":"uint256","internalType":"uint256"}],"stateMutability":"view"},{"type":"function","name":"transferOwnership","inputs":[{"name":"newOwner","type":"address","internalType":"address"}],"outputs":[],"stateMutability":"nonpayable"},{"type":"function","name":"unpause","inputs":[],"outputs":[],"stateMutability":"nonpayable"},{"type":"function","name":"unregisterAgent","inputs":[{"name":"agent","type":"address","internalType":"address"}],"outputs":[],"stateMutability":"nonpayable"},{"type":"function","name":"unstakeDungeon","inputs":[{"name":"dungeonId","type":"uint256","internalType":"uint256"}],"outputs":[],"stateMutability":"nonpayable"},{"type":"function","name":"updateSkill","inputs":[{"name":"skillId","type":"uint256","internalType":"uint256"},{"name":"name","type":"string","internalType":"string"},{"name":"content","type":"string","internalType":"string"}],"outputs":[],"stateMutability":"nonpayable"},{"type":"function","name":"withdrawBond","inputs":[],"outputs":[],"stateMutability":"nonpayable"},{"type":"function","name":"withdrawableBonds","inputs":[{"name":"","type":"address","internalType":"address"}],"outputs":[{"name":"","type":"uint256","internalType":"uint256"}],"stateMutability":"view"},{"type":"function","name":"xp","inputs":[{"name":"","type":"address","internalType":"address"}],"outputs":[{"name":"","type":"uint256","internalType":"uint256"}],"stateMutability":"view"},{"type":"event","name":"ActionSubmitted","inputs":[{"name":"sessionId","type":"uint256","indexed":true,"internalType":"uint256"},{"name":"agent","type":"address","indexed":true,"internalType":"address"},{"name":"turn","type":"uint256","indexed":false,"internalType":"uint256"},{"name":"action","type":"string","indexed":false,"internalType":"string"}],"anonymous":false},{"type":"event","name":"AgentRegistered","inputs":[{"name":"agent","type":"address","indexed":true,"internalType":"address"}],"anonymous":false},{"type":"event","name":"AgentUnregistered","inputs":[{"name":"agent","type":"address","indexed":true,"internalType":"address"}],"anonymous":false},{"type":"event","name":"BondForfeited","inputs":[{"name":"sessionId","type":"uint256","indexed":true,"internalType":"uint256"},{"name":"player","type":"address","indexed":true,"internalType":"address"},{"name":"amount","type":"uint256","indexed":false,"internalType":"uint256"}],"anonymous":false},{"type":"event","name":"BondWithdrawn","inputs":[{"name":"player","type":"address","indexed":true,"internalType":"address"},{"name":"amount","type":"uint256","indexed":false,"internalType":"uint256"}],"anonymous":false},{"type":"event","name":"DMResponse","inputs":[{"name":"sessionId","type":"uint256","indexed":true,"internalType":"uint256"},{"name":"turn","type":"uint256","indexed":false,"internalType":"uint256"},{"name":"narrative","type":"string","indexed":false,"internalType":"string"}],"anonymous":false},{"type":"event","name":"DmAccepted","inputs":[{"name":"sessionId","type":"uint256","indexed":true,"internalType":"uint256"},{"name":"dm","type":"address","indexed":true,"internalType":"address"}],"anonymous":false},{"type":"event","name":"DmRerolled","inputs":[{"name":"sessionId","type":"uint256","indexed":true,"internalType":"uint256"}],"anonymous":false},{"type":"event","name":"DmSelected","inputs":[{"name":"sessionId","type":"uint256","indexed":true,"internalType":"uint256"},{"name":"dm","type":"address","indexed":true,"internalType":"address"},{"name":"epoch","type":"uint64","indexed":false,"internalType":"uint64"}],"anonymous":false},{"type":"event","name":"DungeonActivated","inputs":[{"name":"dungeonId","type":"uint256","indexed":true,"internalType":"uint256"},{"name":"nftId","type":"uint256","indexed":false,"internalType":"uint256"},{"name":"owner","type":"address","indexed":false,"internalType":"address"}],"anonymous":false},{"type":"event","name":"DungeonCompleted","inputs":[{"name":"sessionId","type":"uint256","indexed":true,"internalType":"uint256"},{"name":"totalGoldMinted","type":"uint256","indexed":false,"internalType":"uint256"},{"name":"royaltyPaid","type":"uint256","indexed":false,"internalType":"uint256"},{"name":"recap","type":"string","indexed":false,"internalType":"string"}],"anonymous":false},{"type":"event","name":"DungeonDeactivated","inputs":[{"name":"dungeonId","type":"uint256","indexed":true,"internalType":"uint256"}],"anonymous":false},{"type":"event","name":"DungeonFailed","inputs":[{"name":"sessionId","type":"uint256","indexed":true,"internalType":"uint256"},{"name":"goldToLootPool","type":"uint256","indexed":false,"internalType":"uint256"},{"name":"recap","type":"string","indexed":false,"internalType":"string"}],"anonymous":false},{"type":"event","name":"EpochEnded","inputs":[{"name":"epoch","type":"uint256","indexed":true,"internalType":"uint256"}],"anonymous":false},{"type":"event","name":"EpochStarted","inputs":[{"name":"epoch","type":"uint256","indexed":true,"internalType":"uint256"},{"name":"skillHash","type":"bytes32","indexed":false,"internalType":"bytes32"},{"name":"dmFee","type":"uint256","indexed":false,"internalType":"uint256"}],"anonymous":false},{"type":"event","name":"GameStarted","inputs":[{"name":"sessionId","type":"uint256","indexed":true,"internalType":"uint256"},{"name":"dungeonId","type":"uint256","indexed":true,"internalType":"uint256"},{"name":"dm","type":"address","indexed":false,"internalType":"address"},{"name":"party","type":"address[]","indexed":false,"internalType":"address[]"}],"anonymous":false},{"type":"event","name":"GoldAwarded","inputs":[{"name":"sessionId","type":"uint256","indexed":true,"internalType":"uint256"},{"name":"player","type":"address","indexed":true,"internalType":"address"},{"name":"amount","type":"uint256","indexed":false,"internalType":"uint256"}],"anonymous":false},{"type":"event","name":"LootPoolUpdated","inputs":[{"name":"dungeonId","type":"uint256","indexed":true,"internalType":"uint256"},{"name":"newTotal","type":"uint256","indexed":false,"internalType":"uint256"}],"anonymous":false},{"type":"event","name":"MaxGoldPerSessionUpdated","inputs":[{"name":"newMax","type":"uint256","indexed":false,"internalType":"uint256"}],"anonymous":false},{"type":"event","name":"OwnershipTransferred","inputs":[{"name":"previousOwner","type":"address","indexed":true,"internalType":"address"},{"name":"newOwner","type":"address","indexed":true,"internalType":"address"}],"anonymous":false},{"type":"event","name":"Paused","inputs":[{"name":"account","type":"address","indexed":false,"internalType":"address"}],"anonymous":false},{"type":"event","name":"PlayerDied","inputs":[{"name":"sessionId","type":"uint256","indexed":true,"internalType":"uint256"},{"name":"agent","type":"address","indexed":true,"internalType":"address"},{"name":"goldToLootPool","type":"uint256","indexed":false,"internalType":"uint256"}],"anonymous":false},{"type":"event","name":"PlayerEntered","inputs":[{"name":"sessionId","type":"uint256","indexed":true,"internalType":"uint256"},{"name":"agent","type":"address","indexed":true,"internalType":"address"}],"anonymous":false},{"type":"event","name":"PlayerFled","inputs":[{"name":"sessionId","type":"uint256","indexed":true,"internalType":"uint256"},{"name":"agent","type":"address","indexed":true,"internalType":"address"},{"name":"goldKept","type":"uint256","indexed":false,"internalType":"uint256"},{"name":"royaltyPaid","type":"uint256","indexed":false,"internalType":"uint256"}],"anonymous":false},{"type":"event","name":"RoyaltyClaimed","inputs":[{"name":"owner","type":"address","indexed":true,"internalType":"address"},{"name":"amount","type":"uint256","indexed":false,"internalType":"uint256"}],"anonymous":false},{"type":"event","name":"RunnerUpdated","inputs":[{"name":"runner","type":"address","indexed":true,"internalType":"address"}],"anonymous":false},{"type":"event","name":"SessionCancelled","inputs":[{"name":"sessionId","type":"uint256","indexed":true,"internalType":"uint256"}],"anonymous":false},{"type":"event","name":"SessionTimedOut","inputs":[{"name":"sessionId","type":"uint256","indexed":true,"internalType":"uint256"}],"anonymous":false},{"type":"event","name":"SkillAdded","inputs":[{"name":"skillId","type":"uint256","indexed":true,"internalType":"uint256"},{"name":"name","type":"string","indexed":false,"internalType":"string"}],"anonymous":false},{"type":"event","name":"SkillRemoved","inputs":[{"name":"skillId","type":"uint256","indexed":true,"internalType":"uint256"}],"anonymous":false},{"type":"event","name":"SkillUpdated","inputs":[{"name":"skillId","type":"uint256","indexed":true,"internalType":"uint256"},{"name":"name","type":"string","indexed":false,"internalType":"string"}],"anonymous":false},{"type":"event","name":"TurnAdvanced","inputs":[{"name":"sessionId","type":"uint256","indexed":true,"internalType":"uint256"},{"name":"newTurn","type":"uint256","indexed":false,"internalType":"uint256"},{"name":"nextActor","type":"address","indexed":false,"internalType":"address"}],"anonymous":false},{"type":"event","name":"TurnTimeout","inputs":[{"name":"sessionId","type":"uint256","indexed":true,"internalType":"uint256"},{"name":"agent","type":"address","indexed":true,"internalType":"address"}],"anonymous":false},{"type":"event","name":"Unpaused","inputs":[{"name":"account","type":"address","indexed":false,"internalType":"address"}],"anonymous":false},{"type":"event","name":"XPAwarded","inputs":[{"name":"sessionId","type":"uint256","indexed":true,"internalType":"uint256"},{"name":"player","type":"address","indexed":true,"internalType":"address"},{"name":"amount","type":"uint256","indexed":false,"internalType":"uint256"}],"anonymous":false},{"type":"error","name":"ActionTooLong","inputs":[]},{"type":"error","name":"AlreadyInParty","inputs":[]},{"type":"error","name":"AlreadySubmitted","inputs":[]},{"type":"error","name":"DeadlineNotPassed","inputs":[]},{"type":"error","name":"DungeonHasActiveSession","inputs":[]},{"type":"error","name":"DungeonNotActive","inputs":[]},{"type":"error","name":"DungeonNotOwned","inputs":[]},{"type":"error","name":"EnforcedPause","inputs":[]},{"type":"error","name":"EpochNotActive","inputs":[]},{"type":"error","name":"EpochNotGrace","inputs":[]},{"type":"error","name":"ExpectedPause","inputs":[]},{"type":"error","name":"GoldCapExceeded","inputs":[]},{"type":"error","name":"GracePeriodActive","inputs":[]},{"type":"error","name":"InsufficientBond","inputs":[]},{"type":"error","name":"InsufficientTickets","inputs":[]},{"type":"error","name":"InvalidDungeonId","inputs":[]},{"type":"error","name":"InvalidSkillId","inputs":[]},{"type":"error","name":"InvalidTarget","inputs":[]},{"type":"error","name":"NarrativeTooLong","inputs":[]},{"type":"error","name":"NoActionYet","inputs":[]},{"type":"error","name":"NotConfigured","inputs":[]},{"type":"error","name":"NotDungeonOwner","inputs":[]},{"type":"error","name":"NotRegisteredAgent","inputs":[]},{"type":"error","name":"NotRunner","inputs":[]},{"type":"error","name":"NotSelectedDM","inputs":[]},{"type":"error","name":"NotSessionDM","inputs":[]},{"type":"error","name":"NotTimedOut","inputs":[]},{"type":"error","name":"NotWaitingDM","inputs":[]},{"type":"error","name":"NotYourTurn","inputs":[]},{"type":"error","name":"NothingToWithdraw","inputs":[]},{"type":"error","name":"OwnableInvalidOwner","inputs":[{"name":"owner","type":"address","internalType":"address"}]},{"type":"error","name":"OwnableUnauthorizedAccount","inputs":[{"name":"account","type":"address","internalType":"address"}]},{"type":"error","name":"PartyFull","inputs":[]},{"type":"error","name":"PlayerNotAlive","inputs":[]},{"type":"error","name":"ReentrancyGuardReentrantCall","inputs":[]},{"type":"error","name":"SessionNotActive","inputs":[]},{"type":"error","name":"SessionNotTimeoutable","inputs":[]},{"type":"error","name":"SessionNotWaiting","inputs":[]},{"type":"error","name":"SkillContentTooLong","inputs":[]},{"type":"error","name":"SkillLocked","inputs":[]},{"type":"error","name":"StaleEpoch","inputs":[]},{"type":"error","name":"TimeoutNotReached","inputs":[]},{"type":"error","name":"TransferFailed","inputs":[]},{"type":"error","name":"WrongTurn","inputs":[]},{"type":"error","name":"XPCapExceeded","inputs":[]}],"bytecode":{"object":"0x60e0346200018d57601f6200547538819003918201601f19168301916001600160401b0383118484101762000191578084926060946040528339810103126200018d576200004d81620001a5565b906200006a60406200006260208401620001a5565b9201620001a5565b331562000175575f8054336001600160a01b0319821681178355604051956001600160a01b039586949093859391908416907f8be0079c531659141344cd1fd0a4f28419497f9722a3daafe3b4186f6b6457e09080a360017f9b779b17422d0df92223018b32b4d1fa46e071723d6817e2486d003becc55f00556101f4600455166080521660a0521660c052600160ff196006541617600655426007556152ba9081620001bb82396080518181816103a801528181611da401528181612d5d01528181613bc401528181614f6701526150e6015260a051818181610963015281816118f2015281816124d3015261379e015260c05181818161270c0152818161370d0152613c1d0152f35b604051631e4fbdf760e01b81525f6004820152602490fd5b5f80fd5b634e487b7160e01b5f52604160045260245ffd5b51906001600160a01b03821682036200018d5756fe6080806040526004908136101561001f575b5050361561001d575f80fd5b005b5f915f3560e01c9182630490cb7414612fe55750816304ec5cff14612e3557816305f53b2914612e18578163069b782014612d0657816307cd56cb14612cc25781630a70e71114612bca5781630b753df714612b915781630b9663db14612b1a5781630ba4318114612afc5781630bdc6fe314612ade57816310d5583c146128fe5781631843adc7146117785781631e09a6911461273b57816321858521146126f6578163306b9bb91461266e57816331da3891146126505781633723148e146124495781633826b9bc146123e35781633e2b5a93146123c65781633f4ba83a1461235557816340cc5d821461222d57816344262970146121f457816346619649146121d657816349c657db146121b957816350d15fbe14612138578163570d3e25146120d057816357af363a146120985781635c975abb146120735781635cc1cc8d14611f135781635e82ff6514610e8a5781635ff66be114611ef657816363789cf814611bb557816366297e0a14611b8057816366eb9cec14611aab5781636718623914611a8f5781636946f17314611a65578163715018a614611a0c57816373cd8336146119ee57816374ee82fc146119af578163766718081461199157816376a477a8146119675781637a290a3e1461194a5781637a8ca615146119215781637f15deb4146118dc5781638110c0a5146118af57816383c4b7a3146117de5781638456cb591461177d578163852c66f81461177857816387dc12ed14611756578163885b551e1461171e5781638d543e6b146116a65781638da5cb5b1461167f578163956e958a1461161e5781639a2fa9bb146115e5578163a17c8ea9146115a1578163a2c8b177146113af578163a2da2c9a14611391578163a4da6e1314611339578163a6725a68146112f0578163a6c86f5f146112d4578163ad116f7b14611009578163af66616214610fec578163b5695b3814610f8e578163bd880fae14610eac578163c083ad9914610e8f578163d15d486b14610e8a578163d3a057c814610e65578163d862ae8714610b24578163d9c65c271461091d578163e0bb12f7146108da578163e3fa933514610887578163e84206e2146106ea578163ed1093d7146106b1578163ed4d4ffe1461060e578163f00dd5db146105d8578163f2c6af98146104a6578163f2fde38b14610419578163fa8e85ce146103da575063fbec6f21146103935780610011565b346103d757806003193601126103d7576040517f00000000000000000000000000000000000000000000000000000000000000006001600160a01b03168152602090f35b80fd5b82346103d757806003193601126103d75760ff6006541660405191600282101561040657602083838152f35b634e487b7160e01b815260218452602490fd5b9050346104a25760203660031901126104a257610434613019565b61043c61472b565b6001600160a01b0390811691821561048a57505f54826001600160601b0360a01b8216175f55167f8be0079c531659141344cd1fd0a4f28419497f9722a3daafe3b4186f6b6457e05f80a380f35b604051631e4fbdf760e01b8152908101849052602490fd5b5080fd5b82346103d75760209160206003193601126104a25735601654928382116105d0575b6104d1826134e4565b926104db836134e4565b946104e5816134e4565b90825b85811061050257604051806104fe8a8a836130f9565b0390f35b8384855b84811061055157509061052782600161052181969589613516565b52613369565b848060a01b0391549060031b1c1661053f838b613516565b5261054a828b613516565b52016104e8565b61055b8187613516565b5115806105a1575b610570575b600101610506565b80925061057d9150613369565b905460039190911b1c6001600160a01b031685526014865260408520549080610568565b506105ab81613369565b905460039190911b1c6001600160a01b03168752601488526040872054831115610563565b8391506104c8565b9050346104a25760203660031901126104a257600d60406020936001600160401b0393358152600c855220015416604051908152f35b82346103d75760a03660031901126103d7576001600160401b036044358181116106ad5761063f9036908501613045565b90916064359081116106a9576106589036908601613072565b608435939092906001600160a01b0380861686036106a5576003541633036106945761069195966106876143a5565b6024359035613cd8565b80f35b604051638fba40ad60e01b81528790fd5b5f80fd5b8380fd5b8280fd5b9050346104a25760403660031901126104a257604060209260ff9235815260108452818120602435825284522054166040519015158152f35b9050346104a257602090816003193601126106ad57803591828452600c81526040842090828201805460ff8116946107218661334b565b60019560018114159081610872575b5061086357600c850154613840810180911161085057421115610841575060ff191660061790556002546107639061352a565b6002558385526011916011825283604087209260018060a01b03938460018501541690815f5282528760405f2054610831575b505087946003809401925b6107cf575b88887f513a5d1deff7b3b8e694e3b1a204879ef3ea37e114f39bf9cba4dde8a9414d208280a280f35b825486101561082c57868096898b5282845260408b20876107f0838861339e565b905490891b1c165f52845260405f205461080c575b01956107a1565b6108278a8861081b848961339e565b9054908a1b1c16614898565b610805565b6107a6565b61083a91614898565b5f87610796565b60405163828630fb60e01b8152fd5b634e487b7160e01b895260118252602489fd5b60405163608d331160e11b8152fd5b6002915061087f8161334b565b14155f610730565b9050346104a25760203660031901126104a2576108c6600260406104fe946108bf94358152600c602052200160405192838092613489565b0382613226565b6040519182916020835260208301906130bd565b9050346104a25760203660031901126104a25735906016548210156103d757602061090483613369565b905460405160039290921b1c6001600160a01b03168152f35b82346103d75760203660031901126103d75781359161093a6146fc565b6109426143a5565b60ff600654166002811015610b1157600103610b02576001600160a01b03917f00000000000000000000000000000000000000000000000000000000000000008316803b156104a257604080516323b872dd60e01b81523385820190815230602082015291820187905291839183919082908490829060600103925af18015610af757908291610ae3575b5050600b54926109dc84613665565b600b556040519260a08401908482106001600160401b03831117610ad0575094849360037f65720d7438ae7abd61e90af52cd233a1bd441a25508b44d96c6fe91ab33e17db94610ab49460209960405284845289840133815260408501600181526060860192848452604060808801958087528c8152600a8f5220965187556001870192511682549160ff60a01b9051151560a01b16916affffffffffffffffffffff60a81b1617179055516002840155519101556040519182913390839092916020906040830194835260018060a01b0316910152565b0390a260015f8051602061524583398151915255604051908152f35b604190634e487b7160e01b5f525260245ffd5b610aec906131c9565b6103d75780856109cd565b6040513d84823e3d90fd5b604051633e7e88bf60e21b8152fd5b634e487b7160e01b835260218252602483fd5b82346103d75760403660031901126103d75781356001600160401b0381116104a257610b539036908401613045565b906024356001600160401b0381116106a957610b729036908601613045565b929093610b7d61472b565b61c3508411610e5457610bae6001549560405195610b9a876131f0565b610ba5368688613ca2565b87523691613ca2565b60208501908152426040860152816060860152600160401b861015610e415760018601600155610bdd86613145565b929092610e2f5785518051906001600160401b038211610e1c57610c0b82610c058754613191565b87613b42565b602090601f8311600114610db457610c3a9291849183610da9575b50508160011b915f199060031b1c19161790565b83555b600183019151908151916001600160401b038311610d965760209950908291610c758594610c6f8c9a99989754613191565b86613b42565b8a91601f8411600114610d0857836060947f9187da888fb0a4e77ba1969299efdd67961b0bba0aea2875b80e51aefe03f2509a9b9460039794610ccb9492610cfd5750508160011b915f199060031b1c19161790565b90555b604081015160028501550151910155610cf2604051928392888452888401916133b3565b0390a2604051908152f35b015190508e80610c26565b9893929190601f198316848b528c8b209a5b818110610d7c5750927f9187da888fb0a4e77ba1969299efdd67961b0bba0aea2875b80e51aefe03f250999a60609593600193836003999710610d65575b505050811b019055610cce565b01515f1983891b60f8161c191690558d8080610d58565b838301518c556001909b019a8c9a50928d01928d01610d1a565b634e487b7160e01b825260418a52602482fd5b015190508b80610c26565b9190858452602084209084935b601f1984168510610e01576001945083601f19811610610de9575b505050811b018355610c3d565b01515f1960f88460031b161c191690558a8080610ddc565b81810151835560209485019460019093019290910190610dc1565b634e487b7160e01b835260418a52602483fd5b634e487b7160e01b8152808852602490fd5b634e487b7160e01b825260418752602482fd5b60405163a4bd0c6360e01b81528690fd5b82346103d757806003193601126103d7576020610e80613ba4565b6040519015158152f35b61332f565b82346103d757806003193601126103d75760206040516138408152f35b9050346104a25760203660031901126104a2578035916060604051610ed0816131f0565b8181528160208201528260408201520152600154821015610f7f57610f5b610ef783613145565b5060405190610f05826131f0565b610f0e81613247565b8252610f1c60018201613247565b60208301908152610f6e6003600284015493604086019485520154916060850192835260405195869560208752516080602088015260a087019061330a565b9051858203601f1901604087015261330a565b915160608401525160808301520390f35b60405163773a116d60e01b8152fd5b82346103d75760203660031901126103d7576060906001600160a01b03610fb3613019565b1681526014602052604081205490601560205260ff60408083205492601360205220541690604051928352602083015215156040820152f35b82346103d757806003193601126103d75760206040516103e88152f35b82346103d75760603660031901126103d7578135602435926001600160401b03938481116106a95761103e9036908301613045565b90916044358681116112d0576110579036908301613045565b61106297919761472b565b600180548710156112bf5761c35082116112ae5760ff60065416600281101561129b57810361128a5761109487613145565b5093838611611203576110ab86610c058754613191565b8886601f811160011461122157806110d7928c91611216575b508160011b915f199060031b1c19161790565b85555b81850193831161120357506110f9826110f38554613191565b85613b42565b8790601f831160011461117c5750908061114b92899a7fb57d8f12854d4ac4761da51a1a35421fcd197118fd73fe05b065328d468997bd999a926111715750508160011b915f199060031b1c19161790565b90555b60024291015561116b6040519283926020845260208401916133b3565b0390a280f35b013590508a80610c26565b9190601f19821699848a5260209160208b20928b905b8d82106111ec575050837fb57d8f12854d4ac4761da51a1a35421fcd197118fd73fe05b065328d468997bd9a9b9c106111d3575b505050811b01905561114e565b01355f19600384901b60f8161c191690558980806111c6565b808784968294958701358155019501920190611192565b634e487b7160e01b895260419052602488fd5b90508901358d6110c4565b50601f19871690868b528760209260208d20938d905b878d848410611271575050505010611258575b50508186811b0185556110da565b8801355f19600389901b60f8161c191690558a8061124a565b860135875590950194938401938b935090810190611237565b604051633e7e88bf60e21b81528490fd5b634e487b7160e01b895260218552602489fd5b60405163a4bd0c6360e01b81528490fd5b60405163773a116d60e01b81528490fd5b8580fd5b82346103d757806003193601126103d757602060405160328152f35b82346103d75760403660031901126103d75760409061130d61302f565b92358152600e602052209060018060a01b03165f52602052602060ff60405f2054166040519015158152f35b905060203660031901126104a25761134f6146fc565b611357613ba4565b156113825761136e906113686143a5565b35613681565b60015f805160206152458339815191525580f35b60405163d311bc3960e01b8152fd5b82346103d757806003193601126103d7576020600754604051908152f35b9050346104a257816003193601126104a2576113c961472b565b60065460ff811691600283101561158e576001809303610b0257600254151580611562575b6115535750906113ff600554613665565b918260055560ff1980911660065560609184918154905b8184106114885750505050602081519101209082526008602052604082205560055481526009602052600f604082205560055480825260086020527f3315523bc634a360f1de836970863d3a2dc322dec057b898deb4be6da717e43b6040808420548151908152600f6020820152a280f35b90918394816114978196613145565b5001604051916020906114b2815180928480880191016132e9565b8301918a928154916114c383613191565b92868989831692835f14611534575050506001146114fd575b50505050816114f39103601f198101835282613226565b9401929190611416565b90919293508b52828b208b905b8382106115205750500101816114f35f806114dc565b80548383018601528996918501910161150a565b919695935091506114f396501683830152801515020101915f806114dc565b60405163478f84e760e01b8152fd5b506007546202a300810180911161157b574211156113ee565b634e487b7160e01b855260118252602485fd5b634e487b7160e01b845260219052602483fd5b82346103d75760403660031901126103d7576040906115be61302f565b923581526011602052209060018060a01b03165f52602052602060405f2054604051908152f35b82346103d75760203660031901126103d7576020906040906001600160a01b0361160d613019565b168152601783522054604051908152f35b9050346104a25760203660031901126104a25760a091604091358152600a6020522080549060018101549060ff6003600283015492015492604051948552600180871b0381166020860152851c161515604084015260608301526080820152f35b82346103d757806003193601126103d757546040516001600160a01b039091168152602090f35b9050346104a25760203660031901126104a2578035906116c461472b565b60ff60065416600281101561170b57600103610b0257817f604c74553f78644ba502fc899aa38b2bd17e2fe3a925b6a41497c61c09dc30ad9260209255604051908152a180f35b634e487b7160e01b845260218252602484fd5b9050346104a25760203660031901126104a25780604060209360ff93358152600c855220015416604051906117528161334b565b8152f35b82346103d757806003193601126103d7576020604051662386f26fc100008152f35b6130a2565b82346103d757806003193601126103d75761179661472b565b61179e6143a5565b805460ff60a01b1916600160a01b1781556040513381527f62e78cea01bee320cd4e420270b5ea74000d11b0c9f74754ebdbfc544b05a25890602090a180f35b9050346104a25760203660031901126104a25760406101a09282358152600c602052209081549160018060a01b0360ff8160018401541693830154169060058301549060068401541660078401546008850154600986015491600a87015493600b88015495600c89015497600e6001600160401b03600d8c0154169a01549a6040519c8d5260208d01526118718161334b565b60408c015260608b015260808a015260a089015260c088015260e0870152610100860152610120850152610140840152610160830152610180820152f35b9050346104a25760203660031901126104a2576040602092600592358152600c8452200154604051908152f35b82346103d757806003193601126103d7576040517f00000000000000000000000000000000000000000000000000000000000000006001600160a01b03168152602090f35b82346103d757806003193601126103d7576003546040516001600160a01b039091168152602090f35b9050346104a25760203660031901126104a2576106919035613551565b9050346104a25760203660031901126104a257602091604091358152600983522054604051908152f35b82346103d757806003193601126103d7576020600554604051908152f35b82346103d75760203660031901126103d75760209060ff906040906001600160a01b036119da613019565b168152601384522054166040519015158152f35b82346103d757806003193601126103d7576020600f54604051908152f35b82346103d757806003193601126103d757611a2561472b565b5f80546001600160a01b0319811682556001600160a01b03167f8be0079c531659141344cd1fd0a4f28419497f9722a3daafe3b4186f6b6457e08280a380f35b9050346104a25760203660031901126104a257602091604091358152600883522054604051908152f35b82346103d757806003193601126103d7576020604051600f8152f35b9050346104a257816003193601126104a257611ac56146fc565b33825260126020526040822054908115611b715733835260126020528260408120558280808085335af13d15611b6c573d611aff81613536565b90611b0d6040519283613226565b81528460203d92013e5b15611b5d57506040519081527f0d41118e36df44efb77a471fc49fb9c0be0406d802ef95520e9fbf606e65b45560203392a260015f805160206152458339815191525580f35b6040516312171d8360e31b8152fd5b611b17565b604051630686827b60e51b8152fd5b9050346104a25760203660031901126104a25790602091358152600c825260016040818060a01b039220015416604051908152f35b82346103d75760403660031901126103d7578135611bd161302f565b611bd96146fc565b611be1613ba4565b15611ee5576003546001600160a01b03919082163303611ed457828452602091600c83526040852090600260ff8884015416611c1c8161334b565b03611ec357848652600e8452604086209281811693845f52855260ff60405f20541615611eb257816001840154168414611ea157858752600d855260408720845f52855260405f205491868852600d865260408820855f5286528760405f2055868852600e865260408820855f52865260405f2060ff1981541690556101f4808402908482041484151715611e8e57888895949392611cc16127108d9404809661347c565b95548252600a89528060016040842001541682526017895260408220611ce886825461345b565b905585611d9e575b50505091604091611d22857fb8126a5ec815eb668fe9758ea4c937a8fad17426de95d9bfefede0a073f45eac95614898565b825191825286820152a3611d3582614abb565b611d4f575b8260015f805160206152458339815191525580f35b611d97917f416c6c20616476656e74757265727320666c6564206f7220706572697368656460405192611d818461320b565b60218452830152601760f91b6040830152614b2c565b8180611d3a565b909195507f000000000000000000000000000000000000000000000000000000000000000016803b156104a257604080516340c10f1960e01b81526001600160a01b03851697810197885260208801879052968392889290918391859183910103925af1948515611e81578895611e60575b5091611d22857fb8126a5ec815eb668fe9758ea4c937a8fad17426de95d9bfefede0a073f45eac9593886040965260158a52858c20611e5086825461345b565b90559395508294508a9150611cf0565b611e6e9192939495506131c9565b611e7d57908592918789611e10565b8680fd5b50604051903d90823e3d90fd5b634e487b7160e01b895260118a52602489fd5b60405163416aebb560e11b81528890fd5b604051637b7d0a4160e11b81528890fd5b6040516327406db960e01b81528790fd5b604051638fba40ad60e01b81528590fd5b60405163d311bc3960e01b81528490fd5b82346103d757806003193601126103d757602060405161c3508152f35b9050346104a25760203660031901126104a257803590818352600c602052604083209080820160ff81541691611f488361334b565b600180930361206457600b840154421115612055575060018301611f8360018060a01b0382611f7b888380965416614756565b5416856147ef565b42600c8501556003809401936002855410155f14611fd0575050505050611fa9816148f3565b7f46625ededd9432734d9c577b8d01c3caf5b138d325909d595ac7e73e79659cb58280a280f35b8392600560ff19825416179055611fe860025461352a565b60025586925b612022575b5050505050807f83db11557caa3518e394ee3589033b042b4f03f0ed0495a829208e71bfa37f058380a2611fa9565b8454831015612050578383612049888561203d85988b61339e565b905490871b1c16614898565b0192611fee565b611ff3565b6040516326c015ab60e21b8152fd5b604051637e5e90d960e01b8152fd5b82346103d757806003193601126103d75760ff6020915460a01c166040519015158152f35b9050346104a25760203660031901126104a2576108c6600360406104fe946108bf94358152600c602052200160405192838092613489565b82346103d75760203660031901126103d7576120ea613019565b6120f261472b565b600380546001600160a01b0319166001600160a01b039290921691821790557f1e88b69b395aeeb78420b5ebc8a2c5970f4dcb68d7a99d595eee75666443b2ad8280a280f35b9050346104a25760203660031901126104a25735906001548210156103d75761219c61216383613145565b5061216d81613247565b9061217a60018201613247565b6121aa600360028401549301549160405195869560808752608087019061330a565b90858203602087015261330a565b91604084015260608301520390f35b82346103d757806003193601126103d75760206040516101f48152f35b82346103d757806003193601126103d75760206040516202a3008152f35b82346103d75760203660031901126103d7576020906040906001600160a01b0361221c613019565b168152601583522054604051908152f35b82346103d75760209160206003193601126104a257356016549283821161234d575b612258826134e4565b92612262836134e4565b9461226c816134e4565b90825b85811061228557604051806104fe8a8a836130f9565b8384855b8481106122ce5750906122a482600161052181969589613516565b848060a01b0391549060031b1c166122bc838b613516565b526122c7828b613516565b520161226f565b6122d88187613516565b51158061231e575b6122ed575b600101612289565b8092506122fa9150613369565b905460039190911b1c6001600160a01b0316855260158652604085205490806122e5565b5061232881613369565b905460039190911b1c6001600160a01b031687526015885260408720548311156122e0565b83915061224f565b9050346104a257816003193601126104a25761236f61472b565b81549060ff8260a01c16156123b7575060ff60a01b191681556040513381527f5db9ee0a495bf2e6ff9c91a7834c1ba4fdd244a5e8aa4e537bd38aeae4b073aa90602090a180f35b604051638dfc202b60e01b8152fd5b82346103d757806003193601126103d75760206040516107d08152f35b82346103d75760203660031901126103d7576123fd613019565b61240561472b565b6001600160a01b0316808252601360205260408220805460ff191690557f3e085cc53b86c19e2e6dba628297af6b8f76c89d1384dbcc599bab2adfd62d088280a280f35b82346103d75760203660031901126103d75781356124656146fc565b60ff60065416600281101561263d5760010361262c57600b5481101561261b57808252600a6020526040822060018101805494906001600160a01b0390338288160361260a5760ff8760a01c16156125f957600384015480612589575b50859660ff60a09796971b191690557f0000000000000000000000000000000000000000000000000000000000000000169154823b156106a957604080516323b872dd60e01b8152309381019384523360208501529083019190915291839183919082908490829060600103925af18015610af757612575575b50807f5111f10947aa3f8ff3632b0b9761b69ea31f730b307be2cdca45d3e37b0223e191a260015f805160206152458339815191525580f35b61257e906131c9565b6104a257818361253c565b8652600c60205260ff83604088200154166125a38161334b565b600281149081156125e6575b81156125d2575b506125c157876124c2565b6040516320490b0360e01b81528390fd5b600191506125df8161334b565b14886125b6565b90506125f18161334b565b8015906125af565b60405163679779ef60e11b81528390fd5b60405163cf055faf60e01b81528390fd5b604051633370fb8360e21b81528390fd5b604051633e7e88bf60e21b81528390fd5b634e487b7160e01b835260218452602483fd5b82346103d757806003193601126103d7576020600254604051908152f35b82346103d75760203660031901126103d757612688613019565b61269061472b565b6001600160a01b038116808352601360205260408320805491929060ff8316156126b8578480f35b60016126ca9360ff19161790556133f7565b7f82d0829d9d481e4cb9913897f9b9c903271c4db68c7b3324071d2a7e3b2c5ff08280a2818080808480f35b82346103d757806003193601126103d7576040517f00000000000000000000000000000000000000000000000000000000000000006001600160a01b03168152602090f35b82346103d75760603660031901126103d7576001600160401b038235602435828116908190036106a9576044356001600160a01b03818116918290036106a5578060035416330361069457838652600c602052604086209287840190815490600160ff83166127a98161334b565b036128ed5783600187015416978886036128dc57600d87015416036128cb57600b85015442116128ba5760029060ff191617905542600c8401556001600584015560028301908154156128a757815f5260205f20541660068401906001600160601b0360a01b82541617905561012c42018042116128945783929161288e9160077f752d99c9b9165044bc600c824910988af07ce9329f3282c253a8290af9e858a6960155604051938493877ff1431aec002f4f8e2cd20bec72149d9ae90478037b8de3a6fceec511e83e0ad48b80a354968352604060208401526040830190613489565b0390a380f35b634e487b7160e01b875260118852602487fd5b603288634e487b7160e01b5f525260245ffd5b6040516302eb354360e41b81528990fd5b6040516368549ea160e01b81528990fd5b60405163e929db7360e01b81528b90fd5b604051637e5e90d960e01b81528a90fd5b82346103d75760603660031901126103d75781359161291b61302f565b60443593808452602091600c83526040852091600260ff86850154166129408161334b565b03612acd5760018301546001600160a01b039081163303612abc57818752600e855260408720921691825f52845260ff60405f20541615612aab5760648711612a9a576008830161299288825461345b565b600985015410612a895783548752600a85526002604088200195865490818a11612a4c5750887f0e269eea47d99d13826425f278490c90e3febc14639a6b0b2636945f8c1f5fbe92612a087f6cf10d2eceb21e4d20a60b3356b55051dd3a1cc4c75f00d84df72b3765ab9c15999a9b899461347c565b8a55848b52600d835260408b20865f52835260405f20612a2983825461345b565b9055612a3682825461345b565b9055604051908152a3549254604051908152a280f35b60405162461bcd60e51b81529081018790526016602482015275125b9cdd59999a58da595b9d081b1bdbdd081c1bdbdb60521b6044820152606490fd5b6040516308a26d3d60e31b81528690fd5b6040516308a26d3d60e31b81528590fd5b60405163416aebb560e11b81528590fd5b6040516349fba22960e01b81528690fd5b6040516327406db960e01b81528590fd5b82346103d757806003193601126103d7576020600b54604051908152f35b9050346104a257816003193601126104a25760209054604051908152f35b9050346104a257816003193601126104a257612b3461472b565b6006549060ff8216600281101561170b57612b82575060ff1916600117600655426007556005547f751bb1ba7b27b3979a32844d4d05aa16a46a771b751593704834a80311e3a9b98280a280f35b60405163a5b38bdd60e01b8152fd5b82346103d75760203660031901126103d7576020906040906001600160a01b03612bb9613019565b168152601283522054604051908152f35b9050346104a25760209060206003193601126106ad578035906001600160401b0382116106a957612bfd91369101613072565b91612c0661472b565b835b838110612c13578480f35b6001906001600160a01b0380612c32612c2d8489896133d3565b6133e3565b168752601380855260ff60408920541615612c50575b505001612c08565b81612c5f612c2d858a8a6133d3565b168852845260408720805460ff191684179055612c88612c83612c2d8489896133d3565b6133f7565b612c96612c2d8388886133d3565b167f82d0829d9d481e4cb9913897f9b9c903271c4db68c7b3324071d2a7e3b2c5ff08780a25f80612c48565b82346103d75760403660031901126103d757604090612cdf61302f565b92358152600d602052209060018060a01b03165f52602052602060405f2054604051908152f35b9050346106a5575f3660031901126106a557612d206146fc565b612d28613ba4565b1561138257335f52601760205260405f209081549182612d58575b8360015f805160206152458339815191525580f35b5f90557f00000000000000000000000000000000000000000000000000000000000000006001600160a01b0316803b156106a557604080516340c10f1960e01b81523393810193845260208401859052925f92849290918391859183910103925af18015612e0d57612dfa575b506040519081527f4dde06d146f45c5901140b17cd6e3c65b3767f374b735f91bdf1bcff9e649c7a60203392a25f8080612d43565b612e059192506131c9565b5f905f612dc5565b6040513d5f823e3d90fd5b346106a5575f3660031901126106a5576020600154604051908152f35b346106a55760803660031901126106a55780356024356044356001600160401b0381116106a557612e699036908501613045565b606435946001600160a01b0393848716939092918488036106a55785600354163303612fd657612e976143a5565b6103e88311612fc757865f52602093600c855260405f2096600260ff848a015416612ec18161334b565b03612fb6576006880154168603612fa657875f52600e855260405f20865f52855260ff60405f20541615612f9657600587019182548203612f8757507fc29d2a5e82c83e4c6fa93bb07959024f52d48b1b69128307959440cf04b8de68600195612f7995612f7061001d9c96600a9a968d96875f526010865260405f20905f52855260405f208b60ff198254161790558c600c42910155549260408051958695865285015260408401916133b3565b0390a384614d34565b1b91019081541790556143e3565b60405163dff5046d60e01b8152fd5b50604051637b7d0a4160e11b8152fd5b50604051631cc191eb60e31b8152fd5b6040516327406db960e01b81528390fd5b6040516315ce03a960e11b8152fd5b604051638fba40ad60e01b8152fd5b346106a55760203660031901126106a5576020906001600160a01b03613009613019565b165f526014825260405f20548152f35b600435906001600160a01b03821682036106a557565b602435906001600160a01b03821682036106a557565b9181601f840112156106a5578235916001600160401b0383116106a557602083818601950101116106a557565b9181601f840112156106a5578235916001600160401b0383116106a5576020808501948460051b0101116106a557565b346106a5575f3660031901126106a557602060405160648152f35b9081518082526020808093019301915f5b8281106130dc575050505090565b83516001600160a01b0316855293810193928101926001016130ce565b9061310c906040835260408301906130bd565b8181036020928301528251808252908201928201915f5b828110613131575050505090565b835185529381019392810192600101613123565b60015481101561317d5760015f5260021b7fb10e2d527612073b26eecdfd717e6a320cf44b4afac2b0732d9fcbe2b7fa0cf601905f90565b634e487b7160e01b5f52603260045260245ffd5b90600182811c921680156131bf575b60208310146131ab57565b634e487b7160e01b5f52602260045260245ffd5b91607f16916131a0565b6001600160401b0381116131dc57604052565b634e487b7160e01b5f52604160045260245ffd5b608081019081106001600160401b038211176131dc57604052565b606081019081106001600160401b038211176131dc57604052565b90601f801991011681019081106001600160401b038211176131dc57604052565b9060405191825f825461325981613191565b908184526020946001916001811690815f146132c75750600114613289575b50505061328792500383613226565b565b5f90815285812095935091905b8183106132af57505061328793508201015f8080613278565b85548884018501529485019487945091830191613296565b9250505061328794925060ff191682840152151560051b8201015f8080613278565b5f5b8381106132fa5750505f910152565b81810151838201526020016132eb565b90602091613323815180928185528580860191016132e9565b601f01601f1916010190565b346106a5575f3660031901126106a557602060405161012c8152f35b6007111561335557565b634e487b7160e01b5f52602160045260245ffd5b60165481101561317d5760165f527fd833147d7dc355ba459fc788f669e58cfaf9dc25ddcd0702e87d69c7b512428901905f90565b805482101561317d575f5260205f2001905f90565b908060209392818452848401375f828201840152601f01601f1916010190565b919081101561317d5760051b0190565b356001600160a01b03811681036106a55790565b60165490600160401b8210156131dc5761341a8260016132879401601655613369565b90919060018060a01b038084549260031b9316831b921b1916179055565b90815491600160401b8310156131dc578261341a9160016132879501815561339e565b9190820180921161346857565b634e487b7160e01b5f52601160045260245ffd5b9190820391821161346857565b9081548082526020809201925f5260205f20915f905b8282106134ad575050505090565b83546001600160a01b03168552938401936001938401939091019061349f565b6001600160401b0381116131dc5760051b60200190565b906134ee826134cd565b6134fb6040519182613226565b828152809261350c601f19916134cd565b0190602036910137565b805182101561317d5760209160051b010190565b8015613468575f190190565b6001600160401b0381116131dc57601f01601f191660200190565b805f52600c60205260405f2090600260ff6004840154166135718161334b565b036136535760078201544211156136415760068201546001600160a01b03908116929083837f6b7db9df117f268ac91630f5a21e9bb01486f1f9629b306adf929c15cb77e8e15f80a360018201541683146135eb5760016135d56132879483614d34565b1b600a8201908154179055600c429101556143e3565b506132879150604051906135fe8261320b565b602b82527f5468652044756e67656f6e204d6173746572206162616e646f6e65642074686560208301526a1030b23b32b73a3ab9329760a91b6040830152614b2c565b6040516326c015ab60e21b8152600490fd5b6040516327406db960e01b8152600490fd5b5f1981146134685760010190565b519060ff821682036106a557565b600654905f9160ff809116600281101561335557613b1a57335f52602060138152604082815f20541615613b0a57600b54841015613afa57662386f26fc100003410613aea57835f52600a8252805f2094600194848688015460a01c1615613ad9578251627eeac760e11b8152336004808301919091525f60248301526001600160a01b0394909290917f00000000000000000000000000000000000000000000000000000000000000008616908781604481855afa908115613acf575f91613aa2575b5015613a9357803b156106a5575f809160448b8651948593849263384d50d360e11b8452338b85015260248401525af18015613a8957613a76575b5088549482519563e1dc076160e01b875284870152608086602481847f0000000000000000000000000000000000000000000000000000000000000000165afa958615613a6c5785966139ed575b509083916003809b019a8b54806138e8575b5050506137ee600f54613665565b809a81600f5555898552600c8752828520908155019160ff199283815416905586855116906064820291808304606414901517156138d5575488929161385a91808210156138ce57505b8a8652600c8852828620906009820155600554600e8201556003339101613438565b88845260118652808420335f52865234815f2055888452600e8652808420335f5286525f2091825416179055613891600254613665565b600255857f6e9f398ae9148df17bf17280cd9379dd9d0951ed54567638d6b58230ef01d56f339280a3015116146138c55750565b613287906148f3565b9050613838565b634e487b7160e01b855260119052602484fd5b90919293508652600c88528386208986820154166139058161334b565b15613912578593926137e0565b600391989495929a969b9793500196838854930199898b51168410156139de578b5b8481106139af57505050505061394a3386613438565b8354885260118152818820335f52815234825f205583548852600e815281882090335f52525f209060ff198254161790555493847f6e9f398ae9148df17bf17280cd9379dd9d0951ed54567638d6b58230ef01d56f339280a354915116146138c55750565b816139ba828c61339e565b905490851b1c1633146139ce578701613934565b86516338494f3f60e21b81528490fd5b855162e6d01960e51b81528390fd5b9095506080813d608011613a64575b81613a0960809383613226565b81010312613a6057825190613a1d826131f0565b613a2681613673565b8252613a33888201613673565b8883015283810151600a811015611e7d578285015260600151848110156112d057606082015294836137ce565b8480fd5b3d91506139fc565b83513d87823e3d90fd5b613a819194506131c9565b5f925f613780565b83513d5f823e3d90fd5b505051630678856f60e21b8152fd5b90508781813d8311613ac8575b613ab98183613226565b810103126106a557515f613745565b503d613aaf565b84513d5f823e3d90fd5b825163679779ef60e11b8152600490fd5b5163e92c469f60e01b8152600490fd5b51633370fb8360e21b8152600490fd5b51637b5b95df60e11b8152600490fd5b60405163a5b38bdd60e01b8152600490fd5b818110613b37575050565b5f8155600101613b2c565b9190601f8111613b5157505050565b613287925f5260205f20906020601f840160051c83019310613b7b575b601f0160051c0190613b2c565b9091508190613b6e565b908160209103126106a557516001600160a01b03811681036106a55790565b6040516303aa30b960e11b81526001600160a01b039060209081816004817f000000000000000000000000000000000000000000000000000000000000000087165afa908115612e0d575f91613c85575b50821630149182613c0557505090565b6040516313c085b760e11b81529192509082816004817f000000000000000000000000000000000000000000000000000000000000000086165afa928315612e0d575f93613c56575b505016301490565b613c76929350803d10613c7e575b613c6e8183613226565b810190613b85565b905f80613c4e565b503d613c64565b613c9c9150823d8411613c7e57613c6e8183613226565b5f613bf5565b929192613cae82613536565b91613cbc6040519384613226565b8294818452818301116106a5578281602093845f960137010152565b9491929593906107d0871161439357855f52600c60205260405f2094600260ff600488015416613d078161334b565b036136535760018601546001600160a01b03918216911681036143815760068601546001600160a01b03160361436f576005850154810361435d57855f52601060205260405f20905f5260205260ff60405f2054161561434b579084929142600c8601555f5b828110613df8575050507ffbcdd01710bb009216f1832f1b441dc535ee2d614a592e3870312133cdfff10f90600584015495613dbc6040519283928984526040602085015260408401916133b3565b0390a2600260ff600483015416613dd28161334b565b03613df357600a5f91613de761328795613665565b600582015501556143e3565b505050565b9091929350607e19823603018160051b83013512156106a557855f52600c60205260405f209081545f52600a60205260405f2060078260051b85013585013510156106a557613e4f8260051b85013585013561334b565b60018260051b850135850135145f14613fc15750606460408260051b8501358501013511613faf57613e9160408260051b85013585010135600884015461345b565b600983015410613faf57865f52600e60205260405f2060018060a01b03613ec260208460051b8701358701016133e3565b165f5260205260ff60405f20541615613f9d57600191875f52600d60205260405f20838060a01b03613efe60208560051b8801358801016133e3565b165f5260205260405f20613f1f60408460051b87013587010135825461345b565b90556008613f3c60408460051b870135870101358284015461345b565b910155818060a01b03613f5960208360051b8601358601016133e3565b16877f0e269eea47d99d13826425f278490c90e3febc14639a6b0b2636945f8c1f5fbe602060405160408660051b890135890101358152a35b019085939291613d6d565b60405163416aebb560e11b8152600490fd5b6040516308a26d3d60e31b8152600490fd5b613fd38260051b85013585013561334b565b60028260051b850135850135145f146140e657509050603260408260051b84013584010135116140d457855f52600e60205260405f2060018060a01b0361402460208460051b8601358601016133e3565b165f5260205260ff60405f20541615613f9d576001906001600160a01b03614057600583901b85013585016020016133e3565b165f52601460205260405f2061407a60408360051b86013586010135825461345b565b9055818060a01b0361409660208360051b8601358601016133e3565b16877f92e2d6ebd76115ef02291794ae447e5a864ae2e5419a676d3fb343537dc98ba1602060405160408660051b890135890101358152a35b613f92565b60405163042c31c960e31b8152600490fd5b6140f88260051b85013585013561334b565b60048260051b850135850135145f146142c157875f52600e60205260405f2060018060a01b0361413260208560051b8801358801016133e3565b165f5260205260ff60405f20541615613f9d5761415960208360051b8601358601016133e3565b60018401546001600160a01b03918216911614613f9d577f6cf10d2eceb21e4d20a60b3356b55051dd3a1cc4c75f00d84df72b3765ab9c1560206001948a5f52600e825260405f20868060a01b036141ba848860051b8b01358b01016133e3565b165f52825260405f2060ff1981541690558a5f526002600d9485845260405f20888060a01b036141f3868a60051b8d01358d01016133e3565b165f52845260405f2054958d5f52845260405f20888060a01b03614220868a60051b8d01358d01016133e3565b165f5284525f6040812055019361423881865461345b565b8095558b7f75747761aaf650e3c074aa6ff73a40e2f30746b33f596d3278c6785cf3c8ecba84898060a01b03614277828d8c60051b81013501016133e3565b1693604051908152a35492604051908152a261429287614abb565b15613f92576140cf6142bb6142b4600584901b86013586016060810190614d02565b3691613ca2565b88614b2c565b50600191506142d88160051b84013584013561334b565b600581811b8401358401350361430b576140cf6143056142b4600584901b86013586016060810190614d02565b88614dc4565b61431d8160051b84013584013561334b565b60068160051b840135840135036140cf576140cf6142bb6142b4600584901b86013586016060810190614d02565b6040516364d36aaf60e01b8152600490fd5b60405163dff5046d60e01b8152600490fd5b604051631cc191eb60e31b8152600490fd5b6040516349fba22960e01b8152600490fd5b604051630f05432160e01b8152600490fd5b60ff5f5460a01c166143b357565b60405163d93c066560e01b8152600490fd5b81156143cf570690565b634e487b7160e01b5f52601260045260245ffd5b805f526020600c602052604090815f2091600683019160018060a01b039081845416906001808701928484541681145f146145675750805f939260028901915b61448a575b5050509050541691826001600160601b0360a01b82541617905561012c42019283421161346857600781019390935560059092015491519182526001600160a01b031660208201525f805160206152658339815191529080604081015b0390a2565b815485101561456257895f52600e815285875f206144a8878561339e565b929054600393841b1c165f52825260ff885f2054166144cd575b509382019382614423565b836144e9886144dc898761339e565b905490851b1c168c614d34565b1b600a8b0154166144c25794925050614502925061339e565b9054911b1c1691826001600160601b0360a01b82541617905561012c42019283421161346857600781019390935560059092015491519182526001600160a01b031660208201525f80516020615265833981519152908060408101614485565b614428565b6145749088939293614d7e565b5f91839160028a0190835b6145f9575b50505050905015614598575b505050505050565b541691826001600160601b0360a01b82541617905561012c42019283421161346857600781019390935560059092015491519182526001600160a01b031660208201525f8051602061526583398151915290604090a25f8080808080614590565b878c8354808910156146f4579061461a83926146158b8761345b565b6143c5565b905f52600e86528b5f2061462e828761339e565b939054600394851b1c165f52865260ff8c5f205416614655575b505050948301948361457f565b8d600a8861467486614667868b61339e565b905490881b1c1684614d34565b1b9101541661464857939250949650945061468f925061339e565b9054911b1c1690816001600160601b0360a01b87541617865561012c4201804211613468576007880155600587015485519081526001600160a01b039290921660208301529087905f8051602061526583398151915290604090a2805f808080614584565b505050614584565b5f8051602061524583398151915260028154146147195760029055565b604051633ee5aeb560e01b8152600490fd5b5f546001600160a01b0316330361473e57565b60405163118cdaa760e01b8152336004820152602490fd5b90805f52602060118152604090815f209360018060a01b031693845f528152815f205480614786575b5050505050565b7f16dd876919f5a1d3a62d34d0c40f4f6bd9f269ef564d21d1939452cd57f50b8492845f5260118352805f20865f5283525f81812055845f52600c8352805f20545f52600a83526002815f20016147de83825461345b565b905551908152a35f8080808061477f565b5f5b60038083018054808410156145905761480a848361339e565b90546001600160a01b039291851b1c82168783161461482f57505050506001016147f1565b919450929194505f19918282019182116134685761341a84614854614862948861339e565b905490891b1c16918661339e565b82548015614884570192614876848461339e565b81939154921b1b1916905555565b634e487b7160e01b5f52603160045260245ffd5b815f52601160205260405f209060018060a01b031690815f5260205260405f205491826148c457505050565b5f52601160205260405f20905f526020525f604081205560126020526148ef60405f2091825461345b565b9055565b805f52602090600c825260405f20915f1943019043821161346857600391600385019060405190838201904482524060408301528560608301526080820191835492845f52855f205f5b87868210614a9e57505050906149618161496995949303601f198101835282613226565b5190206143c5565b92614974848361339e565b929060018060a01b03938491549060031b1c1694600192839260018a01976001600160601b0360a01b89541617885560028a019283545f855580614a85575b505f945b614a45575b50505050505061012c420180421161346857600b860155600d8501928354956001600160401b0394858816958087146134685760017f93cd0b2f56652b714945031a5334544c932bb8e0f6a7428809c5980451e6ced997011680986001600160401b03191617905560048101600160ff19825416179055600c42910155541693604051908152a3565b8154851015614a8057858582829703614a60575b01946149b7565b614a7b89614a6e838761339e565b905490881b1c1687613438565b614a59565b6149bc565b614a9890855f52895f2090810190613b2c565b5f6149b3565b82546001600160a01b03168452909201916001918201910161493d565b805f52602090600c6020526040805f209260025f9401908154945b858110614ae857505050505050600190565b845f52600e8252835f20614afc828561339e565b60018060a01b0391549060031b1c165f52825260ff845f205416614b2257600101614ad6565b5050505050505f90565b91825f526020600c8152604091825f20936004850180549060ff8216614b518161334b565b60028114159081614ced575b50614ce357869196545f52600a85526004865f209760ff1916179055614b8460025461352a565b6002555f925f9160039360038201935b8454811015614bee5780614baa6001928761339e565b838060a01b03915490891b1c168c5f52614bd5600d998a8c528c5f20835f528c528c5f20549061345b565b988d5f528a528a5f20905f5289525f8a81205501614b94565b5091976002919497959993500195614c0789885461345b565b8755825f52600c8652845f2060018060a01b0360019282614c2f878460018897015416614756565b60035f9101945b614cac575b50505050507fb7458fa566285a63b6431fb97c14943d21f23556ddd52261dc3e7a245c6c2d99907f6cf10d2eceb21e4d20a60b3356b55051dd3a1cc4c75f00d84df72b3765ab9c15969798614c9e8651928392835287898401528783019061330a565b0390a25493549051908152a2565b8454811015614cde57908382614cd58986614cc98598978b61339e565b905490871b1c16614756565b01909192614c36565b614c3b565b5050509350505050565b60019150614cfa8161334b565b14155f614b5d565b903590601e19813603018212156106a557018035906001600160401b0382116106a5576020019181360383136106a557565b905f5b60038084018054831015614d755782614d4f9161339e565b9054911b1c6001600160a01b0390811690831614614d6f57600101614d37565b91505090565b50505050505f90565b905f5b600283018054821015614dbc5781614d989161339e565b905460039190911b1c6001600160a01b0390811690831614614d6f57600101614d81565b505050505f90565b9190915f815f52602090600c82526040946004865f20019182549260ff8416614dec8161334b565b60028114159081615018575b5061500e576003809460ff1916179055614e1360025461352a565b600255845f52600c8452865f20600881015491600f830290831591848104600f148317156134685760649004936101f4928382029382850414171561346857614e6d8591614e686127108e960497889261347c565b61347c565b9381614f57575b829791614ebe9195939495548552600a8a52614eb860018060a01b039487866001809a8b9a200154168c5260178d528b20614eb08a825461345b565b90558c61502d565b9061345b565b96898152600c895260038c822091614edc8c86600186015416614898565b9101945b614f2c575b505050505090606087614485937fbbf2ec0fecbaa81a84db04834702331b08fcb83f48e939e49699a02620b29e5f979899519687968752860152840152606083019061330a565b8454811015614f5257908382614f498c8661203d8598978b61339e565b01909192614ee0565b614ee5565b6001810180546001600160a01b037f00000000000000000000000000000000000000000000000000000000000000008116965091908216863b156106a5578e516340c10f1960e01b81526001600160a01b03919091166004820152602481018590528e965f908290604490829084905af1801561500457614ff1575b505416835260158952838320614fea83825461345b565b9055614e74565b614ffc9195506131c9565b5f935f614fd3565b87513d5f823e3d90fd5b5050505050509050565b600191506150258161334b565b14155f614df8565b91905f835f526020600c8152604094855f20935f9060025f9601958654905b8181106151bb575050811595866151af575f5b81548110156151a457615072818361339e565b9060018060a01b03918291549060031b1c1690865f52600e88528b5f20825f52885260ff8c5f2054161561519a57865f52600d88528b5f20825f5288528b5f2054801561518f578581029081048603613468578a6143cf5786900490816150e1575b5050506001905b0161505f565b9892987f00000000000000000000000000000000000000000000000000000000000000001692833b156106a5578c516340c10f1960e01b81526001600160a01b038416600482015260248101839052935f908590604490829084905af19283156151855760019461516d94615176575b505f52601589528c5f2061516683825461345b565b905561345b565b96905f806150d4565b61517f906131c9565b5f615151565b8d513d5f823e3d90fd5b5050506001906150db565b50506001906150db565b505050505050925050565b505f9750505050505050565b845f52600e8652878a5f206151d0838361339e565b909160018060a01b03809354600393841b1c165f5289528c898960ff835f205416615204575b50505050505060010161504c565b866001979a9593600d615236989694615222945f52525f209461339e565b9054911b1c165f5288528b5f20549061345b565b939050875f808c89896151f656fe9b779b17422d0df92223018b32b4d1fa46e071723d6817e2486d003becc55f0071a468030d22aeb02253b4b21c72d54c47cc061f3f3f476b0015f6a525f6725ea2646970667358221220613cedbb185c19555d08cddfbfcea94e2349800495d165765107ef8c1ea245fc64736f6c63430008180033","linkReferences":{}},"methodIdentifiers":{"BASE_GOLD_RATE()":"1843adc7","DM_ACCEPT_TIMEOUT()":"d15d486b","DM_FEE_PERCENT()":"67186239","ENTRY_BOND()":"87dc12ed","MAX_ACTION_LENGTH()":"af666162","MAX_GOLD_PER_ACTION()":"852c66f8","MAX_GRACE_PERIOD()":"46619649","MAX_NARRATIVE_LENGTH()":"3e2b5a93","MAX_SKILL_LENGTH()":"5ff66be1","MAX_XP_PER_ACTION()":"a6c86f5f","ROYALTY_BPS()":"49c657db","SESSION_TIMEOUT()":"c083ad99","TURN_TIMEOUT()":"5e82ff65","acceptDM(uint256,uint64,address)":"1e09a691","actionSubmitted(uint256,uint256)":"ed1093d7","activeSessionCount()":"31da3891","addSkill(string,string)":"d862ae87","allAgents(uint256)":"e0bb12f7","awardFromLootPool(uint256,address,uint256)":"10d5583c","batchRegisterAgents(address[])":"0a70e711","bondOf(uint256,address)":"a17c8ea9","claimRoyalties()":"069b7820","currentEpoch()":"76671808","dungeonCount()":"0bdc6fe3","dungeonNFT()":"7f15deb4","dungeons(uint256)":"956e958a","endEpoch()":"0b9663db","enterDungeon(uint256)":"a4da6e13","epochDmFee(uint256)":"76a477a8","epochSkillHash(uint256)":"6946f173","epochState()":"fa8e85ce","flee(uint256,address)":"63789cf8","getAgentStats(address)":"b5695b38","getSessionAllPlayers(uint256)":"57af363a","getSessionDM(uint256)":"66297e0a","getSessionDmEpoch(uint256)":"f00dd5db","getSessionParty(uint256)":"e3fa9335","getSessionState(uint256)":"885b551e","getSessionTurn(uint256)":"8110c0a5","getSkill(uint256)":"bd880fae","getSkillCount()":"05f53b29","getTopByGold(uint256)":"40cc5d82","getTopByXP(uint256)":"f2c6af98","gold()":"fbec6f21","graceStartTime()":"a2da2c9a","isConfigured()":"d3a057c8","maxGoldPerSession()":"0ba43181","owner()":"8da5cb5b","pause()":"8456cb59","paused()":"5c975abb","pendingRoyalties(address)":"9a2fa9bb","registerAgent(address)":"306b9bb9","registeredAgents(address)":"74ee82fc","renounceOwnership()":"715018a6","rerollDM(uint256)":"5cc1cc8d","runner()":"7a8ca615","sessionCount()":"73cd8336","sessionPlayerAlive(uint256,address)":"a6725a68","sessionPlayerGold(uint256,address)":"07cd56cb","sessions(uint256)":"83c4b7a3","setMaxGoldPerSession(uint256)":"8d543e6b","setRunner(address)":"570d3e25","skills(uint256)":"50d15fbe","stakeDungeon(uint256)":"d9c65c27","startEpoch()":"a2c8b177","submitAction(uint256,uint256,string,address)":"04ec5cff","submitDMResponse(uint256,uint256,string,(uint8,address,uint256,string)[],address)":"ed4d4ffe","tickets()":"21858521","timeoutAdvance(uint256)":"7a290a3e","timeoutSession(uint256)":"e84206e2","totalGoldEarned(address)":"44262970","transferOwnership(address)":"f2fde38b","unpause()":"3f4ba83a","unregisterAgent(address)":"3826b9bc","unstakeDungeon(uint256)":"3723148e","updateSkill(uint256,string,string)":"ad116f7b","withdrawBond()":"66eb9cec","withdrawableBonds(address)":"0b753df7","xp(address)":"0490cb74"},"id":0}