{"abi":[{"type":"constructor","inputs":[],"stateMutability":"nonpayable"},{"type":"function","name":"allowance","inputs":[{"name":"owner","type":"address","internalType":"address"},{"name":"spender","type":"address","internalType":"address"}],"outputs":[{"name":"","type":"uint256","internalType":"uint256"}],"stateMutability":"view"},{"type":"function","name":"approve","inputs":[{"name":"spender","type":"address","internalType":"address"},{"name":"value","type":"uint256","internalType":"uint256"}],"outputs":[{"name":"","type":"bool","internalType":"bool"}],"stateMutability":"nonpayable"},{"type":"function","name":"balanceOf","inputs":[{"name":"account","type":"address","internalType":"address"}],"outputs":[{"name":"","type":"uint256","internalType":"uint256"}],"stateMutability":"view"},{"type":"function","name":"burn","inputs":[{"name":"value","type":"uint256","internalType":"uint256"}],"outputs":[],"stateMutability":"nonpayable"},{"type":"function","name":"burnFrom","inputs":[{"name":"account","type":"address","internalType":"address"},{"name":"value","type":"uint256","internalType":"uint256"}],"outputs":[],"stateMutability":"nonpayable"},{"type":"function","name":"decimals","inputs":[],"outputs":[{"name":"","type":"uint8","internalType":"uint8"}],"stateMutability":"view"},{"type":"function","name":"mint","inputs":[{"name":"to","type":"address","internalType":"address"},{"name":"amount","type":"uint256","internalType":"uint256"}],"outputs":[],"stateMutability":"nonpayable"},{"type":"function","name":"minter","inputs":[],"outputs":[{"name":"","type":"address","internalType":"address"}],"stateMutability":"view"},{"type":"function","name":"name","inputs":[],"outputs":[{"name":"","type":"string","internalType":"string"}],"stateMutability":"view"},{"type":"function","name":"owner","inputs":[],"outputs":[{"name":"","type":"address","internalType":"address"}],"stateMutability":"view"},{"type":"function","name":"renounceOwnership","inputs":[],"outputs":[],"stateMutability":"nonpayable"},{"type":"function","name":"setMinter","inputs":[{"name":"_minter","type":"address","internalType":"address"}],"outputs":[],"stateMutability":"nonpayable"},{"type":"function","name":"symbol","inputs":[],"outputs":[{"name":"","type":"string","internalType":"string"}],"stateMutability":"view"},{"type":"function","name":"totalSupply","inputs":[],"outputs":[{"name":"","type":"uint256","internalType":"uint256"}],"stateMutability":"view"},{"type":"function","name":"transfer","inputs":[{"name":"to","type":"address","internalType":"address"},{"name":"value","type":"uint256","internalType":"uint256"}],"outputs":[{"name":"","type":"bool","internalType":"bool"}],"stateMutability":"nonpayable"},{"type":"function","name":"transferFrom","inputs":[{"name":"from","type":"address","internalType":"address"},{"name":"to","type":"address","internalType":"address"},{"name":"value","type":"uint256","internalType":"uint256"}],"outputs":[{"name":"","type":"bool","internalType":"bool"}],"stateMutability":"nonpayable"},{"type":"function","name":"transferOwnership","inputs":[{"name":"newOwner","type":"address","internalType":"address"}],"outputs":[],"stateMutability":"nonpayable"},{"type":"event","name":"Approval","inputs":[{"name":"owner","type":"address","indexed":true,"internalType":"address"},{"name":"spender","type":"address","indexed":true,"internalType":"address"},{"name":"value","type":"uint256","indexed":false,"internalType":"uint256"}],"anonymous":false},{"type":"event","name":"MinterSet","inputs":[{"name":"oldMinter","type":"address","indexed":true,"internalType":"address"},{"name":"newMinter","type":"address","indexed":true,"internalType":"address"}],"anonymous":false},{"type":"event","name":"OwnershipTransferred","inputs":[{"name":"previousOwner","type":"address","indexed":true,"internalType":"address"},{"name":"newOwner","type":"address","indexed":true,"internalType":"address"}],"anonymous":false},{"type":"event","name":"Transfer","inputs":[{"name":"from","type":"address","indexed":true,"internalType":"address"},{"name":"to","type":"address","indexed":true,"internalType":"address"},{"name":"value","type":"uint256","indexed":false,"internalType":"uint256"}],"anonymous":false},{"type":"error","name":"ERC20InsufficientAllowance","inputs":[{"name":"spender","type":"address","internalType":"address"},{"name":"allowance","type":"uint256","internalType":"uint256"},{"name":"needed","type":"uint256","internalType":"uint256"}]},{"type":"error","name":"ERC20InsufficientBalance","inputs":[{"name":"sender","type":"address","internalType":"address"},{"name":"balance","type":"uint256","internalType":"uint256"},{"name":"needed","type":"uint256","internalType":"uint256"}]},{"type":"error","name":"ERC20InvalidApprover","inputs":[{"name":"approver","type":"address","internalType":"address"}]},{"type":"error","name":"ERC20InvalidReceiver","inputs":[{"name":"receiver","type":"address","internalType":"address"}]},{"type":"error","name":"ERC20InvalidSender","inputs":[{"name":"sender","type":"address","internalType":"address"}]},{"type":"error","name":"ERC20InvalidSpender","inputs":[{"name":"spender","type":"address","internalType":"address"}]},{"type":"error","name":"OnlyMinter","inputs":[]},{"type":"error","name":"OwnableInvalidOwner","inputs":[{"name":"owner","type":"address","internalType":"address"}]},{"type":"error","name":"OwnableUnauthorizedAccount","inputs":[{"name":"account","type":"address","internalType":"address"}]},{"type":"error","name":"ZeroAddress","inputs":[]}],"bytecode":{"object":"0x60803462000381576040906001600160401b0390808301828111828210176200036d578352600c81526020916b111d5b99d95bdb8811dbdb1960a21b83830152835192848401848110838211176200036d5785526004938481526311d3d31160e21b828201528351908382116200035a576003928354926001968785811c951680156200034f575b838610146200033c578190601f95868111620002e9575b50839086831160011462000286575f926200027a575b50505f1982871b1c191690871b1784555b8151948511620002675786548681811c911680156200025c575b82821014620002495783811162000201575b50809285116001146200019757509383949184925f956200018b575b50501b925f19911b1c19161781555b331562000176575060058054336001600160a01b0319821681179092559151916001600160a01b03167f8be0079c531659141344cd1fd0a4f28419497f9722a3daafe3b4186f6b6457e05f80a3610aa49081620003868239f35b5f6024925191631e4fbdf760e01b8352820152fd5b015193505f806200010d565b92919084601f198116885f52855f20955f905b89838310620001e65750505010620001cc575b50505050811b0181556200011c565b01519060f8845f19921b161c191690555f808080620001bd565b858701518955909701969485019488935090810190620001aa565b875f52815f208480880160051c8201928489106200023f575b0160051c019087905b82811062000233575050620000f1565b5f815501879062000223565b925081926200021a565b602288634e487b7160e01b5f525260245ffd5b90607f1690620000df565b604187634e487b7160e01b5f525260245ffd5b015190505f80620000b4565b90899350601f19831691885f52855f20925f5b87828210620002d25750508411620002ba575b505050811b018455620000c5565b01515f1983891b60f8161c191690555f8080620002ac565b8385015186558d9790950194938401930162000299565b909150865f52835f208680850160051c82019286861062000332575b918b91869594930160051c01915b828110620003235750506200009e565b5f81558594508b910162000313565b9250819262000305565b602289634e487b7160e01b5f525260245ffd5b94607f169462000087565b604186634e487b7160e01b5f525260245ffd5b634e487b7160e01b5f52604160045260245ffd5b5f80fdfe608060409080825260049081361015610016575f80fd5b5f3560e01c90816306fdde031461069357508063075461721461066b578063095ea7b3146105c257806318160ddd146105a457806323b872dd14610568578063313ce5671461054d57806340c10f191461048b57806342966c681461046e57806370a0823114610438578063715018a6146103dd57806379cc6790146103ac5780638da5cb5b1461038457806395d89b4114610264578063a9059cbb14610234578063dd62ed3e146101eb578063f2fde38b1461015d5763fca3b5aa146100db575f80fd5b34610159576020366003190112610159576100f46107d0565b906100fd610a42565b6001600160a01b0391821692831561014c575050816006549182167f02b23d62d8f733974f8cb13eb804b20135521322b70997c991fc01406632389f5f80a36001600160a01b03191617600655005b5163d92e233d60e01b8152fd5b5f80fd5b5034610159576020366003190112610159576101776107d0565b90610180610a42565b6001600160a01b039182169283156101d5575050600554826bffffffffffffffffffffffff60a01b821617600555167f8be0079c531659141344cd1fd0a4f28419497f9722a3daafe3b4186f6b6457e05f80a3005b905f6024925191631e4fbdf760e01b8352820152fd5b82346101595780600319360112610159576020906102076107d0565b61020f6107e6565b9060018060a01b038091165f5260018452825f2091165f528252805f20549051908152f35b823461015957806003193601126101595760209061025d6102536107d0565b60243590336108c9565b5160018152f35b509034610159575f366003190112610159578051905f835460018160011c906001831692831561037a575b60209384841081146103675783885290811561034b57506001146102f7575b505050829003601f01601f191682019267ffffffffffffffff8411838510176102e457508291826102e0925282610789565b0390f35b604190634e487b7160e01b5f525260245ffd5b5f878152929350837f8a35acfbc15ff81a39ae7d344fd709f28e8600b4aa8c65c6b64bfe7fe36bd19b5b83851061033757505050508301015f80806102ae565b805488860183015293019284908201610321565b60ff1916878501525050151560051b84010190505f80806102ae565b602289634e487b7160e01b5f525260245ffd5b91607f169161028f565b8234610159575f3660031901126101595760055490516001600160a01b039091168152602090f35b823461015957366003190112610159576103db6103c76107d0565b602435906103d68233836107fc565b6109a3565b005b34610159575f366003190112610159576103f5610a42565b600580546001600160a01b031981169091555f906001600160a01b03167f8be0079c531659141344cd1fd0a4f28419497f9722a3daafe3b4186f6b6457e08280a3005b8234610159576020366003190112610159576020906001600160a01b0361045d6107d0565b165f525f8252805f20549051908152f35b5034610159576020366003190112610159576103db9035336109a3565b5090346101595780600319360112610159576104a56107d0565b60065460243592916001600160a01b03918216330361053d5716928315610528576002549083820180921161051557505f927fddf252ad1be2c89b69c2b068fc378daa952ba7f163c4a11628f55a4df523b3ef9260209260025585855284835280852082815401905551908152a3005b601190634e487b7160e01b5f525260245ffd5b5f602492519163ec442f0560e01b8352820152fd5b8251639cdc2ed560e01b81528590fd5b8234610159575f366003190112610159576020905160128152f35b82346101595760603660031901126101595760209061025d6105886107d0565b6105906107e6565b6044359161059f8333836107fc565b6108c9565b8234610159575f366003190112610159576020906002549051908152f35b5090346101595780600319360112610159576105dc6107d0565b602435903315610655576001600160a01b031690811561063f5760209350335f5260018452825f20825f52845280835f205582519081527f8c5be1e5ebec7d5bd14f71427d1e84f3dd0314c0f7b2291e5b200ac8c7c3b925843392a35160018152f35b8251634a1406b160e11b81525f81860152602490fd5b825163e602df0560e01b81525f81860152602490fd5b8234610159575f3660031901126101595760065490516001600160a01b039091168152602090f35b90508234610159575f366003190112610159575f60035460018160011c906001831692831561077f575b602093848410811461036757838852908115610763575060011461070d57505050829003601f01601f191682019267ffffffffffffffff8411838510176102e457508291826102e0925282610789565b60035f908152929350837fc2575a0e9e593c00f959f8c92f12db2869c3395a3b0502d05e2516446f71f85b5b83851061074f57505050508301018480806102ae565b805488860183015293019284908201610739565b60ff1916878501525050151560051b84010190508480806102ae565b91607f16916106bd565b602080825282518183018190529093925f5b8281106107bc57505060409293505f838284010152601f8019910116010190565b81810186015184820160400152850161079b565b600435906001600160a01b038216820361015957565b602435906001600160a01b038216820361015957565b919060018060a01b0380931692835f526001602052604093845f2091831691825f52602052845f2054925f198410610837575b505050505050565b8484106108995750801561088257811561086b575f526001602052835f20905f5260205203905f20555f808080808061082f565b8451634a1406b160e11b81525f6004820152602490fd5b845163e602df0560e01b81525f6004820152602490fd5b8551637dc7a0d960e11b81526001600160a01b039190911660048201526024810184905260448101859052606490fd5b916001600160a01b0380841692831561098b571692831561097357825f525f60205260405f2054908282106109415750817fddf252ad1be2c89b69c2b068fc378daa952ba7f163c4a11628f55a4df523b3ef92602092855f525f84520360405f2055845f5260405f20818154019055604051908152a3565b60405163391434e360e21b81526001600160a01b03919091166004820152602481019190915260448101829052606490fd5b60405163ec442f0560e01b81525f6004820152602490fd5b604051634b637e8f60e11b81525f6004820152602490fd5b91906001600160a01b03831690811561098b57815f525f60205260405f205493818510610a1057506020817fddf252ad1be2c89b69c2b068fc378daa952ba7f163c4a11628f55a4df523b3ef925f95968587528684520360408620558060025403600255604051908152a3565b60405163391434e360e21b81526001600160a01b03919091166004820152602481018590526044810191909152606490fd5b6005546001600160a01b03163303610a5657565b60405163118cdaa760e01b8152336004820152602490fdfea2646970667358221220fa4110871a30ecbbc81080ac505d2cc84ddecefe1f43289ea7f4645be0ddc6d964736f6c63430008180033","linkReferences":{}},"methodIdentifiers":{"allowance(address,address)":"dd62ed3e","approve(address,uint256)":"095ea7b3","balanceOf(address)":"70a08231","burn(uint256)":"42966c68","burnFrom(address,uint256)":"79cc6790","decimals()":"313ce567","mint(address,uint256)":"40c10f19","minter()":"07546172","name()":"06fdde03","owner()":"8da5cb5b","renounceOwnership()":"715018a6","setMinter(address)":"fca3b5aa","symbol()":"95d89b41","totalSupply()":"18160ddd","transfer(address,uint256)":"a9059cbb","transferFrom(address,address,uint256)":"23b872dd","transferOwnership(address)":"f2fde38b"},"id":3}